:020000040800F2
:100000005808002085010008293600089D210008B5
:1000100000000000000000000000000000000000E0
:10002000000000000000000000000000BD3A0008D1
:10003000000000000000000015370008E53B000844
:100040009701000897010008970100089701000830
:100050009701000897010008970100089701000820
:100060009701000897010008970100089701000810
:10007000970100089701000897010008CD3C00088F
:1000800097010008970100089701000897010008F0
:1000900097010008970100089701000897010008E0
:1000A000970100089701000897010008153F000814
:1000B00097010008970100089701000897010008C0
:1000C00000F002F800F04EF80CA030C808382418F0
:1000D0002D18A246671EAB4654465D46AC4201D180
:1000E00000F040F87E460F3E0FCCB6460126334264
:1000F00000D0FB1AA246AB4633431847E04C000041
:10010000004D0000103A02D378C878C1FAD85207DF
:1001100001D330C830C101D504680C6070470000BD
:100120000023002400250026103A01D378C1FBD813
:10013000520700D330C100D50B60704710B5662957
:1001400002D104F03FFD10BD002010BD1FB501F02D
:10015000F3FA04000020002104F0EEFBE0601FBD74
:1001600010B510BD01F062FE1146FFF7EFFF04F07D
:1001700055FB01F07AFE03B4FFF7F2FF03BC01F078
:10018000EFFE00000748804707480047FEE7FEE70C
:10019000FEE7FEE7FEE7FEE704480549054A064B91
:1001A00070470000FD3B0008C10000085802002015
:1001B0005808002058040020580400200FB41CB533
:1001C000074B06AA7B4469460090059801F0B9F9EF
:1001D0000020694601F0C8F91CBC08BC04B01847EF
:1001E000A113000070B5044685690068C10601D5F9
:1001F000302600E02026C00707D070BD6268304678
:10020000A1689047206A401C20626D1EF6D570BD23
:1002100070B5044685690078C00707D170BD626873
:10022000A16820209047206A401C20626D1EF6D5F0
:1002300070BDF3B50446002081B020622046E1681D
:10024000884700287AD0252802D06268A16871E02A
:10025000E16820460025884706460020E061074601
:10026000A0612A2E0AD0304603F0C2FF002827D012
:10027000B8000019303E0090866119E00298BA007B
:10028000121902C8916102902046E1688847012F47
:10029000064617D1E06900281FDA202085431CE0BC
:1002A00000980A2180694843009980193038886194
:1002B0002046E1688847064603F09AFF0028EFD100
:1002C000012F0AD02E2E08D12046E1688847064625
:1002D000202005437F1C022FC3DBA069002803DA1E
:1002E0004042A06101200543E80701D0102085436A
:1002F000002E23D030464138192803D80120C002EF
:1003000005432036204625603146029A1546FFF700
:1003100015FF00280BD0012806D0ED1DE808C0000D
:10032000083002908AE709E02D1D029586E7626891
:100330003046A1689047206A401C7EE7206AFEBDD7
:10034000002203098B422CD3030A8B4211D30023D2
:100350009C464EE003460B433CD4002243088B42AC
:1003600031D303098B421CD3030A8B4201D3944639
:100370003FE0C3098B4201D3CB01C01A524183092C
:100380008B4201D38B01C01A524143098B4201D3E6
:100390004B01C01A524103098B4201D30B01C01A11
:1003A0005241C3088B4201D3CB00C01A524183088B
:1003B0008B4201D38B00C01A524143088B4201D3B8
:1003C0004B00C01A5241411A00D201465241104618
:1003D00070475DE0CA0F00D04942031000D340428D
:1003E000534000229C4603098B422DD3030A8B42C3
:1003F00012D3FC22890112BA030A8B420CD3890161
:1004000092118B4208D3890192118B4204D3890146
:100410003AD0921100E08909C3098B4201D3CB0184
:10042000C01A524183098B4201D38B01C01A524139
:1004300043098B4201D34B01C01A524103098B423D
:1004400001D30B01C01A5241C3088B4201D3CB0028
:10045000C01A524183088B4201D38B00C01A52410B
:10046000D9D243088B4201D34B00C01A5241411AE2
:1004700000D20146634652415B10104601D3404210
:10048000002B00D54942704763465B1000D34042C1
:1004900001B50020C046C04602BD70477047704796
:1004A0000246C80FC00781434B0030B54B405B008C
:1004B0009B0D20D01923DB06C91801231B05994287
:1004C00020DB0324A40704251346AB400BD3002BE9
:1004D00004D1EB0613409B00E34204D401246407DB
:1004E000002312195941FF231B0599420BD2C90061
:1004F0000143500F09E0CB0204D501430803024336
:1005000005D0054830BDFF21C905084330BD084668
:1005100007210905884330BD0000C07FF0B50C46B7
:10052000871A9C410D46861A9D4103D2C01BA141EA
:10053000D21963410D0D1F0DC94EEC1BAE435CD0AB
:100540007F057F0D0026002F51D02D05AC46A94315
:10055000DD020123ED0A1B051D4320231B1B24D4B0
:100560001746E740381871412F46E740CC199D40A7
:100570002818314661410C0D27D161449A4013D5AA
:100580000023401C594152000ED140084000012276
:100590004B005205D34207D305204007C14201D585
:1005A000B04900E0B0493046F0BD6B00002A00D0F1
:1005B00001229A181F23203C1B1B01D5002302E0B7
:1005C000E540281871410C0DD7D0012424050919E4
:1005D000C407CD0740084908E40F28436144002CB4
:1005E000D5D00024401C61419A40D0D1CDE76A05A6
:1005F000520DD9D1C90FC907D5E79C4D4E0000282F
:1006000001D0012400E0002434195F00002A01D049
:10061000012600E00026BE19954FAC420CD8AE4230
:100620000AD8B44206D001256D05EC42BCD0104674
:100630001946F0BD9942FCD000203946F0BDF0B516
:100640001FB40C460F46811A9F412546861A9D41CC
:1006500006D20125ED076F40401ABC4152187B417C
:10066000210D1E0D8D1BAC467D4D8D437ED0750535
:100670006D0D7CD00D05AE46AC431B031B0B794DB5
:1006800052429D41202366469B1B14D31746F740D8
:10069000381800260090744160462F460741E4193F
:1006A00000989D402818664116D4714671189A40EA
:1006B00025D5012320E093182A466A415200002BD9
:1006C00000D0521C1E23203E9B1B002B61DD3541B8
:1006D000EE1728186641E8D5001876415B1C9A4051
:1006E00000D3401C4B05F3181524E34010D3002B16
:1006F00052D071467118D30FC01802D3491C05B0EF
:10070000F0BD0123DB079A42F9D140084000F6E72B
:1007100001225205B21801D1002853D00123CC0A7E
:10072000DB029943891E002A08D1020C03D0020C77
:100730000004103902E00246002020390023550B46
:1007400005D112020823550B01D152010D23550C7E
:1007500001D112011B1DD50C01D192009B1C150D5E
:1007600001D152005B1C2025EE1A01E02CE022E0B2
:100770000546F54015439840CA1AE1076918130564
:10078000C918002ABBDA032040070818C10FC9079F
:100790000FE071466118B2E7F10740080843711095
:1007A00071444A000CD001235B059A42A7D2C90FBD
:1007B000C9070020A3E74905490D26D1002001E023
:1007C0000028F4D100219AE7284D6600002801D0C6
:1007D000012100E0002171185F00002A01D00126EC
:1007E00000E00026BE19224FA94210D8AE420ED812
:1007F000B14208D001256D05E94206D01946A8028C
:10080000414010467BE79C4201D0214677E700201B
:10081000394674E710B50C465C4005D50124E40761
:100820006340FFF70CFF10BDFFF778FE10BD30B43A
:100830000C465C4004D50124E407634030BC6DE6FF
:1008400030BCFCE670B50124E40761400D465D4014
:1008500002D4FFF763FE70BD6340FFF7F0FE70BD8A
:10086000FF0700000000F0FF0000F07F0000E0FF45
:100870000000F87FF0B5F94D0C091E092C402E4000
:100880002F468BB0A7437DD0B543FCD0002E7AD045
:10089000002CFCD00D465D40ED0F2543AC1BFF2521
:1008A000AD0464190894C502440DC9022143500DDA
:1008B000DC0204430120C00701430443D20201913A
:1008C000200C110C00958C46010423468B430A91A1
:1008D00061460904E24D8A430991010A7D444919A0
:1008E0008039097805464D4301266D18F605751BBC
:1008F0006943C90C640B891C4C436418B5012C1B5B
:10090000250C2E04B4434C434D43210C691889092E
:100910000591009DE90701D00121C90704912C46EA
:1009200001996708CD072F434C08059DE10B4D4306
:100930002D0C29466646754302950D4645432E46C5
:10094000029D7D1BB44100950D465D4301942C0C26
:100950002F040D465543AE462D0C3D43029503949E
:100960007546049C2D04641B049406D2029C039DCE
:10097000641C002675410395029401AC70CC009F65
:100980007D1B01E03EE162E1B4410904009507915D
:1009900001940599A4086143090C0C464443650B76
:1009A000E7040C4666467443A646640B3C43039535
:1009B00002947446049DE4042C1B049406D2029C09
:1009C000039D641C002675410395029401AC70CC14
:1009D000009F7D1BB44101940C465C430095650F5C
:1009E000E7000C465443A646640F3C43039502942B
:1009F0007446049DE4002C1B049406D2029C039DC3
:100A0000641C002675410395029401AC70CC009FD4
:100A10007D1BB441AE09AF06049DC900AD092F434B
:100A2000049DA406AD060495079D344369180791FB
:100A3000059DE10B4D432D0C2946664675430295F5
:100A40000D4645432E46029D7D1BB44100950D4643
:100A50005D4301942C0C2F040D465543AE462D0CDE
:100A60003D43029503947546049C2D04641B049435
:100A700006D2029C039D641C0026754103950294D6
:100A800001AC70CC009F7D1BB44101948C05069491
:100A9000079C890A611800950791019C0599A40893
:100AA0006143090C0D464543680BEF040D4664464F
:100AB00065436C0B3C43049FED047D1BAC4602D2A6
:100AC0000025641C6841009E019D371B8541084636
:100AD000584301950C46460FC5005443600F284308
:100AE0006546E4002C1B02D20025401C6E41019D8E
:100AF0003F1AB5412846BD09800628438446A0090F
:100B0000BF064E020699A40676180743079D0020EB
:100B100068410A99079019430020099B009060469C
:100B2000FF1913434041E20F64003A43A4460446D0
:100B3000D71A8C41A04203D90120009020463A46A2
:100B4000C70F941840416246D20F224364466400A6
:100B50000494009CBE466400D71AA446044602973B
:100B60008C417746002F01D1A04204D96046401C39
:100B70008446029A2046C40FA64694184041049A1F
:100B80000546D20F224364466400D31A8D41714654
:100B9000002901D1A84202D928461A46641C1043F4
:100BA0000122002800D0164361020020079B89190A
:100BB00004465C410223002C02DB491813466441C1
:100BC000089DCE0A2D145D194B056705E10A2C0519
:100BD0000D1908993E43C9076940002B08D093407E
:100BE00006D30022761C5141002B01D176087600F5
:100BF0001C4A002D43DB154241D0AA433FD030466A
:100C00000BB0F0BD06180D464D41174C7642AC4175
:100C10001AD395181C465C41134A6D42A24113D366
:100C2000012252054C00D4420AD15C00D4420BD0C0
:100C30004B4002D592021143E2E749004908DFE741
:100C40005940C90FC90718E000200849D8E70548EE
:100C500001420DD10342F7D0F2E700000000FF0788
:100C6000F44200000000F07F0000E0FF0000F87F89
:100C7000114859400143C01241400020C0E7012300
:100C8000089A9B069A4205DC032252078918C90F6D
:100C9000C907B5E7052252078918074A1143D2123E
:100CA0005140ADE770B515461C4602460B46284636
:100CB0002146FFF7DFFD70BDFFFFFF7F30B5034624
:100CC000CA02400D1043164D164C0A1502D020439F
:100CD000002A06DBAA1A002A12DDD040FF2A0BDC0C
:100CE00030BD5205520D01D140004008AA1A07D468
:100CF000D0404042FF2A01DD002030BD0028FCDD4D
:100D00004A00002B01D0012000E000201018012231
:100D10005205D042F0D8C817C043604030BD000033
:100D20001E040000000000800346CA02400D10B5FA
:100D300010430A1504D00124E4072043002A05DBF0
:100D40000A4CA21A04D4D040FF2A00DD002010BDB6
:100D50004A00002B01D0012000E0002010180122E1
:100D60005205D042F2D8C817C04310BD1E0400007F
:100D70001F22030C02D10F22000402D0030E03D065
:100D800004E00020014670470002083A030F01D139
:100D90000001121F830F01D18000921E002801DB89
:100DA0004000521E120551184205C012411810464B
:100DB0007047C10FC90700D040420122920711437A
:100DC000D6E701218907D3E7F0B58B4C0F092546FB
:100DD00089B0BD437BD01D092646AE43FAD00E46EE
:100DE0005E402740F60F3E43254071D0240121424A
:100DF000FBD0FF24AD19A4042D1B039501252D055F
:100E0000DB02DB0AC9022B43C90A29431E0109017F
:100E1000040F130F050121431701880B820391432F
:100E20002D098C46A90B1E438A039543B30B9A03E5
:100E300096433F09BA0B9403A74302962E467E437E
:100E40000497B6464E19D7190C4601965443059798
:100E50007E43371B7646BF1B3601B646BE0B36199E
:100E600000967646BC043719009C01D3641C00949C
:100E70006400002F01D001263443029E049F754375
:100E800066467E430496760034196E003419009449
:100E9000029C019E1C196643751BAE46069465466E
:100EA0004519059C05956C43594375460891691A87
:100EB0000191049E01465143A41B0491611A009CB8
:100EC0000791E10605D061090122114302E072E0B9
:100ED0006EE06109089D00272C0A2D066918049D03
:100EE0007C412A0A2D066918019D6241AC0DAD02B4
:100EF0006D185441079A910D920255196141029A59
:100F0000644658435443069B059A5A43121A131BCE
:100F10009A0E9B015B187A41010B0005C3185141E1
:100F2000220A200644195A419A4200D2491C012043
:100F30004002814203D315230226F64302E0142324
:100F40000326F6432020C51AA9401746AF40DA40D1
:100F50000A4320460399D8400914731819055118FB
:100F6000039A3843D2075140AC4009D00122944043
:100F700006D30022401C5141002C01D14008400002
:100F80001E4A934212D3012203989206904207DB35
:100F90000520400709181A480143C012414004E0E7
:100FA000032040070818C10FC907002009B0F0BD91
:100FB0000020F107FAE705180C464C4111486D4234
:100FC000A04115D394181A465A410E4864429041E4
:100FD0000ED301204A004005824209D35A008242C2
:100FE00006D35940C90F084AC90700201143DDE75D
:100FF00000200649DAE700000000FF07FE070000B6
:10100000FFFFFF7F0000E0FF0000F07F0000F87F9F
:101010000121C9050123411842001B06D3185B0EAC
:101020000AD0C1100722D206891840075242D14285
:1010300001D5520089187047090208D50146002AD7
:1010400003D0C10FC9070020704710467047420205
:1010500002D0002002497047072109050143F4E747
:101060000000F87F10B501469E240002CA15A307B0
:10107000002A02D01843002A04DBA21A002A0CDD41
:10108000D04010BD1206120E01D140004008A21A35
:1010900003D4D04040420028F3DDFF22480012066E
:1010A000904201D9002010BDC817C043584010BD60
:1010B0001F22030C02D10F2200041CD0030E01D109
:1010C0000002083A030F01D10001121F830F01D162
:1010D0008000921E002801DB4000521ED2055118EC
:1010E000021251181922904004D3491C002801D142
:1010F0004908490008467047C10FC90700D040425F
:10110000012292071143D3E701218907D0E710B5E7
:1011100000F016FB006810BD10B5044600F010FB8F
:10112000046010BD7047FFB50C461E468FB003CA61
:10113000089009914F007D0D00D16D1E00210846D9
:101140000020C0460321099A89050840002A03DAD5
:101150008200801840080840800D01280A9002DDB6
:101160000020C0430A90089807430DD0EF48F0498B
:10117000281848430714189800281DD07542291EC6
:101180001DDD0A9842421BE01898012802D0002079
:10119000302104E00020F24305E02154401CB0421D
:1011A000FBDB30460022189B002121540F998B60F5
:1011B0000A60486013B0F0BDBD1B6D1CDFE70A9AE2
:1011C000002900DA69420BA800F040FB0BAB07CB0B
:1011D00003AB07C30899099800F09CFB6B4607C353
:1011E0000146D4480918002D00910ADDD149039821
:1011F0000A9A4942401803A90390684600F0AFFDDF
:1012000007E003990A9A081803A90390684600F0BA
:101210007CFD6B4607C30004000C03D00020C043D4
:10122000410800E01046189A002A03D000220092DC
:1012300015461EE0751E05D400F086FA3032625560
:101240006D1EF9D501220843079602D000227F1CAB
:1012500004E02078302801D100227F1E002A069762
:1012600089D01EE0112D07DA00F06EFA3032625597
:101270006D1C02460A43F5D1084303D000980028AC
:1012800019D00EE00021681E05E0235C625C635407
:101290002254401E491C8142F7DBA81B401E0795C3
:1012A0000690079A18990020A0540F98079B069A59
:1012B00081600CC07EE71126002018905BE7D21DEC
:1012C000F0B50D460446D10893B0C90003C90C908F
:1012D0000D9102F005FF02460D98C00F01D02D20A0
:1012E00007E02068810701D52B2002E04007C00FEE
:1012F0004001032A0F9001D0072A05DB0346294647
:10130000204600F05FFA0EE12078800601D5E769FB
:1013100000E006272846652D04D0662814D0672DE6
:1013200069D12DE00020112F009001DB112300E096
:101330007B1C0CAA03A910A8FFF7F5FE1199002643
:1013400010987D1C0E9142E001203B460CAAC0077C
:101350000B900120009003A910A8FFF7E4FE119D57
:1013600012981099002600280E9501D1781C0D18AE
:10137000781B02D446427D1C761EE81B00903AE0A2
:10138000012F00DA01270020112F009001DD112329
:1013900000E03B460CAA03A910A8FFF7C4FE119970
:1013A0003D46109800260E91217809070BD40E991E
:1013B000A94200DA0D4603A9012D04DD4A19203A9D
:1013C000D27F302A06D0B84201DA011D04DA0121A9
:1013D00000910FE06D1EEFE7002802DC86192D1A40
:1013E00003E0411CA94200DD0D46801B401C00901B
:1013F0000120C0070B902078000705D40098A84270
:1014000002DB0020C043009069460020C8720B98A0
:10141000012102AF0337C907884225D0022010906E
:101420002B2011900B9800280BDA40420B902D20B6
:10143000119006E00B9800F0C1FC30317F1E0B903C
:1014400039701099481E00291090F3DC0B98002881
:10145000F0D111987F1E38702088000501D54520F5
:1014600000E065207F1E387001A8C01BC01D0B90D6
:101470000F98002800D0012041190098C0170918C2
:101480000B980818A169081A401EA0612078C006B0
:1014900002D42046FEF7A6FE0F98002805D0626809
:1014A000A1689047206A401C20622078C00625D59C
:1014B0002046FEF797FE21E0002E07DB0E98B04293
:1014C00004DD03A86268805DA16802E06268A1682B
:1014D00030209047206A761C401C20620098401EF5
:1014E000002800900AD100F027F9C06862680168FE
:1014F000405CA1689047206A401C206228466D1E0F
:101500000028D9DC07E062683878A1687F1C904722
:10151000206A401C20620B99481E00290B90F2DCC7
:101520002046FEF775FE032044E6000001FCFFFFA5
:10153000104D0000E1DFFFFF01694A1C02610878DD
:10154000704700B58FB002910021059105490193C4
:1015500079440391114604906846FEF76AFE0FB085
:1015600000BD0000E5FFFFFF0A681070521C0A6012
:101570007047000070B505464800440D124B00202E
:10158000002C0AD0634008D09A4206DA6642B24282
:1015900003DD12054019514170BD002C08D0002B0D
:1015A00009D0C90FC907002AF6DB084A114370BDEC
:1015B000C90FC90770BD28460A03104302D0002096
:1015C000034970BD284670BDFF0700000000F07F92
:1015D0000000F87FF0B53D4B02460C461C40002051
:1015E000002C63D03A4D8B4366D000296BDB0B0D8A
:1015F0001D05A94301252D0529430124FD33E340A1
:1016000001D392184941FF3381339C468B02940DDC
:101610000121234389074C42920200271B198C1099
:101620005D1A04D42D1B02D42B466500491992186B
:101630005B416408F4D15C1A08D40125ED07EE176C
:101640005519744102D42A462346491C94185B411B
:10165000012292071D46E61B8D4106D4B61A85412C
:1016600003D42B46550034467F1924195B41520898
:10167000802AEFD1234300D0022338460A22D040EB
:1016800001D3012213438A0510436246890A1205D9
:101690008918002B09D00122D34002D30022401C1C
:1016A0005141002B01D140084000F0BD0B03134312
:1016B00007D0C90FC907F0BD0803104303D10029A3
:1016C00001DB1046F0BD00202946F0BD0000F07F90
:1016D0000000F87F10B5FF231B0644009C421DD874
:1016E0004C009C421AD80346124A0B4307D4401AB6
:1016F00002D3EFF3008010BDEFF3008010BD081A95
:1017000006D2EFF3008001219043C907084302E0AD
:10171000EFF30080904380F3008810BD0D231B047D
:101720001A4204D01146002000F05CFB10BD00F00E
:1017300071FB10BD000000900048704714020020AB
:1017400000487047F40100200B4670B50246890737
:101750008008084319469D08141AA941250908075D
:10176000054308092C194841250A01060D43010AC1
:101770002C194141200C0D0428430D0C00194D413A
:10178000002140194D41C00869070843E908840F4A
:101790008D002543840024184D4124196D41121BEE
:1017A000AB4107E00925ED432C1152196341002498
:1017B000401C61411C460A250026551BB441F1D24C
:1017C00070BD0000F8B51F46044601230068DB0227
:1017D000032601461840072A05DB002801D017A57B
:1017E00006E017A504E0002801D016A500E016A524
:1017F000102081432160A069C01E002FA06101D08C
:10180000401EA0612046FEF7EDFC002F09D03846AF
:101810006268A1689047206A401C2062C01C206258
:1018200006E0206AFAE762682878A1686D1C904794
:10183000761EF8D22046FEF7EBFCF8BD4E414E0076
:101840006E616E00494E4600696E6600F7B5164639
:101850008AB02F4878446C4603467C33C06F5A6880
:101860009B680DC42A487844763003AC0DC80DC47B
:101870003720C001081837211B30FEF76BFD0546E5
:101880000C46803D1B3C02D56442012000E0002054
:10189000002709900FE0E0070BD00C201C4978438B
:1018A000794432464C394118684600F02EFA6B46AE
:1018B00007C364107F1C002CEDD1154F7F442C3FD3
:1018C00015E0E80711D02001C0190EC80691089351
:1018D00007920068F04201D198190890324606A993
:1018E00003A800F012FA03AB07C36D10641C002DAF
:1018F000E7D1324669460998002803A802D000F0D3
:101900002EFA01E000F001FA0A9B07C30DB0F0BD0A
:10191000F0340000034640000A4610B5400D0BD0DD
:101920000121C9070F24A40200191C0364082143E4
:10193000540D2143D20207E000210120F2E7D40F29
:10194000490021435200401E0029F8DADB0FDB0773
:10195000184310BDFFB50D46144685B04868516860
:1019600002F0A6FB00910190A868A16802F0A0FB1C
:1019700002910390A868616802F09AFB029A12181B
:101980008242029201D2012000E00020019A0B184D
:10199000D2180028019202D08A4202D903E08A427A
:1019A00001D2012000E0002000990818009068682A
:1019B000A16802F07DFB029A12188242029201D2C3
:1019C000012000E00020019A0B18D2180028019293
:1019D00002D08A4202D903E08A4201D2012000E00B
:1019E00000200099081800902868216840004900EC
:1019F000400849084018EE49471814E00199400092
:101A0000C90F08430090019802994000C90F08438C
:101A10000190029803994000C90F0843029003986F
:101A200040007F1E039000980028E7DA08980028FD
:101A300001D0E04E00E00026B74228DAF71BF80696
:101A4000C00E15D0029B2021091A039A8B401A431D
:101A50000392029A019BC2408B401A430292019A60
:101A6000009BC2408B4000991A430192C1400091F3
:101A70007A110BD06B460320811A01D5002101E0B9
:101A8000890059588700401ED951F5D5374603982B
:101A90000299002800D001200143089802910028F3
:101AA00008460CD0002800D001200199019A490570
:101AB00008430121D20AC902D202019200E00121A9
:101AC0000E9B0122D207012B02D0002B03D013E082
:101AD000002807D116E0904204D890420CD1019B17
:101AE0000B4209D0019B5918019105D10099491C5D
:101AF000009101D17F1C0092002803D010210846DC
:101B00000020C04628682168019B009A4840C10F08
:101B10000598C90739430EC009B0F0BDFFB587B0BD
:101B2000099A0898089953689268406889689646A7
:101B30000022039317469446089A12685300099AA4
:101B40005B081268520052089A1A9B4BD4180A9AE2
:101B5000002A01D0352200E0402206920022012313
:101B600015460492DB07059324E0002D05D1754648
:101B70000346039E4D1BB34109D375466646039B3E
:101B8000491B049D9841059B7519AC465F4163460E
:101B90003B4308D0059B049EDD0776082E435B0877
:101BA0000496059301E0521E641EC50FED07491807
:101BB0004041521C069B9A42D7DB002D04D175464A
:101BC000039A6B1A824101D203200CE0039A0B4660
:101BD0006B404240134303D0014303D0012002E095
:101BE000022000E00020614601910021009702914F
:101BF0000A99002905D06146400201436D4B0191CD
:101C000002E08007002302909C423ADA1A1BD006B9
:101C1000C00E15D0029D2021019C091AC5408C40A0
:101C20002543029C8C4000D001242543019C029551
:101C30003D46C4408D4039462C43C140019400913B
:101C400054111DD06D460221002202290CD103201F
:101C5000001B07E0002804DB8600AE59002E00D0F0
:101C60000122401C0328F5DB081B02D588002A50FE
:101C700004E08000285810438A00A850491EE3D58C
:101C80001C460A98002802980CD0002800D0012099
:101C90000199019A490508430121D20AC902D202D9
:101CA000019200E00121109B0122D207012B02D0FA
:101CB000002B03D013E0002807D116E0904204D88F
:101CC00090420CD1019B0B4209D0019B5918019104
:101CD00005D10099491C009101D1641C0092002893
:101CE00003D0102108460020C04608980999019A9F
:101CF0000068096848400099C30F0798DB07234331
:101D00000360826041600BB0F0BD1FB500230092FC
:101D10000A46014601A8FFF71DFE01AB07CB04B040
:101D200010BD1FB5012300920A46014601A8FFF726
:101D300011FE01AB0F2407CBA402C30F4000DB0749
:101D40004008001B002900DB00204900000549086D
:101D5000CC0A204349051843D20A1143DFE71FB5D7
:101D6000002300920A46014601A8FFF7D7FE01AB07
:101D700007CBD4E71FB5012300920A46014601A80C
:101D8000FFF7CCFE01AB0F2407CBA402C30F40002A
:101D9000DB074008001B002900DB0020490000058C
:101DA0004908CC0A204349051843D20A1143B6E733
:101DB00002C0FFFF013C0000FF3F00000146800819
:101DC000081A02091018020A1018020C1018C0088C
:101DD000820012185200891A01E0401C0A390A29AF
:101DE000FBD27047CA0211D54A03520F002A04D011
:101DF000C803C043012188407047054AEFF30081C2
:101E000008010009104380F30088704700207047E4
:101E10000000003010B5024800F072F810BD00005C
:101E20000000C07F00487047F40100207546FFF7AE
:101E3000F9FFAE46050069465346C008C000854616
:101E400018B020B5FEF7A8F960BC00274908B646CF
:101E50000026C0C5C0C5C0C5C0C5C0C5C0C5C0C5B9
:101E6000C0C5403D49008D4670470446C046C04647
:101E70002046FEF780F90000024670B50A4392073B
:101E80002AD11E4DEE0104C808C9541B94433440A6
:101E900017D0D0B2D9B2401A2106014310D190B266
:101EA00099B2401A210401430AD110021902000A12
:101EB000090A401A2102014302D1100E190E401ADC
:101EC00070BD9A42DFD010BA19BA884201D90120F8
:101ED00070BD0020C04370BD02780B78401C491CC7
:101EE000002A09D09A4207D102780B78401C491C7D
:101EF000002A01D09A42EFD0D01A70BD0101010131
:101F000010B50C461107090F092904D00A290AD077
:101F100008290CD104E011460820FFF763FF06E012
:101F2000510606D501E0510601D50120C007214622
:101F300010BDD10607D501010909CC084907000EDB
:101F40000006044309E0410F20024907000A01434B
:101F5000200E00061D22D14101430846E7E700009C
:101F600001491820ABBEFEE7260002007047F0B51D
:101F70000A4600210023002400BF3DE001258D40DA
:101F80002B4615681D402C469C4234D11579012DF5
:101F900002D01579022D16D185684F000326BE4068
:101FA000B543856055794E00B540866835438560F8
:101FB000858801268E40B5438580858896798E4038
:101FC000B6B23543858005684F000326BE40B54351
:101FD000056015794E00B540066835430560C56853
:101FE0004F000326BE40B543C560D5794E00B540CD
:101FF000C6683543C560491C1029BFD3F0BDF0B594
:10200000002300244D07EE0E1546B5402B46CD109B
:10201000AE0005462035AD594E07F70E0F26BE40DF
:10202000B543CE10B60007462037BD51CD10AE00E7
:102030003D46AD591D432C46CD10AD003E46745172
:10204000F0BD0000F0B58BB001F066FB2249042022
:10205000085EFFF751F804461F490220085EFFF7AB
:102060004BF805461C490020085EFFF745F8064678
:102070001A490A20085EFFF73FF80746174908206B
:10208000085EFFF739F815490A900620085EFFF749
:1020900033F812494C3109900A20085EFFF72CF8FA
:1020A0000E494C3108900820085EFFF725F80B49CF
:1020B0004C3107900620085EFFF71EF80197029644
:1020C0000395049406900A98009006A80FC800F0A3
:1020D0008FF90BB0F0BD00004C010020A8000020DB
:1020E0002C482D49C8600861486140428861C86138
:1020F000086200208884C88408857F20C005C862E3
:10210000086348630020088700BF02F0ADFB224847
:102110008069214906228A5E904202DD0620085E1F
:1021200088611D48C0691C4908228A5E904202DD10
:102130000820085EC8611848006A17490A228A5EAA
:10214000904202DD0A20085E08621348C068124906
:1021500006228A5E904202DA0620085EC8600E48B7
:1021600000690D4908228A5E904202DA0820085E62
:1021700008610948406908490A228A5E904202DAE9
:102180000A20085E48610448008F401C00B20249E2
:102190000887BAE700F0FFFF4C01002000BFFEE710
:1021A0001CB50121880401F061FB1020009003217F
:1021B0006846417101210171817169460A48FFF742
:1021C000D6FE202000900321684641710121017153
:1021D000817169460448FFF7CAFE202002498861E0
:1021E000102088611CBD00000004004870B508255F
:1021F000002420201149886114E06006040E10209C
:102200000E492031088100F0B3F810200B49886195
:1022100000F0AEF80948008A20210840002801D0CB
:10222000012004432846691ECDB20028E5D11020C4
:10223000024920310881204670BD0000000400489A
:1022400070B5044608251AE010201149088100F0F5
:102250008FF880202040002804D020200C4920390D
:10226000886102E020200A4908816006040E00F01F
:102270007FF8102006492039886100F079F8284657
:10228000691ECDB20028DFD110200149088170BD40
:102290002004004810B5202014498861102088616E
:1022A00000F066F81148008A002801D1012000E002
:1022B000002020210840002801D0002010BD20204F
:1022C0000A492031088100F053F80848008A20218B
:1022D0000840002801D00020F0E7202003492031E9
:1022E000088100F045F80120E8E7000000040048FC
:1022F00010B510200A49088100F03AF8202008495A
:10230000088100F035F8102005492039886100F077
:102310002FF8202002492039886100F029F810BDEB
:102320002004004810B510201049088100F020F862
:1023300020200E492039886100F01AF810200B493E
:102340002039886100F014F808482038008A2021DC
:102350000840002804D0102004490881002010BD46
:102360001020024908810120F9E7000020040048FC
:10237000322001E0411EC8B20028FBD1704770B581
:1023800004460D46FFF786FF2046FFF759FFFFF78B
:10239000C9FF2846FFF754FFFFF7C4FFFFF77AFF96
:1023A000611CC8B2FFF74CFFFFF7BCFFFFF71EFF31
:1023B0000646FFF79DFF304670BD70B506460C46D9
:1023C0001546FFF767FF3046FFF73AFFFFF7AAFF12
:1023D0002046FFF735FFFFF7A5FF2846FFF730FF40
:1023E000FFF7A0FFFFF784FFFFF7C2FF70BD0000FB
:1023F0000FB5A9B0FE480168006802F023FB1590F4
:10240000FC480168FA48006802F01CFB1490FA4886
:102410000168F748006802F015FB1390F74801685F
:10242000F348006802F00EFB1290F2480168006861
:1024300002F008FB1190F0480168EE48006802F0D5
:1024400001FB1090ED480168EA48006802F0FAFAD2
:102450000F90E9480168006802F0F4FA0E90E7482E
:102460000168E548006802F0EDFA0D90E348016864
:10247000006802F0E7FA0C902F99084602F0E2FAA1
:1024800006902E99084602F0DDFA04902C99084631
:1024900002F0D8FA0390049902F064FA05900699C4
:1024A00002F060FA0790FEF7B3FD0991089002F080
:1024B0001FFA0B910A90FDF7F3FF289028992C98AA
:1024C00002F0C0FA2C9028992E9802F0BBFA2E90B8
:1024D00028992F9802F0B6FA2F903299084602F008
:1024E000B1FA06903199084602F0ACFA049030999E
:1024F000084602F0A7FA0390049902F033FA059017
:10250000069902F02FFA0790FEF782FD09910890D4
:1025100002F0EEF90B910A90FDF7C2FF289028997E
:10252000309802F08FFA30902899319802F08AFAA8
:1025300031902899329802F085FA329013990F98C9
:1025400002F010FA099001208007329902F07AFA1D
:102550000890099902F076FA0B901299109802F0FF
:10256000C9FA079001208007319902F06BFA0690B2
:10257000079902F067FA09903F2000060E9902F0D1
:10258000B9FA05900C9902F0B5FA0790012080077E
:10259000309902F057FA0690079902F053FA089022
:1025A000099902F0DFF90A900B9902F0DBF9279004
:1025B00014990D9802F09EFA099001208007329933
:1025C00002F040FA0890099902F03CFA0B903F2083
:1025D0000006119902F08EFA05900C9902F08AFA21
:1025E000079001208007319902F02CFA0690079994
:1025F00002F028FA09901299109802F0B3F90790A6
:1026000001208007309902F01DFA0690079902F028
:1026100019FA0890099902F0A5F90A900B9902F0AD
:10262000A1F926903F200006119902F063FA079065
:102630000E9902F05FFA099001208007329902F0AA
:1026400001FA0890099902F0FDF90B9014990D9880
:1026500002F088F9079001208007319902F0F2F921
:102660000690079902F0EEF9099013990F9802F07D
:1026700041FA079001208007309902F0E3F90690B3
:10268000079902F0DFF90890099902F06BF90A90B6
:102690000B9902F067F925902699084602F0D2F9C5
:1026A00006902799084602F0CDF90590069902F0A8
:1026B00059F90790FEF7ACFC0991089002F018F95F
:1026C0000B910A90FDF7ECFE249025982390139926
:1026D0000F9802F00FFA012189070B9002F0B2F96E
:1026E00022900D99149802F03DF9012189070B9071
:1026F00002F0A8F921901199159802F0FBF90A90BF
:102700000E9902F0F7F90B900C9902F02BF920903A
:1027100013990F9802F0EEF9099001208007239990
:1027200002F090F90890099902F08CF90B903F2083
:1027300000060E9902F0DEF907900C9902F0DAF922
:10274000099001208007249902F07CF908900999EA
:1027500002F078F90A900B9902F004F91F900D9994
:10276000149802F0FFF8099001208007239902F0E5
:1027700069F90890099902F065F90B90129910987F
:1027800002F0B8F9099001208007249902F05AF963
:102790000890099902F056F90A900B9902F0E2F8B4
:1027A0001E903F200006119902F0A4F907900E999F
:1027B00002F0A0F9099001208007239902F042F964
:1027C0000890099902F03EF90B900F99139802F0C6
:1027D000C9F8099001208007249902F033F9089084
:1027E000099902F02FF90A900B9902F0BBF807E063
:1027F00064000020680000206C00002070000020B1
:102800001D901E99329802F01DF909901D9931987A
:1028100002F018F90890099902F06CF90B902199CF
:102820002F9802F00FF9099020992E9802F00AF9DA
:102830000890099902F05EF90A900B9902F092F85B
:102840001C901D99309802F0FDF809901F9932985C
:1028500002F0F8F80890099902F04CF90B902099D1
:102860002C9802F0EFF8099022992F9802F0EAF8DC
:102870000890099902F03EF90A900B9902F072F85B
:102880001B901F99319802F0DDF809901E9930983D
:1028900002F0D8F80890099902F02CF90B902299CF
:1028A0002E9802F0CFF8099021992C9802F0CAF8DE
:1028B0000890099902F01EF90A900B9902F052F85B
:1028C0001A9000211C9802F093F866D000211B9802
:1028D00002F08EF861D000211A9802F089F85CD0DD
:1028E000FE491C9802F0AEF8FD490A9002F0AAF8E1
:1028F0000B90FC4801680B9802F034F8F949086025
:10290000F6491B9802F09EF8F5490A9002F09AF8F1
:102910000B90F54801680B9802F024F8F249086022
:10292000EE491A9802F08EF8ED490A9002F08AF802
:102930000B90EE4801680B9802F014F8EB49086020
:10294000EB481C9902F07EF80A90E64801680A9864
:1029500002F008F80B90299902F004F82990E44855
:102960001B9902F06FF80A90DF4801680A9801F09D
:10297000F9FF0B902A9901F0F5FF2A90DC481A998B
:1029800002F060F80A90D94801680A9801F0EAFF5D
:102990000B902B9901F0E6FF2B90D6482B990068FD
:1029A00002F050F80990D4482A99006802F04AF8D9
:1029B0000790D24800680121C9074840059029992D
:1029C00002F040F80690079902F094F808900999EF
:1029D00002F090F8C2490A9002F034F80B90C8480F
:1029E00001680B9801F0BEFF1990C2482A9900684F
:1029F00002F028F80990C0482B99006802F022F8EC
:102A00000790BF480168299802F01CF806900799C2
:102A100001F0A8FF0890099902F06CF8B0490A90FB
:102A200002F010F80B90B54801680B9801F09AFF7E
:102A30001890B0480168299802F004F80990AF484E
:102A40002B99006801F0FEFF0790AD482A990068B5
:102A500001F0F8FF0690079902F04CF808900999E8
:102A600001F080FF9E490A9001F0ECFF0B90A24814
:102A700001680B9801F076FF17909F48016829982C
:102A800001F0E0FF09909D482A99006801F0DAFF03
:102A900007909B482B99006801F0D4FF0690079996
:102AA00001F060FF0890099902F024F88C490A901F
:102AB00001F0C8FF0B908F4801680B9801F052FF9E
:102AC00016901699084601F0BDFF06901799084622
:102AD00001F0B8FF04901899084601F0B3FF029086
:102AE0001999084601F0AEFF0190029901F03AFFF2
:102AF0000390049901F036FF0590069901F032FF2A
:102B00000790FEF785FA0991089001F0F1FE0B910C
:102B10000A90FDF7C5FC28902899199801F092FFBA
:102B2000774908602899189801F08CFF734908606C
:102B30002899179801F086FF6F4908602899169820
:102B400001F080FF6B4908606B4801680120800735
:102B500001F078FF019068480168019801F072FF68
:102B60000390664801680320800701F06BFF019025
:102B700062480168019801F065FF0290039901F035
:102B8000B9FF7F21C905049001F0ECFE0590FEF726
:102B90003FFA099108905A4801680120800701F026
:102BA00051FF029055480168029801F04BFF0490D4
:102BB000514801680120800701F044FF02904D4810
:102BC0000168029801F03EFF0390049901F0CAFEEB
:102BD0000590FEF71DFA07910690099B089A01F0EF
:102BE00057FD0B910A90FDF75BFC4649486044484D
:102BF00001680120800701F025FF04903E4801682C
:102C0000049801F01FFF06903C48016803208007EC
:102C100001F018FF049037480168049801F012FF92
:102C20000590069901F09EFE0790FEF7F1F90991D3
:102C3000089001F0E5FA0B910A90FDF731FC31495B
:102C400008602C4801680120800701F0FBFE01901C
:102C500028480168019801F0F5FE039026480168B4
:102C60000320800701F0EEFE0190234801680198DF
:102C700001F0E8FE0290039901F03CFF7F21C905B5
:102C8000049001F06FFE0590FEF7C2F909910890DB
:102C90001B4801680120800701F0D4FE029015480E
:102CA0000168029801F0CEFE0490144801680120EA
:102CB000800701F0C7FE02900F480168029801F0FA
:102CC000C1FE0390049901F04DFE0590FEF7A0F9B6
:102CD00007910690099B089A16E00000A69B443BCA
:102CE000A69BC43A74000020780000207C000020DD
:102CF0000000C842700000206C0000206800002026
:102D0000640000204001002001F0C2FC0B910A90F9
:102D1000FDF7C6FB0F498860084640680E490B90D6
:102D200001F090FE0B494860084600680A490B9084
:102D300001F088FE074908600846806806490B9044
:102D400001F080FE03498860012000F073F92DB086
:102D500000BD000040010020A34C654210B5702268
:102D600000213C20FFF729FB202201213C20FFF716
:102D700024FB002202213C20FFF71FFB0A213C20FC
:102D8000FFF7FDFA04460B213C20FFF7F8FA044652
:102D90000C213C20FFF7F3FA0446FF20C7301C4902
:102DA000C8605D20C0000861FF20C5304861194837
:102DB00088611848D730C86116480E300862C96863
:102DC000134A92698818C10F0918491009B2104AAC
:102DD000918411460969D2698818C10F09184910F0
:102DE00009B20B4AD18411464969126A8818C10F89
:102DF0000918491009B2064A11857F20C0051146FD
:102E0000C8620863486360198019C0B210BD000031
:102E10004C01002032FDFFFFF0B51FB490B0144606
:102E20001D461B991A980F910E900D950C9400BF9A
:102E3000234803C80B910A9022490D9B0C9A03C9A1
:102E4000FDF7E8FC099108900F9B0E9A09990898E4
:102E5000FDF7E0FC02460B460391029009990898A1
:102E6000FDF708FD059104900B9B0A9A11991098A3
:102E7000FDF7DDFC01910090059B049AFDF7A4FF8E
:102E8000039102900B9B0A9AFDF7C4FC06460F467D
:102E900000200D49059B049AFDF7C9FC039102909F
:102EA000099B089AFDF790FF07910690054A07993C
:102EB000069803C20248C0C03046394615B0F0BD7E
:102EC00028000020300000200000F03FF0B51FB4C3
:102ED00090B014461D461B991A980F910E900D95AF
:102EE0000C9400BF234803C80B910A9022490D9B04
:102EF0000C9A03C9FDF78EFC099108900F9B0E9A5E
:102F000009990898FDF786FC02460B46039102904A
:102F100009990898FDF7AEFC059104900B9B0A9A5D
:102F200011991098FDF783FC01910090059B049A7C
:102F3000FDF74AFF039102900B9B0A9AFDF76AFC8A
:102F400006460F4600200D49059B049AFDF76FFCCD
:102F500003910290099B089AFDF736FF07910690AE
:102F6000054A0799069803C20248C0C03046394650
:102F700015B0F0BD38000020400000200000F03FF8
:102F8000F0B51FB490B014461D461B991A980F91C6
:102F90000E900D950C9400BF234803C80B910A9026
:102FA00022490D9B0C9A03C9FDF734FC0991089046
:102FB0000F9B0E9A09990898FDF72CFC02460B46C8
:102FC0000391029009990898FDF754FC059104902B
:102FD0000B9B0A9A11991098FDF729FC019100901A
:102FE000059B049AFDF7F0FE039102900B9B0A9A51
:102FF000FDF710FC06460F4600200D49059B049A7C
:10300000FDF715FC03910290099B089AFDF7DCFE81
:1030100007910690054A0799069803C20248C0C066
:103020003046394615B0F0BD480000205000002061
:103030000000F03F012808D10921C906898A202211
:1030400051400922D20691820EE0022806D107499A
:10305000898A01225140054A918205E00349898A03
:1030600002225140014A918270470000000400484A
:103070001CB501210320400400F0F8FB2020009043
:10308000012168460171002181710121C171032173
:10309000417169460920C006FEF769FF01200090D2
:1030A000012168460171002181710121C171032153
:1030B000417169460948FEF75AFF0220009001213C
:1030C00068460171002181710121C17103214171A3
:1030D00069460248FEF74BFF1CBD00000004004893
:1030E000FEB504460D4616463146284601F0AAFCB8
:1030F000314601907F20C00501F0FCFC2146009084
:1031000001F0A0FC0746019901F02CFCFEBD000077
:1031100010B5C82400202D49486200212B48816247
:10312000C1624C30C1800181418130E000F0EEF895
:1031300027480078000226494978084300B223490D
:1031400008802348807800022149C978084300B2EA
:103150001E4948801E48007900021D4949790843EC
:1031600000B21A4988800846406A00228A5E8018A8
:1031700048620846806A02228A5E8118134881628A
:10318000C06A124904228A5E81181048C162204632
:10319000611E8CB20028C9D1C8240C49486A214656
:1031A000FDF7D8F800B209494882886A2146FDF740
:1031B000D1F801B2054881820146C86A2146FDF76F
:1031C000C9F801B20148C18210BD0000A80000206A
:1031D0009800002010B5C8240021324801674167DB
:1031E000816700202F49C88000212E48018141813C
:1031F00035E000F08BF82C48007A00022A49497A21
:10320000084301B22748403081812748807A000274
:103210002549C97A084301B222484C3041802248EE
:10322000007B00022049497B084301B21D484C3015
:1032300081804C38016F40300C22825E8918403802
:103240000167416F4C300222825E89184C38416719
:10325000816F4C300422825E89184C388167204689
:10326000611E8CB20028C4D1C8240E49086F2146C3
:10327000FDF770F801B20B484C3041820949486FA4
:103280002146FDF767F801B206484C3081820549B6
:10329000886F2146FDF75EF801B202484C30C182CA
:1032A00010BD0000A80000209800002010B50022EA
:1032B0006B21D020FFF781F807221921D020FFF7DA
:1032C0007CF842223721D020FFF777F840226A218C
:1032D000D020FFF772F802221A21D020FFF76DF8F4
:1032E00010221B21D020FFF768F809221C21D020D2
:1032F000FFF763F87521D020FFF741F80446682CEA
:1033000001D1002010BD0120FCE7000010B53B21D9
:10331000D020FFF734F8284908703C21D020FFF76F
:103320002EF8254948703D21D020FFF728F8224982
:1033300088703E21D020FFF722F81F49C8703F2136
:10334000D020FFF71CF81C4908714021D020FFF75E
:1033500016F8194948714121D020FFF710F8164995
:1033600088714221D020FFF70AF81349C871432120
:10337000D020FFF704F8104908724421D020FEF74E
:10338000FEFF0D4948724521D020FEF7F8FF0A499B
:1033900088724621D020FEF7F2FF0749C872472104
:1033A000D020FEF7ECFF044908734821D020FEF737
:1033B000E6FF0149487310BD98000020F0B585B0C4
:1033C000FFF7A4FF4A4800780002494949780843BA
:1033D0004849498A401A00B24649088044488078E2
:1033E00000024349C97808434249898A401A00B219
:1033F000404948803E48007900023D4949790843E8
:1034000000B23C4988800020085EFDF775FE39490E
:1034100088610220085EFDF76FFE3649C86104200E
:10342000085EFDF769FE334908623148007A000200
:103430002F49497A084301B22E48403081812C48F7
:10344000807A00022A49C97A084301B229484C30DF
:1034500041802748007B00022549497B084301B28F
:1034600024484C3081802248807900022049C97963
:10347000084304900498FDF7A4FC044600221E4B68
:10348000FDF7F8F906461D4A1D4BFDF7C3F900226A
:103490001C4B01910090FDF797FC03910290FDF702
:1034A00043FC80B20490134940310C228A5E0C31F7
:1034B0001223CB5ED01AFDF71FFE0E4948664C3131
:1034C00002228A5E1423CB5ED01AFDF715FE014658
:1034D0000848816601464C3104228A5E1623CB5E81
:1034E000D01AFDF709FE01460248C16605B0F0BDDD
:1034F00098000020A800002000407540A4703D0AFC
:10350000D743424000002440FEB500250026002796
:1035100001F0AAF93E48C0883E49097849003E4A70
:1035200050523B4800893B49097849003B4A505278
:1035300037484089374909784900394A50520024B0
:103540000DE060003449085E451960003349085EAB
:10355000861960003249085EC719601CC4B20A2C83
:10356000EFDB0A212846FCF7F5FE294924228A5E72
:10357000801A0090FDF7C0FD01902548C16A0198AE
:1035800001F060FA0290FDF76DFD00B2204908805D
:103590000A213046FCF7DEFE1D4926228A5E801A8B
:1035A0000090FDF7A9FD01901948016B019801F009
:1035B00049FA0290FDF756FD00B2154948800A21EC
:1035C0003846FCF7C7FE124928228A5E801A00900E
:1035D000FDF792FD01900E48416B019801F032FA1F
:1035E0000290FDF73FFD00B2094988800948007844
:1035F000401C08490870084600780A2801D10020BC
:10360000087008480078002801D0FEF769FDFEBD6B
:103610004C01002089000020880100209C0100202E
:10362000B001002080000020704700000021827857
:10363000002A27D0184A03231B02D21803789B10B4
:103640009B00D15802789207D30EFF229A400B4676
:103650009343194642789207120E03789B07DB0EBC
:103660009A4011430C4A03231B02D21803789B1083
:103670009B00D1500278D306DB0E01229A40064B04
:103680001A6007E00278D306DB0E01229A40024B53
:1036900080331A607047000000E100E010B5002898
:1036A00019DA1A4A03071B0F083B9B089B00D258E4
:1036B0008307DC0EFF23A3409A438B071B0E84076E
:1036C000E40EA3401A43114B0407240F083CA4083E
:1036D000A4001A5118E00E4A03231B02D2188308D3
:1036E0009B00D2588307DC0EFF23A3409A438B072D
:1036F0001B0E8407E40EA3401A43054B0324240247
:103700001B198408A4001A5110BD00001CED00E034
:1037100000E100E070470000FEB5FFF74FFEFFF745
:10372000F3FE49490020085EFDF743FB06460F46BD
:1037300000214648464A474B0091019030463946A1
:10374000FFF76AFB0446FDF7B9FA00B23E49C880AC
:103750000220085EFDF72DFB06460F4600213B4880
:103760003B4A3C4B0091019030463946FFF7AEFB97
:103770000446FDF7A3FA01B2334801810146042053
:10378000085EFDF716FB04460D4600212F48304A1F
:10379000304B0091019020462946FFF7F1FB064689
:1037A000FDF78CFA01B2284841812B4A416E2B4823
:1037B0000068FFF795FC24494C31C8630846C06B8C
:1037C000264908602048244A816E25480068FFF792
:1037D00087FC01461C484C300164006C204908609D
:1037E00019481D4AC16E1F480068FFF779FC014661
:1037F00015484C304164406C1A49086012494C31FC
:10380000C86B194901F01EF90446FDF72BFC01B203
:103810000D484C30C1800146086C134901F012F983
:103820000446FDF71FFC01B207484C3001810146F8
:10383000486C0D4901F006F90446FDF713FC01B28E
:1038400001484C304181FEBDA8000020000014401A
:103850009A9999999999A93FCBA1C53E5800002002
:103860005C00002060000020E4A40B3A002905D091
:10387000054A52690243044B5A6104E0024A526904
:103880008243014B5A61704700100240002905D065
:10389000054AD2690243044BDA6104E0024AD26964
:1038A0008243014BDA61704700100240002905D0C5
:1038B000054A92690243044B9A6104E0024A926904
:1038C0008243014B9A61704700100240FEB50446E6
:1038D00000250026002002900190009000277048EB
:1038E00040680C2108400546002D06D0042D07D065
:1038F000082D08D00C2D2CD128E06A4820602BE040
:103900006848206028E0664840680F218904084024
:103910000646634840680321C90308400290B00C82
:10392000861C0298002803D15F48374647430BE0C6
:103930005B48C06A0007000F401C0190594801997C
:10394000FCF7FEFC70430746276005E057482060FF
:1039500002E05448206000BF00BF51484068F02199
:10396000084005462D095248405D009021680098A6
:10397000C14061604A484068072109020840054685
:103980002D0A4B48405D009061680098C140A160DD
:103990004348006BFF2101310840884202D045486E
:1039A000E0600DE03E4840680121890308408842FC
:1039B00003D0A0684008E06002E0A0688008E060F2
:1039C0003748006B40210840402802D03A48206127
:1039D00002E00120C00320613148006B1021084043
:1039E000102802D02F48606101E0206860612C48F7
:1039F000006B8007800F002802D1A068A06119E049
:103A00002748006B8007800F012802D12068A06141
:103A100010E02348006B8007800F022802D180034A
:103A2000A06107E01E48006B8007800F032801D1CA
:103A30001C48A0611A48006B0321090408400028B3
:103A400002D1A068E06120E01548006B0321090461
:103A5000084001210904884202D12068E06114E095
:103A60000F48006B032109040840012149048842E2
:103A700002D18010E06108E00948006B03210904CD
:103A80000840884201D10748E0610548006B802169
:103A90000840802802D00548206200E02762FEBD71
:103AA0000010024000127A0000093D00006CDC02A8
:103AB00014000020809FD500128000007047000095
:103AC00010B500BF7D21C9000D480068FCF738FC27
:103AD0000446601E0B49884201D901200CE0601E9B
:103AE000094948610321081FFFF7D8FD0020064956
:103AF00088610720086100200028E3D110BD000084
:103B000000000020FFFFFF0000E000E00CB50020F7
:103B100001900090314800680121090408432F49B1
:103B2000086000BF2D48006801214904084000904A
:103B30000198401C01900098002804D10521090338
:103B400001988842EED125480068012149040840C7
:103B5000002802D00120009001E000200090009891
:103B6000012839D111201E4908601C4840681B49B2
:103B70004860084640684860084640687F21C9039D
:103B800088431649486008464068112109040843E3
:103B900012494860084600680121090608430F4998
:103BA000086000BF0D480068012149060840002850
:103BB000F8D00A48406880088000084948600846F4
:103BC0004068022108430549486000BF0348406837
:103BD0000C2108400828F9D10CBD0000001002405B
:103BE0000020024004480088002804D002480088D1
:103BF000401E0149088070479400002010B51B4802
:103C000000680121084319490860084640681849BE
:103C1000084016494860084600681649084013499C
:103C20000860084600680121890488430F4908603C
:103C3000084640683F21090488430C49486008460B
:103C4000C06A00090001C8620846006BFF215431B8
:103C50008843064908630846406B400840004863B3
:103C600000208860FFF752FF10BD000000100240E6
:103C70000CB8FFF8FFFFF6FE1FB501210846FFF75D
:103C800005FE0F21684601700321417001218170FA
:103C9000FFF7CCFC6846FFF7C9FC1D2002900A49DB
:103CA0006846818000218181C18001A901208007AF
:103CB00000F08CF801221146900700F07CF80121F9
:103CC000880700F057F81FBDBF120000F0B587B09D
:103CD0000121880700F05CF8002831D0FEF7B2F926
:103CE00018480068401C174908600A2115480068F8
:103CF000FCF730FB00291FD113498868FDF788F9CC
:103D000004460D4610490868FDF782F906460F463D
:103D10000D494868FDF77CF902460B46019700966D
:103D2000039502940591049008A10E48FCF746FA09
:103D30000C490D4800F09AF80121880700F016F8A8
:103D400007B0F0BD90000020400100207075743A6B
:103D500025322E32662C25322E32662C25332E3219
:103D6000660D0A00C401002000380140CA430282E7
:103D700070470000002904D0028801231A43028002
:103D800003E00288014B1A4002807047FEFF0000EA
:103D900030B50246002000230024158A0D402B4632
:103DA00095890D402C46002B03D0002C01D001201A
:103DB00000E0002030BD002A03D083890B438381BB
:103DC00002E083898B4383817047000000220288D0
:103DD000154B984206D001239B07984202D0134B03
:103DE000984203D1124B1A404B881A43114B984208
:103DF00003D0114B1A400B891A4302804B68C362EF
:103E00000B880385084B984208D00C4B984205D08C
:103E10000B4B984202D00B4B984201D18B7A038610
:103E20000123838270470000002C01400004004001
:103E30008FFF000000100040FFFC00000040014028
:103E4000004401400048014070B504460D46294633
:103E5000204600F029F900BF4021034800F07FF818
:103E60000028F9D070BD00000038014070B505464B
:103E70000C4604E021782846FFF7E6FF641C207812
:103E80000028F7D170BD000000B589B001214804B9
:103E9000FFF7ECFC01218803FFF708FD012209214F
:103EA000C806FEF7ACF801220A210920C006FEF779
:103EB000A6F8032040020790022108A80170002103
:103EC00081700121C1700321417007A90920C0063A
:103ED000FEF74DF8E1204002009000200190029092
:103EE000039005900C2004906946094800F068F89A
:103EF0000121074800F027F81B21684601760121BF
:103F00004176817606A8FFF791FB09B000BD00005D
:103F10000038014010B50549054800F02AF800288E
:103F200003D00249024800F005F810BD0501050064
:103F30000038014010B5002300220B0C01249C40E6
:103F40002246026210BD002904D0026801231A43F0
:103F5000026003E0026852085200026070470246A5
:103F60000020D3690B40002B01D0012000E000208D
:103F7000704770B502460B46002400210025002042
:103F80001E04350ED9B201268E403146012D02D1D4
:103F90001668314006E0022D02D15668314001E03A
:103FA000966831401C0C0126A6403446D669344040
:103FB000002903D0002C01D0012000E0002070BDBA
:103FC000F0B58BB004460D46002700200A9000266D
:103FD00020684008400020606668032109033046DD
:103FE00088430646A8680643666026682A48064055
:103FF000E968686808432969084306432660A6689B
:104000000321090230468843064668690643A660D4
:1040100001A8FFF75BFC2148844202D107980A906F
:1040200007E01F48844202D108980A9001E00398F3
:104030000A9020680121C903084000280CD0296893
:104040000A9A5000FCF77CF9074629680A9A500042
:10405000FCF776F90E4609E029680A98FCF770F932
:10406000074629680A98FCF76BF90E46286840084D
:10407000B04200D87F1C20680121C90308400028F5
:1040800006D03807460F38460649084030430746F1
:10409000A7810BB0F0BD0000F3E9FFFF003801403D
:1040A00000440040F0FF0000CA05D20D02857047B1
:1040B000F8B5040C8BB2264682B25E4310465843D4
:1040C0000D0C370C360400218019164679416E43D9
:1040D000370C36048019264679416E438919F8BD9C
:1040E0004900CA020243100000D004204A0D01D04A
:1040F00001221043044A490D914201D10221084393
:10410000012800D105207047FF070000F8B50446DC
:104110004F1EC8000838211815461E460868496811
:104120003A4606239A4310D02A463346FCF74CFE03
:104130003A46D200083AA3181A687F1E5B68FCF75B
:1041400069FB06223B469343EED1022F23D0042F76
:1041500011D0062F2FD12A463346FCF735FEE36AED
:10416000A26AFCF757FB2A463346FCF72DFE636A2A
:10417000226AFCF74FFB2A463346FCF725FEE3692B
:10418000A269FCF747FB2A463346FCF71DFE63692C
:104190002269FCF73FFB2A463346FCF715FEE3682D
:1041A000A268FCF737FB2A463346FCF70DFE63682E
:1041B0002268FCF72FFBF8BD10B50122FDF7DAF9F4
:1041C00010BD10B5FCF726FB10BD002210B513463C
:1041D00010461146FCF74EFB10BD0000034A10B517
:1041E00000201107FDF7C6F910BD000001FDFFFF1B
:1041F00030380A2801D201207047002070470000A3
:10420000F0B504464F008E488FB07F080D460D91E3
:10421000874228DB4042381820430CD08948874227
:1042200003DC874218D1002C16D020462946FFF720
:10423000C3FF0FB0F0BD844A844B20462946FCF7EB
:10424000C3FD07460E46824A824B20462946FCF7AC
:10425000BBFD3A46334649E00120FCF75DFFFFF71E
:10426000B4FF0FB0F0BD7C48874243DAF9208005E7
:1042700087420BDA20462946FFF732FF042801D196
:10428000FFF7ACFF204629460FB0F0BD22462B4673
:1042900010462946FCF798FD064602466F480F4631
:1042A0000B4606217844FFF731FF32463B46FCF7C8
:1042B0008BFD06906A48079132463B4604217844BC
:1042C000FFF724FF32463B46FCF77EFD00225C4BA5
:1042D000FCF7A0FA02460B4607990698FCF7CAFAC3
:1042E00022462B46FCF770FD22462B46FCF792FA3D
:1042F0000FB0F0BD2046524C690049080022234609
:10430000FCF7A0FA0022D243FDF734F90546024635
:1043100054480E460B4606217844FFF7F7FE2A461E
:104320003346FCF751FD06904F4807912A46334625
:1043300004217844FFF7EAFE2A463346FCF744FDA1
:1043400000222346FCF766FA059104902846314680
:1043500000F0CEFA089045480C46874219DB059BD1
:10436000049A07990698FCF785FA02460B462146FF
:104370000898FCF729FD2346089AFCF74BFA01221E
:10438000FDF7F8F8304A314BFCF751FA304A314B1F
:104390004AE000273A460B460898FCF73BFA3A46B3
:1043A00023460A910E9010461946FCF70DFD2A4649
:1043B0003346FCF747FA0A9B0E9AFCF75BFA054670
:1043C0000E46059B049A07990698FCF753FA00914C
:1043D0000490012228463146FDF7CCF81A4A1B4BBF
:1043E000FCF730FA0E460546012221460898FDF7F3
:1043F000C1F8009B049AFCF7E7FC2A463346FCF719
:1044000016FA05460E46012238462146FDF7B2F857
:104410000F4C174F22463B46FCF714FA2A46334608
:10442000FCF710FA22463B46FCF70CFA0D9A002ADC
:1044300000DD5DE70122D20751400FB0F0BD000062
:104440000000F03F0000F07F075C143326A6913C8B
:10445000182D4454FB21F93F0000E03FB009000053
:10446000C60900003C090000520900003333EF3F49
:10447000FB21E93FF0B589B004460D46480006919E
:1044800072494008884215DB7149884203DC884242
:1044900007D1002C05D020462946FFF78DFE09B034
:1044A000F0BD6C48002D02DD6B4909B0F0BD6B49D1
:1044B00009B0F0BD6A49884211DA6A4988420BDACC
:1044C00020462946FFF70CFE042801D1FFF786FE9F
:1044D0002046294609B0F0BD0026F6435DE06D0098
:1044E00061496D08884232DA6049884219DA00264B
:1044F000012332469B0720462946FCF78BF90746E5
:104500000191012220462946FDF734F80022584B3C
:10451000FCF78DF93A46019BFCF7ACF904460D46D1
:104520003BE001260022524B20462946FCF772F957
:104530000746009100224E4B20462946FCF777F9AA
:104540003A46009BFCF796F904460D4625E049499A
:10455000884219DA02260022474B20462946FCF7FA
:1045600033FC0022424BFCF755F90746029100222A
:10457000414B20462946FCF75AF93A46029BFCF784
:1045800079F904460D4608E0032622462B46002012
:104590003A49FCF76FF904460D4622462B46104671
:1045A0001946FCF711FC07460B4602460191FCF741
:1045B0000BFC0246029032480B46039106217844D8
:1045C000FFF7A4FD3A46019BFCF7FEFB00902D4847
:1045D000019105217844039B029AFFF797FD039B05
:1045E000029AFCF7F1FB02460B4601990098002E57
:1045F0000BDAFCF70FF922462B46FCF7E5FB2246C7
:104600002B46FCF71FF909B0F0BDFCF703F9224671
:104610002B46FCF7D9FB1C4AF6007A4493191A681A
:104620005B68FCF704F922462B46FCF700F9174AB1
:104630007A4493191A685B68FCF704F9069A002A11
:10464000E1DA0122D207514009B0F0BD0000104468
:104650000000F07F182D4454FB21F93FFB21F9BFE6
:104660000000DC3F0000203E0000F33F0000E63F7A
:104670000000F03F008003400000F83F0000F0BF62
:104680004E07000010070000AA0600007406000094
:10469000F0B51FB4039B54425D00164626439C466A
:1046A000F40F6D084B004E4E5B082C438E46B4420F
:1046B00005D847420743FC0F1C43B44204D9634664
:1046C000FFF77FFD05B0F0BD464E6644164309D0A6
:1046D000CC0F6646B61702273E40264304461C43CD
:1046E00004D00BE0FFF7C6FE05B0F0BD002EFBD0F6
:1046F000012EF9D0022E32D0032E34D014462C4392
:104700000BD0374CA54216D1A3420AD1012189070B
:104710008D438B43194603950DE0704600280FDB4F
:1047200025E0314F7F44002E0ED0012E10D0022EF6
:1047300015D0032E17D0A3421DD17046002816DADB
:104740002A482B4905B0F0BD7968386805B0F0BD3E
:1047500001227968D2073868514005B0F0BD23487E
:10476000244905B0F0BD2148234905B0F0BD1F48DC
:10477000224905B0F0BD5B1B1B153C2B02DD1B481D
:104780001E490FE06446002C05DA3C24E34202DABD
:104790000020014606E0039BFCF76CF8490049083D
:1047A000FFF768FE002EE4D0012E0BD0144A154B03
:1047B000022E0CD0FCF73BF80C4A0E4BFCF737F8F6
:1047C00005B0F0BD0122D207514005B0F0BDFCF7A5
:1047D0002EF8064A074BFCF735F805B0F0BD00008F
:1047E0000000F07F000010C018060000182D44548F
:1047F000FB21F9BFFB210940FB2109C0FB21F93F47
:10480000075C143326A6A13C0349088000BF024977
:1048100009880029FBD1704794000020FFF750F968
:10482000FDF7BEFCFEF724FCFFF72EFB07E00BA113
:104830000C48FFF71BFB7D20C000FFF7E5FFFEF7EC
:1048400035FD0028F3D1FEF7C5FCFEF761FCFEF74D
:1048500085FAFFF711FA00BFFEE700006661696C98
:10486000640D0A000038014010B503213C20FDF71B
:1048700086FD1D49087004213C20FDF780FD1A4982
:10488000487005213C20FDF77AFD17498870062104
:104890003C20FDF774FD1449C87007213C20FDF74A
:1048A0006EFD1149087108213C20FDF768FD0E4995
:1048B00048710846007800024978084300B20B4965
:1048C000C88009480079000207494979084300B2C5
:1048D000064908810448807800020349C9780843E2
:1048E00000B20249488110BD810000204C01002027
:1048F000F8B506460C46FCF76DFE05000F4600D0E5
:104900000120014349000B484908411AC90F0DD045
:10491000002E01D0012100E000210C436100490874
:10492000401AC00F02D10120FCF7F6FB2846394699
:10493000F8BD00000000F07F10B500290AD008780B
:10494000002807D005487844FDF796FA002801D0E2
:10495000002010BD0248784410BD0000B6040000DD
:10496000AE04000070B501250400ED074C4020D4D2
:10497000441A01D2001B0919C60D4B00F2B2FF2ADE
:1049800029D01B0E2CD000020C02D31A2C43DC4081
:104990002843051910D2280A02D3401C6D0611D0F5
:1049A000761EF6058019FF2A00DA70BDC00DC0051D
:1049B00070BD694000F0A4F801200543C541521CB8
:1049C000761CE8E764089C40C90161408900E7D192
:1049D0000124A043E4E71B0E440200D0034870BD4D
:1049E000002AFCD1C00FC00770BD00BF0000C07F0F
:1049F00001230200DB050A430DD4DA4203D49A42B4
:104A000007D488427047D84214D4D94212D488427D
:104A1000704780427047DA4203D59A42F9D5814205
:104A200070475B004200DA4204D24A00DA4201D207
:104A30008142704710B5024AFCF74CFE10BD00BF22
:104A40000900120470B5420064414B005C41120E33
:104A500039D01B0E38D0FF2A3CD0FF2B3AD0400271
:104A60004902400A490A060045184E43000A090A4D
:104A7000D2184843ED017F3A0104731A4019190C0A
:104A80004318990F04D001215B0849075B1A521C97
:104A9000D80904D3401CF50301D19D0607D0FF2A95
:104AA00008D2D50506D0E4072043401970BD012582
:104AB000A843F4E7002A01DCE00770BD2402FF20D0
:104AC0002043C00570BD1B0EFF2A03D0FF2B01D071
:104AD000E00770BDFF2645003606B54206D84D00FA
:104AE000B54203D8D218FF2A00D0E7E7004870BDCE
:104AF0000000C07F70B501250400ED074C4022D4B2
:104B0000441A02D26C40001B0919C60D4B00F2B2C8
:104B1000FF2A4BD01B0E50D000020C02D31A2C439C
:104B2000DC40A843051B05D5AD0019D36D08761EE2
:104B3000521E37D0F605280A01D2801970BD704187
:104B40006D0603D070BD6940FFF712FF9C4009025B
:104B50006140490001D0401E70BD0124A04370BDDA
:104B60006D081DD001202B0C01D12D0410302B0E0F
:104B700001D12D0208302B0F01D12D01001DAB0FEB
:104B800001D1AD00801CEB0F01D16D00401C6D0008
:104B9000361A121A680AF5054019012A02DB70BD9F
:104BA000002070BDC036300AC00770BD1B0E440225
:104BB00001D1FF2B00D1024870BD002AF0D070BD9A
:104BC0000000C07F03B402487844844603BC6047B9
:104BD000F3C6FFFF80807F7E7D7C7B7A7978777655
:104BE00076757473727171706F6E6E6D6C6C6B6ACA
:104BF0006A69686867666665646463636261616068
:104C0000605F5F5E5E5D5D5C5C5B5B5A5A595958E4
:104C1000585757565655555554545353525252514E
:104C2000515050504F4F4F4E4E4D4D4D4C4C4C4BA4
:104C30004B4B4A4A4A4949494848484747474746EB
:104C40004646454545444444444343434342424227
:104C50004241414100000000555555555555C53F4D
:104C60007D6FEB0312D6D4BF5544880E55C1C93FA2
:104C70003B8F68B52882A4BF88B20175E0EF493F39
:104C800009F7FD0DE13D023F4B2D8A1C273A03C079
:104C9000C88A599CE52A004059018D1B6C06E6BF65
:104CA00082922EB1C5B8B33F4FBB610567ACDD3F03
:104CB000182D4454FB21E93F9BF681D20B73EF3F43
:104CC000182D4454FB21F93FE2652F227F2B7A3CBB
:104CD000075C143326A6813CBDCBF07A8807703C74
:104CE000075C143326A6913CC4EB98999999C9BFE7
:104CF000711623FEC671BCBF6D9A74AFF2B0B3BF1C
:104D00009AFDDE522DDEADBF2F6C6A2C44B4A2BFDB
:104D10000D5555555555D53FFF8300922449C23F47
:104D20006E204CC5CD45B73F513DD0A0660DB13F7B
:104D3000EB0D76244B7BA93F11DA22E33AAD903F8D
:104D4000000000000000000002400000000000A081
:104D50000000000005400000000000C80000000046
:104D60000C4000000000409C0000000019400000C2
:104D70000020BCBE0000000034400000BFC91B8EF4
:104D800000000004B5400000504BCFD06607E2CFD2
:104D9000010000006C4100003E8251AADFEEA73402
:104DA00001000000D9420000DCB5A0E23A301F97B4
:104DB000FFFFFFFFB4450000FD25A0C8E9A3C14FD8
:104DC000FFFFFFFFFF3F0000000000800000000029
:104DD000FF3F00000000008000000000184E0008A7
:104DE000000000209800000004010008B04E0008F8
:104DF00098000020C0070000200100081C000000EF
:104E000043000000F8FFFFFF0C0000000E00000050
:104E10000F0000002E000000006CDC02000000000B
:104E2000000000000102030406070809000000005A
:104E30000102030401020304060708090000000040
:104E40000000000000000000000000000000000062
:104E50000000000000000000000000000000000052
:104E60000000000000000000000000000000000042
:104E70000000000000000000000000000000803F73
:104E80000000000000000000000000000000000022
:104E90000000000000000000000000000000000012
:104EA0000000000000000000000000000000000002
:04000005080000C12E
:00000001FF
