:020000040800F2
:100000006808002085010008F13600086D2200080C
:1000100000000000000000000000000000000000E0
:10002000000000000000000000000000193C000873
:100030000000000000000000DD370008413D00081E
:100040009701000897010008970100089701000830
:100050009701000897010008970100089701000820
:100060009701000897010008970100089701000810
:10007000970100089701000897010008293E000831
:1000800097010008970100089701000897010008F0
:1000900097010008970100089701000897010008E0
:1000A0009701000897010008970100087D400008AB
:1000B00097010008970100089701000897010008C0
:1000C00000F002F800F04EF80CA030C808382418F0
:1000D0002D18A246671EAB4654465D46AC4201D180
:1000E00000F040F87E460F3E0FCCB6460126334264
:1000F00000D0FB1AA246AB4633431847984F000086
:10010000B84F0000103A02D378C878C1FAD8520725
:1001100001D330C830C101D504680C6070470000BD
:100120000023002400250026103A01D378C1FBD813
:10013000520700D330C100D50B60704710B5662957
:1001400002D104F09DFE10BD002010BD1FB501F0CE
:1001500079FB04000020002104F040FDE0601FBD99
:1001600010B510BD01F0E8FE1146FFF7EFFF04F0F7
:10017000A7FC01F000FF03B4FFF7F2FF03BC01F09E
:100180002FFF00000748804707480047FEE7FEE7CB
:10019000FEE7FEE7FEE7FEE704480549054A064B91
:1001A00070470000593D0008C100000868020020A7
:1001B0006808002068040020680400200FB41CB503
:1001C000074B06AA7B4469460090059801F03FFA68
:1001D0000020694601F04EFA1CBC08BC04B0184768
:1001E000AD14000070B5044685690068C10601D5EC
:1001F000302600E02026C00707D070BD6268304678
:10020000A1689047206A401C20626D1EF6D570BD23
:1002100070B5044685690078C00707D170BD626873
:10022000A16820209047206A401C20626D1EF6D5F0
:1002300070BDF3B50446002081B020622046E1681D
:10024000884700287AD0252802D06268A16871E02A
:10025000E16820460025884706460020E061074601
:10026000A0612A2E0AD0304604F0B0F8002827D02A
:10027000B8000019303E0090866119E00298BA007B
:10028000121902C8916102902046E1688847012F47
:10029000064617D1E06900281FDA202085431CE0BC
:1002A00000980A2180694843009980193038886194
:1002B0002046E1688847064604F088F80028EFD118
:1002C000012F0AD02E2E08D12046E1688847064625
:1002D000202005437F1C022FC3DBA069002803DA1E
:1002E0004042A06101200543E80701D0102085436A
:1002F000002E23D030464138192803D80120C002EF
:1003000005432036204625603146029A1546FFF700
:1003100015FF00280BD0012806D0ED1DE808C0000D
:10032000083002908AE709E02D1D029586E7626891
:100330003046A1689047206A401C7EE7206AFEBDD7
:1003400030B5441C03E00178401C00290DD0810722
:10035000F9D10B4BDD0104C8D11A91432940FAD0E1
:10036000001B0A0603D0C01E30BD001B30BD0A04AE
:1003700001D0801E30BD0902FCD0401E30BD0000FF
:100380000101010101E004C0091F0429FBD28B0710
:1003900001D50280801CC90700D002707047002977
:1003A0000BD0C30702D00270401C491E022904D39F
:1003B000830702D50280801C891EE3E70022EEE756
:1003C0000022DFE7024670B50A4392072AD11E4D8C
:1003D000EE0104C808C9541B9443344017D0D0B26E
:1003E000D9B2401A2106014310D190B299B2401AF5
:1003F000210401430AD110021902000A090A401A15
:100400002102014302D1100E190E401A70BD9A420A
:10041000DFD010BA19BA884201D9012070BD00207E
:10042000C04370BD02780B78401C491C002A09D0DB
:100430009A4207D102780B78401C491C002A01D04F
:100440009A42EFD0D01A70BD0101010100220309C8
:100450008B422CD3030A8B4211D300239C464EE0DF
:1004600003460B433CD4002243088B4231D303099B
:100470008B421CD3030A8B4201D394463FE0C3094D
:100480008B4201D3CB01C01A524183098B4201D365
:100490008B01C01A524143098B4201D34B01C01A50
:1004A000524103098B4201D30B01C01A5241C308C8
:1004B0008B4201D3CB00C01A524183088B4201D337
:1004C0008B00C01A524143088B4201D34B00C01A23
:1004D0005241411A00D201465241104670475DE038
:1004E000CA0F00D04942031000D3404253400022BB
:1004F0009C4603098B422DD3030A8B4212D3FC2264
:10050000890112BA030A8B420CD3890192118B42E2
:1005100008D3890192118B4204D389013AD09211F8
:1005200000E08909C3098B4201D3CB01C01A5241B3
:1005300083098B4201D38B01C01A524143098B427C
:1005400001D34B01C01A524103098B4201D30B0165
:10055000C01A5241C3088B4201D3CB00C01A52418A
:1005600083088B4201D38B00C01A5241D9D2430871
:100570008B4201D34B00C01A5241411A00D20146AE
:10058000634652415B10104601D34042002B00D518
:100590004942704763465B1000D3404201B50020DA
:1005A000C046C04602BD7047704770470246C80F3C
:1005B000C00781434B0030B54B405B009B0D20D002
:1005C0001923DB06C91801231B05994220DB0324EC
:1005D000A40704251346AB400BD3002B04D1EB0634
:1005E00013409B00E34204D4012464070023121942
:1005F0005941FF231B0599420BD2C9000143500FFB
:1006000009E0CB0204D501430803024305D00548A5
:1006100030BDFF21C905084330BD08460721090543
:10062000884330BD0000C07FF0B50C46871A9C415E
:100630000D46861A9D4103D2C01BA141D2196341C8
:100640000D0D1F0DC94EEC1BAE435CD07F057F0D19
:100650000026002F51D02D05AC46A943DD02012311
:10066000ED0A1B051D4320231B1B24D41746E7401E
:10067000381871412F46E740CC199D402818314663
:1006800061410C0D27D161449A4013D50023401CD1
:10069000594152000ED14008400001224B00520542
:1006A000D34207D305204007C14201D5B04900E03D
:1006B000B0493046F0BD6B00002A00D001229A18E4
:1006C0001F23203C1B1B01D5002302E0E540281816
:1006D00071410C0DD7D0012424050919C407CD0799
:1006E00040084908E40F28436144002CD5D0002479
:1006F000401C61419A40D0D1CDE76A05520DD9D155
:10070000C90FC907D5E79C4D4E00002801D0012430
:1007100000E0002434195F00002A01D0012600E027
:100720000026BE19954FAC420CD8AE420AD8B4424E
:1007300006D001256D05EC42BCD010461946F0BD2F
:100740009942FCD000203946F0BDF0B51FB40C46EC
:100750000F46811A9F412546861A9D4106D20125E2
:10076000ED076F40401ABC4152187B41210D1E0D10
:100770008D1BAC467D4D8D437ED075056D0D7CD0B7
:100780000D05AE46AC431B031B0B794D52429D41F8
:10079000202366469B1B14D31746F74038180026C3
:1007A0000090744160462F460741E41900989D402F
:1007B0002818664116D4714671189A4025D5012330
:1007C00020E093182A466A415200002B00D0521CA8
:1007D0001E23203E9B1B002B61DD3541EE172818A0
:1007E0006641E8D5001876415B1C9A4000D3401C56
:1007F0004B05F3181524E34010D3002B52D071465B
:100800007118D30FC01802D3491C05B0F0BD0123E5
:10081000DB079A42F9D140084000F6E70122520571
:10082000B21801D1002853D00123CC0ADB0299432E
:10083000891E002A08D1020C03D0020C00041039D2
:1008400002E00246002020390023550B05D1120298
:100850000823550B01D152010D23550C01D1120172
:100860001B1DD50C01D192009B1C150D01D152000E
:100870005B1C2025EE1A01E02CE022E00546F54045
:1008800015439840CA1AE10769181305C918002AC8
:10089000BBDA032040070818C10FC9070FE07146F3
:1008A0006118B2E7F10740080843711071444A002B
:1008B0000CD001235B059A42A7D2C90FC9070020BB
:1008C000A3E74905490D26D1002001E00028F4D115
:1008D00000219AE7284D6600002801D0012100E0A0
:1008E000002171185F00002A01D0012600E00026D7
:1008F000BE19224FA94210D8AE420ED8B14208D03C
:1009000001256D05E94206D01946A802414010466E
:100910007BE79C4201D0214677E70020394674E707
:1009200010B50C465C4005D50124E4076340FFF791
:100930000CFF10BDFFF778FE10BD30B40C465C40D4
:1009400004D50124E407634030BC6DE630BCFCE60E
:1009500070B50124E40761400D465D4002D4FFF705
:1009600063FE70BD6340FFF7F0FE70BDFF0700003F
:100970000000F0FF0000F07F0000E0FF0000F87FC3
:10098000F0B5F94D0C091E092C402E402F468BB0B6
:10099000A7437DD0B543FCD0002E7AD0002CFCD0EC
:1009A0000D465D40ED0F2543AC1BFF25AD046419DA
:1009B0000894C502440DC9022143500DDC020443D2
:1009C0000120C00701430443D2020191200C110C05
:1009D00000958C46010423468B430A916146090425
:1009E000E24D8A430991010A7D4449198039097809
:1009F00005464D4301266D18F605751B6943C90C64
:100A0000640B891C4C436418B5012C1B250C2E0467
:100A1000B4434C434D43210C691889090591009D4D
:100A2000E90701D00121C90704912C460199670803
:100A3000CD072F434C08059DE10B4D432D0C294656
:100A40006646754302950D4645432E46029D7D1B25
:100A5000B44100950D465D4301942C0C2F040D46C6
:100A60005543AE462D0C3D43029503947546049CB8
:100A70002D04641B049406D2029C039D641C002672
:100A800075410395029401AC70CC009F7D1B01E081
:100A90003EE162E1B4410904009507910194059992
:100AA000A4086143090C0C464443650BE7040C465B
:100AB00066467443A646640B3C4303950294744611
:100AC000049DE4042C1B049406D2029C039D641C28
:100AD000002675410395029401AC70CC009F7D1BEC
:100AE000B44101940C465C430095650FE7000C4649
:100AF0005443A646640F3C43039502947446049DF8
:100B0000E4002C1B049406D2029C039D641C002666
:100B100075410395029401AC70CC009F7D1BB441DC
:100B2000AE09AF06049DC900AD092F43049DA4067C
:100B3000AD060495079D344369180791059DE10BA7
:100B40004D432D0C29466646754302950D46454397
:100B50002E46029D7D1BB44100950D465D430194D8
:100B60002C0C2F040D465543AE462D0C3D430295EB
:100B700003947546049C2D04641B049406D2029CC5
:100B8000039D641C002675410395029401AC70CC52
:100B9000009F7D1BB44101948C050694079C890A33
:100BA000611800950791019C0599A4086143090CFF
:100BB0000D464543680BEF040D46644665436C0BD8
:100BC0003C43049FED047D1BAC4602D20025641C0F
:100BD0006841009E019D371B854108465843019599
:100BE0000C46460FC5005443600F28436546E40099
:100BF0002C1B02D20025401C6E41019D3F1AB541BD
:100C00002846BD09800628438446A009BF064E0237
:100C10000699A40676180743079D002068410A99A3
:100C2000079019430020099B00906046FF19134369
:100C30004041E20F64003A43A4460446D71A8C416F
:100C4000A04203D90120009020463A46C70F9418CD
:100C500040416246D20F2243644664000494009CE3
:100C6000BE466400D71AA446044602978C417746D4
:100C7000002F01D1A04204D96046401C8446029A4C
:100C80002046C40FA64694184041049A0546D20F48
:100C9000224364466400D31A8D417146002901D174
:100CA000A84202D928461A46641C10430122002893
:100CB00000D0164361020020079B891904465C415D
:100CC0000223002C02DB491813466441089DCE0A1A
:100CD0002D145D194B056705E10A2C050D190899BE
:100CE0003E43C9076940002B08D0934006D3002239
:100CF000761C5141002B01D1760876001C4A002D4C
:100D000043DB154241D0AA433FD030460BB0F0BD83
:100D100006180D464D41174C7642AC411AD3951832
:100D20001C465C41134A6D42A24113D30122520575
:100D30004C00D4420AD15C00D4420BD04B4002D5C7
:100D400092021143E2E749004908DFE75940C90F21
:100D5000C90718E000200849D8E7054801420DD12D
:100D60000342F7D0F2E700000000FF07A4440000B0
:100D70000000F07F0000E0FF0000F87F11485940BC
:100D80000143C01241400020C0E70123089A9B069E
:100D90009A4205DC032252078918C90FC907B5E733
:100DA000052252078918074A1143D2125140ADE774
:100DB00070B515461C4602460B4628462146FFF7ED
:100DC000DFFD70BDFFFFFF7F30B50346CA02400D57
:100DD0001043164D164C0A1502D02043002A06DB9C
:100DE000AA1A002A12DDD040FF2A0BDC30BD5205C2
:100DF000520D01D140004008AA1A07D4D040404209
:100E0000FF2A01DD002030BD0028FCDD4A00002B58
:100E100001D0012000E00020101801225205D0422C
:100E2000F0D8C817C043604030BD00001E04000069
:100E3000000000800346CA02400D10B510430A1599
:100E400004D00124E4072043002A05DB0A4CA21A3F
:100E500004D4D040FF2A00DD002010BD4A00002B42
:100E600001D0012000E00020101801225205D042DC
:100E7000F2D8C817C04310BD1E0400001F22030C87
:100E800002D10F22000402D0030E03D004E00020A0
:100E9000014670470002083A030F01D10001121FFA
:100EA000830F01D18000921E002801DB4000521EFA
:100EB000120551184205C012411810467047C10F63
:100EC000C90700D04042012292071143D6E7012111
:100ED0008907D3E7F0B58B4C0F09254689B0BD4390
:100EE0007BD01D092646AE43FAD00E465E40274011
:100EF000F60F3E43254071D024012142FBD0FF2450
:100F0000AD19A4042D1B039501252D05DB02DB0A79
:100F1000C9022B43C90A29431E010901040F130FFB
:100F2000050121431701880B820391432D098C464B
:100F3000A90B1E438A039543B30B9A0396433F09BB
:100F4000BA0B9403A74302962E467E430497B646F7
:100F50004E19D7190C460196544305977E43371B0B
:100F60007646BF1B3601B646BE0B3619009676464E
:100F7000BC043719009C01D3641C00946400002F4A
:100F800001D001263443029E049F754366467E438A
:100F90000496760034196E0034190094029C019E68
:100FA0001C196643751BAE46069465464519059C9B
:100FB00005956C43594375460891691A0191049E41
:100FC00001465143A41B0491611A009C0791E1065C
:100FD00005D061090122114302E072E06EE061096F
:100FE000089D00272C0A2D066918049D7C412A0AB9
:100FF0002D066918019D6241AC0DAD026D1854417A
:10100000079A910D920255196141029A644658431C
:101010005443069B059A5A43121A131B9A0E9B01BE
:101020005B187A41010B0005C3185141220A2006C2
:1010300044195A419A4200D2491C0120400281427F
:1010400003D315230226F64302E014230326F643B6
:101050002020C51AA9401746AF40DA400A4320466F
:101060000399D8400914731819055118039A384385
:10107000D2075140AC4009D00122944006D300224F
:10108000401C5141002C01D1400840001E4A9342AF
:1010900012D3012203989206904207DB05204007F5
:1010A00009181A480143C012414004E003204007D8
:1010B0000818C10FC907002009B0F0BD0020F107D2
:1010C000FAE705180C464C4111486D42A04115D372
:1010D00094181A465A410E48644290410ED301209A
:1010E0004A004005824209D35A00824206D3594041
:1010F000C90F084AC90700201143DDE7002006494F
:10110000DAE700000000FF07FE070000FFFFFF7F97
:101110000000E0FF0000F07F0000F87F0121C9051A
:101120000123411842001B06D3185B0E0AD0C110E0
:101130000722D206891840075242D14201D55200F7
:1011400089187047090208D50146002A03D0C10F4B
:10115000C9070020704710467047420202D00020A5
:1011600002497047072109050143F4E70000F87FB1
:1011700010B501469E240002CA15A307002A02D01A
:101180001843002A04DBA21A002A0CDDD04010BD4F
:101190001206120E01D140004008A21A03D4D0401A
:1011A00040420028F3DDFF2248001206904201D998
:1011B000002010BDC817C043584010BD1F22030CAB
:1011C00002D10F2200041CD0030E01D10002083A04
:1011D000030F01D10001121F830F01D18000921E65
:1011E000002801DB4000521ED2055118021251188E
:1011F0001922904004D3491C002801D14908490014
:1012000008467047C10FC90700D04042012292072B
:101210001143D3E701218907D0E710B500F016FB91
:10122000006810BD10B5044600F010FB046010BD4E
:101230007047FFB50C461E468FB003CA089009914F
:101240004F007D0D00D16D1E002108460020C046D4
:101250000321099A89050840002A03DA82008018D0
:1012600040080840800D01280A9002DD0020C0439C
:101270000A90089807430DD0EF48F04928184843D2
:101280000714189800281DD07542291E1DDD0A98E4
:1012900042421BE01898012802D00020302104E0CF
:1012A0000020F24305E02154401CB042FBDB3046F5
:1012B0000022189B002121540F998B600A6048601E
:1012C00013B0F0BDBD1B6D1CDFE70A9A002900DAE0
:1012D00069420BA800F040FB0BAB07CB03AB07C385
:1012E0000899099800F09CFB6B4607C30146D44857
:1012F0000918002D00910ADDD14903980A9A494244
:10130000401803A90390684600F0AFFD07E0039979
:101310000A9A081803A90390684600F07CFD6B4602
:1013200007C30004000C03D00020C043410800E0C4
:101330001046189A002A03D00022009215461EE09B
:10134000751E05D400F086FA303262556D1EF9D54F
:1013500001220843079602D000227F1C04E0207877
:10136000302801D100227F1E002A069789D01EE076
:10137000112D07DA00F06EFA303262556D1C02460C
:101380000A43F5D1084303D00098002819D00EE095
:101390000021681E05E0235C625C63542254401EF9
:1013A000491C8142F7DBA81B401E07950690079A4F
:1013B00018990020A0540F98079B069A81600CC0D2
:1013C0007EE71126002018905BE7D21DF0B50D4690
:1013D0000446D10893B0C90003C90C900D9102F0E6
:1013E0006DFF02460D98C00F01D02D2007E0206848
:1013F000810701D52B2002E04007C00F4001032ADE
:101400000F9001D0072A05DB03462946204600F04D
:101410005FFA0EE12078800601D5E76900E0062733
:101420002846652D04D0662814D0672D69D12DE09B
:101430000020112F009001DB112300E07B1C0CAA7F
:1014400003A910A8FFF7F5FE1199002610987D1C3E
:101450000E9142E001203B460CAAC0070B900120F0
:10146000009003A910A8FFF7E4FE119D12981099AF
:10147000002600280E9501D1781C0D18781B02D487
:1014800046427D1C761EE81B00903AE0012F00DAF0
:1014900001270020112F009001DD112300E03B46C1
:1014A0000CAA03A910A8FFF7C4FE11993D46109895
:1014B00000260E91217809070BD40E99A94200DA73
:1014C0000D4603A9012D04DD4A19203AD27F302AA6
:1014D00006D0B84201DA011D04DA012100910FE0C3
:1014E0006D1EEFE7002802DC86192D1A03E0411C6F
:1014F000A94200DD0D46801B401C00900120C00762
:101500000B902078000705D40098A84202DB002049
:10151000C043009069460020C8720B98012102AFB9
:101520000337C907884225D0022010902B20119044
:101530000B9800280BDA40420B902D20119006E00A
:101540000B9800F0C1FC30317F1E0B903970109960
:10155000481E00291090F3DC0B980028F0D1119858
:101560007F1E38702088000501D5452000E06520E9
:101570007F1E387001A8C01BC01D0B900F9800285B
:1015800000D0012041190098C01709180B980818BD
:10159000A169081A401EA0612078C00602D4204626
:1015A000FEF720FE0F98002805D06268A1689047DA
:1015B000206A401C20622078C00625D52046FEF710
:1015C00011FE21E0002E07DB0E98B04204DD03A8D7
:1015D0006268805DA16802E06268A168302090477F
:1015E000206A761C401C20620098401E0028009053
:1015F0000AD100F027F9C06862680168405CA16800
:101600009047206A401C206228466D1E0028D9DCC5
:1016100007E062683878A1687F1C9047206A401C08
:1016200020620B99481E00290B90F2DC2046FEF741
:10163000EFFD032044E6000001FCFFFF104D000019
:10164000E1DFFFFF01694A1C02610878704700B5BD
:101650008FB00291002105910549019379440391CE
:10166000114604906846FEF7E4FD0FB000BD00008F
:10167000E5FFFFFF0A681070521C0A607047000007
:1016800070B505464800440D124B0020002C0AD0CE
:10169000634008D09A4206DA6642B24203DD120580
:1016A0004019514170BD002C08D0002B09D0C90F42
:1016B000C907002AF6DB084A114370BDC90FC907E4
:1016C00070BD28460A03104302D00020034970BDB4
:1016D000284670BDFF0700000000F07F0000F87F83
:1016E000F0B53D4B02460C461C400020002C63D058
:1016F0003A4D8B4366D000296BDB0B0D1D05A943CA
:1017000001252D0529430124FD33E34001D392181F
:101710004941FF3381339C468B02940D01212343C1
:1017200089074C42920200271B198C105D1A04D4C1
:101730002D1B02D42B466500491992185B416408A1
:10174000F4D15C1A08D40125ED07EE175519744140
:1017500002D42A462346491C94185B410122920771
:101760001D46E61B8D4106D4B61A854103D42B468F
:10177000550034467F1924195B415208802AEFD165
:10178000234300D0022338460A22D04001D301224D
:1017900013438A0510436246890A12058918002BF3
:1017A00009D00122D34002D30022401C5141002B1A
:1017B00001D140084000F0BD0B03134307D0C90F0F
:1017C000C907F0BD0803104303D1002901DB10460F
:1017D000F0BD00202946F0BD0000F07F0000F87F3A
:1017E00010B5FF231B0644009C421DD84C009C42B0
:1017F0001AD80346124A0B4307D4401A02D3EFF318
:10180000008010BDEFF3008010BD081A06D2EFF380
:10181000008001219043C907084302E0EFF30080F4
:10182000904380F3008810BD0D231B041A4204D09E
:101830001146002000F05CFB10BD00F071FB10BDF4
:1018400000000090004870472402002000487047C4
:10185000040200200B4670B5024689078008084341
:1018600019469D08141AA9412509080705430809C6
:101870002C194841250A01060D43010A2C19414142
:10188000200C0D0428430D0C00194D410021401976
:101890004D41C00869070843E908840F8D002543BE
:1018A000840024184D4124196D41121BAB4107E0FF
:1018B0000925ED432C11521963410024401C61415C
:1018C0001C460A250026551BB441F1D270BD00000C
:1018D000F8B51F46044601230068DB0203260146D3
:1018E0001840072A05DB002801D017A506E017A538
:1018F00004E0002801D016A500E016A510208143C1
:101900002160A069C01E002FA06101D0401EA0610F
:101910002046FEF767FC002F09D038466268A168B0
:101920009047206A401C2062C01C206206E0206AAA
:10193000FAE762682878A1686D1C9047761EF8D295
:101940002046FEF765FCF8BD4E414E006E616E000C
:10195000494E4600696E6600F7B516468AB02F48B4
:1019600078446C4603467C33C06F5A689B680DC44C
:101970002A487844763003AC0DC80DC43720C00126
:10198000081837211B30FEF76BFD05460C46803DDD
:101990001B3C02D56442012000E000200027099092
:1019A0000FE0E0070BD00C201C4978437944324605
:1019B0004C394118684600F02EFA6B4607C3641094
:1019C0007F1C002CEDD1154F7F442C3F15E0E8071C
:1019D00011D02001C0190EC8069108930792006823
:1019E000F04201D198190890324606A903A800F0E8
:1019F00012FA03AB07C36D10641C002DE7D1324609
:101A000069460998002803A802D000F02EFA01E0E8
:101A100000F001FA0A9B07C30DB0F0BD9C36000030
:101A2000034640000A4610B5400D0BD00121C907FE
:101A30000F24A40200191C0364082143540D214300
:101A4000D20207E000210120F2E7D40F4900214330
:101A50005200401E0029F8DADB0FDB07184310BDE7
:101A6000FFB50D46144685B04868516802F00DFC7C
:101A700000910190A868A16802F007FC0291039010
:101A8000A868616802F001FC029A12188242029270
:101A900001D2012000E00020019A0B18D218002882
:101AA000019202D08A4202D903E08A4201D2012087
:101AB00000E000200099081800906868A16802F012
:101AC000E4FB029A12188242029201D2012000E045
:101AD0000020019A0B18D2180028019202D08A42E5
:101AE00002D903E08A4201D2012000E000200099DF
:101AF00008180090286821684000490040084908FB
:101B00004018EE49471814E001994000C90F0843F6
:101B10000090019802994000C90F08430190029873
:101B200003994000C90F08430290039840007F1EAC
:101B3000039000980028E7DA0898002801D0E04ECA
:101B400000E00026B74228DAF71BF806C00E15D0D1
:101B5000029B2021091A039A8B401A430392029A8E
:101B6000019BC2408B401A430292019A009BC240E3
:101B70008B4000991A430192C14000917A110BD019
:101B80006B460320811A01D5002101E089005958D4
:101B90008700401ED951F5D5374603980299002891
:101BA00000D00120014308980291002808460CD07B
:101BB000002800D001200199019A4905084301211C
:101BC000D20AC902D202019200E001210E9B012239
:101BD000D207012B02D0002B03D013E0002807D13D
:101BE00016E0904204D890420CD1019B0B4209D0E0
:101BF000019B5918019105D10099491C009101D10F
:101C00007F1C0092002803D0102108460020C04607
:101C100028682168019B009A4840C10F0598C907B0
:101C200039430EC009B0F0BDFFB587B0099A0898D6
:101C30000899536892684068896896460022039321
:101C400017469446089A12685300099A5B0812686E
:101C5000520052089A1A9B4BD4180A9A002A01D0B3
:101C6000352200E04022069200220123154604920C
:101C7000DB07059324E0002D05D175460346039E3E
:101C80004D1BB34109D375466646039B491B049D12
:101C90009841059B7519AC465F4163463B4308D0AC
:101CA000059B049EDD0776082E435B08049605938A
:101CB00001E0521E641EC50FED0749184041521C39
:101CC000069B9A42D7DB002D04D17546039A6B1A06
:101CD000824101D203200CE0039A0B466B40424044
:101CE000134303D0014303D0012002E0022000E0AF
:101CF0000020614601910021009702910A99002974
:101D000005D06146400201436D4B019102E080071E
:101D1000002302909C423ADA1A1BD006C00E15D05E
:101D2000029D2021019C091AC5408C402543029C3C
:101D30008C4000D001242543019C02953D46C440BF
:101D40008D4039462C43C1400194009154111DD05F
:101D50006D460221002202290CD10320001B07E05E
:101D6000002804DB8600AE59002E00D00122401C62
:101D70000328F5DB081B02D588002A5004E0800008
:101D8000285810438A00A850491EE3D51C460A98DB
:101D9000002802980CD0002800D001200199019A57
:101DA000490508430121D20AC902D202019200E08A
:101DB0000121109B0122D207012B02D0002B03D05E
:101DC00013E0002807D116E0904204D890420CD1CD
:101DD000019B0B4209D0019B5918019105D1009933
:101DE000491C009101D1641C0092002803D01021ED
:101DF00008460020C04608980999019A00680968B9
:101E000048400099C30F0798DB07234303608260B3
:101E100041600BB0F0BD1FB5002300920A46014699
:101E200001A8FFF71DFE01AB07CB04B010BD1FB525
:101E3000012300920A46014601A8FFF711FE01ABFB
:101E40000F2407CBA402C30F4000DB074008001B90
:101E5000002900DB0020490000054908CC0A204386
:101E600049051843D20A1143DFE71FB5002300924A
:101E70000A46014601A8FFF7D7FE01AB07CBD4E71E
:101E80001FB5012300920A46014601A8FFF7CCFEC8
:101E900001AB0F2407CBA402C30F4000DB074008AF
:101EA000001B002900DB0020490000054908CC0A7E
:101EB000204349051843D20A1143B6E702C0FFFF89
:101EC000013C0000FF3F000001468008081A02099B
:101ED0001018020A1018020C1018C00882001218FC
:101EE0005200891A01E0401C0A390A29FBD27047C6
:101EF000CA0211D54A03520F002A04D0C803C043B6
:101F0000012188407047054AEFF30081080100096C
:101F1000104380F3008870470020704700000030B5
:101F200010B5024800F02DF810BD00000000C07F81
:101F300000487047040200207546FFF7F9FFAE46DF
:101F4000050069465346C008C000854618B020B554
:101F5000FEF722F960BC00274908B6460026C0C536
:101F6000C0C5C0C5C0C5C0C5C0C5C0C5C0C5403D51
:101F700049008D4670470446C046C0462046FEF7DD
:101F8000FAF810B50C461107090F092904D00A29DF
:101F90000AD008290CD104E011460820FFF7A8FF59
:101FA00006E0510606D501E0510601D50120C00723
:101FB000214610BDD10607D501010909CC08490702
:101FC000000E0006044309E0410F20024907000A01
:101FD0000143200E00061D22D14101430846E7E7D8
:101FE00001491820ABBEFEE7260002007047F0B59D
:101FF0000A4600210023002400BF3DE001258D405A
:102000002B4615681D402C469C4234D11579012D74
:1020100002D01579022D16D185684F000326BE40E7
:10202000B543856055794E00B54086683543856077
:10203000858801268E40B5438580858896798E40B7
:10204000B6B23543858005684F000326BE40B543D0
:10205000056015794E00B540066835430560C568D2
:102060004F000326BE40B543C560D5794E00B5404C
:10207000C6683543C560491C1029BFD3F0BDF0B513
:10208000002300244D07EE0E1546B5402B46CD101B
:10209000AE0005462035AD594E07F70E0F26BE405F
:1020A000B543CE10B60007462037BD51CD10AE0067
:1020B0003D46AD591D432C46CD10AD003E467451F2
:1020C000F0BD0000F0B58BB001F08AFB224904207E
:1020D000085EFFF797F804461F490220085EFFF7E5
:1020E00091F805461C490020085EFFF78BF806466C
:1020F0001A490A20085EFFF785F8074617490820A5
:10210000085EFFF77FF815490A900620085EFFF782
:1021100079F812494C3109900A20085EFFF772F8ED
:102120000E494C3108900820085EFFF76BF80B4908
:102130004C3107900620085EFFF764F8019702967D
:102140000395049406900A98009006A80FC800F022
:10215000B7F90BB0F0BD00004C010020A800002032
:102160000F49C9680E4A92698818C10F09184910A9
:1021700009B20B4A918411460969D2698818C10FC6
:102180000918491009B2064AD18411464969126AF0
:102190008818C10F0918491009B2014A1185704702
:1021A0004C01002010B52F482F49C86008614861D4
:1021B00040428861C861086200208884C88408851C
:1021C0007F20C005C862086348630020088700BFFD
:1021D00002F09CFC24488069234906228A5E9042D2
:1021E00002DD0620085E88611F48C0691E4908227A
:1021F0008A5E904202DD0820085EC8611A48006AC3
:1022000019490A228A5E904202DD0A20085E0862AD
:102210001548C068144906228A5E904202DA0620F8
:10222000085EC860104800690F4908228A5E904223
:1022300002DA0820085E08610B4840690A490A2250
:102240008A5E904202DA0A20085E48610648008FE2
:10225000401C00B2044908870846008F0028B7D107
:1022600010BD000000F0FFFF4C01002000BFFEE7A2
:102270001CB50121880401F05DFB102000900321B2
:102280006846417101210171817169460A48FFF771
:10229000AEFE2020009003216846417101210171AA
:1022A000817169460448FFF7A2FE20200249886137
:1022B000102088611CBD00000004004870B508258E
:1022C000002420201149886114E06006040E1020CB
:1022D0000E492031088100F0B3F810200B498861C5
:1022E00000F0AEF80948008A20210840002801D0FB
:1022F000012004432846691ECDB20028E5D11020F4
:10230000024920310881204670BD000000040048C9
:1023100070B5044608251AE010201149088100F024
:102320008FF880202040002804D020200C4920393C
:10233000886102E020200A4908816006040E00F04E
:102340007FF8102006492039886100F079F8284686
:10235000691ECDB20028DFD110200149088170BD6F
:102360002004004810B5202014498861102088619D
:1023700000F066F81148008A002801D1012000E031
:10238000002020210840002801D0002010BD20207E
:102390000A492031088100F053F80848008A2021BA
:1023A0000840002801D00020F0E720200349203118
:1023B000088100F045F80120E8E70000000400482B
:1023C00010B510200A49088100F03AF82020084989
:1023D000088100F035F8102005492039886100F0A7
:1023E0002FF8202002492039886100F029F810BD1B
:1023F0002004004810B510201049088100F020F892
:1024000020200E492039886100F01AF810200B496D
:102410002039886100F014F808482038008A20210B
:102420000840002804D0102004490881002010BD75
:102430001020024908810120F9E70000200400482B
:10244000322001E0411EC8B20028FBD1704770B5B0
:1024500004460D46FFF786FF2046FFF759FFFFF7BA
:10246000C9FF2846FFF754FFFFF7C4FFFFF77AFFC5
:10247000611CC8B2FFF74CFFFFF7BCFFFFF71EFF60
:102480000646FFF79DFF304670BD70B506460C4608
:102490001546FFF767FF3046FFF73AFFFFF7AAFF41
:1024A0002046FFF735FFFFF7A5FF2846FFF730FF6F
:1024B000FFF7A0FFFFF784FFFFF7C2FF70BD00002A
:1024C0000FB5A9B0FE480168006802F00DFC159038
:1024D000FC480168FA48006802F006FC1490FA48CB
:1024E0000168F748006802F0FFFB1390F7480168A5
:1024F000F348006802F0F8FB1290F24801680068A7
:1025000002F0F2FB1190F0480168EE48006802F01A
:10251000EBFB1090ED480168EA48006802F0E4FB2C
:102520000F90E9480168006802F0DEFB0E90E74872
:102530000168E548006802F0D7FB0D90E3480168A8
:10254000006802F0D1FB0C902F99084602F0CCFBFA
:102550000A902E99084602F0C7FB08902C9908466D
:1025600002F0C2FB0790089902F04EFB09900A990D
:1025700002F04AFB0B9002F07FFA289028992C98E1
:1025800002F0B2FB2C9028992E9802F0ADFB2E9011
:1025900028992F9802F0A8FB2F903299084602F054
:1025A000A3FB0A903199084602F09EFB08903099EF
:1025B000084602F099FB0790089902F025FB099064
:1025C0000A9902F021FB0B9002F056FA2890289904
:1025D000309802F089FB30902899319802F084FB02
:1025E00031902899329802F07FFB329013990F981E
:1025F00002F00AFB099001208007329902F074FB77
:102600000890099902F070FB0B901299109802F053
:10261000CFFB079001208007319902F065FB0690FF
:10262000079902F061FB09903F2000060E9902F025
:10263000BFFB05900C9902F0BBFB079001208007BF
:10264000309902F051FB0690079902F04DFB08907B
:10265000099902F0D9FA0A900B9902F0D5FA27905D
:1026600014990D9802F0A4FB09900120800732997B
:1026700002F03AFB0890099902F036FB0B903F20DC
:102680000006119902F094FB05900C9902F090FB62
:10269000079001208007319902F026FB06900799E8
:1026A00002F022FB09901299109802F0ADFA0790FF
:1026B00001208007309902F017FB0690079902F07D
:1026C00013FB0890099902F09FFA0A900B9902F007
:1026D0009BFA26903F200006119902F069FB0790B3
:1026E0000E9902F065FB099001208007329902F0F3
:1026F000FBFA0890099902F0F7FA0B9014990D98DB
:1027000002F082FA079001208007319902F0ECFA7A
:102710000690079902F0E8FA099013990F9802F0D1
:1027200047FB079001208007309902F0DDFA069000
:10273000079902F0D9FA0890099902F065FA0A900F
:102740000B9902F061FA25902699084602F0CCFA1E
:1027500006902799084602F0C7FA0590069902F0FC
:1027600053FA0790FEF7DAFC0991089002F012FA8A
:102770000B910A90FDF71AFF249025982390139946
:102780000F9802F015FB012189070B9002F0ACFABB
:1027900022900D99149802F037FA012189070B90C5
:1027A00002F0A2FA21901199159802F001FB0A900B
:1027B0000E9902F0FDFA0B900C9902F025FA209088
:1027C00013990F9802F0F4FA0990012080072399D9
:1027D00002F08AFA0890099902F086FA0B903F20DD
:1027E00000060E9902F0E4FA07900C9902F0E0FA64
:1027F000099001208007249902F076FA089009993F
:1028000002F072FA0A900B9902F0FEF91F900D99EE
:10281000149802F0F9F9099001208007239902F039
:1028200063FA0890099902F05FFA0B9012991098D8
:1028300002F0BEFA099001208007249902F054FAB0
:102840000890099902F050FA0A900B9902F0DCF90D
:102850001E903F200006119902F0AAFA07900E99E7
:1028600002F0A6FA099001208007239902F03CFAB1
:102870000890099902F038FA0B900F99139802F01A
:10288000C3F9099001208007249902F02DFA0890DD
:10289000099902F029FA0A900B9902F0B5F91D90F6
:1028A0001E99329802F020FA09901D99319802F091
:1028B0001BFA0890099902F07BFA0B90219907E026
:1028C00064000020680000206C00002070000020E0
:1028D0002F9802F009FA099020992E9802F004FA34
:1028E0000890099902F064FA0A900B9902F08CF9A9
:1028F0001C901D99309802F0F7F909901F993298B1
:1029000002F0F2F90890099902F052FA0B9020991E
:102910002C9802F0E9F9099022992F9802F0E4F935
:102920000890099902F044FA0A900B9902F06CF9A8
:102930001B901F99319802F0D7F909901E99309891
:1029400002F0D2F90890099902F032FA0B9022991C
:102950002E9802F0C9F9099021992C9802F0C4F937
:102960000890099902F024FA0A900B9902F04CF9A8
:102970001A9000211C9802F08DF966D000211B9856
:1029800002F088F961D000211A9802F083F95CD036
:10299000FE491C9802F0A8F9FD490A9002F0A4F93A
:1029A0000B90FC4801680B9802F02EF9F949086079
:1029B000F6491B9802F098F9F5490A9002F094F94B
:1029C0000B90F54801680B9802F01EF9F249086077
:1029D000EE491A9802F088F9ED490A9002F084F95C
:1029E0000B90EE4801680B9802F00EF9EB49086075
:1029F000EB481C9902F078F90A90E64801680A98B9
:102A000002F002F90B90299902F0FEF82990E448AF
:102A10001B9902F069F90A90DF4801680A9802F0F0
:102A2000F3F80B902A9902F0EFF82A90DC481A99F3
:102A300002F05AF90A90D94801680A9802F0E4F8BD
:102A40000B902B9902F0E0F82B90D6482B99006858
:102A500002F04AF90990D4482A99006802F044F932
:102A60000790D24800680121C9074840059029997C
:102A700002F03AF90690079902F09AF9089009993C
:102A800002F096F9C2490A9002F02EF90B90C8485C
:102A900001680B9802F0B8F81990C2482A990068AA
:102AA00002F022F90990C0482B99006802F01CF945
:102AB0000790BF480168299802F016F90690079917
:102AC00002F0A2F80890099902F072F9B0490A9050
:102AD00002F00AF90B90B54801680B9802F094F8DF
:102AE0001890B0480168299802F0FEF80990AF48A4
:102AF0002B99006802F0F8F80790AD482A99006811
:102B000002F0F2F80690079902F052F9089009993C
:102B100002F07AF89E490A9002F0E6F80B90A2487B
:102B200001680B9802F070F817909F480168299887
:102B300002F0DAF809909D482A99006802F0D4F86A
:102B400007909B482B99006802F0CEF806900799F1
:102B500002F05AF80890099902F02AF98C490A9073
:102B600002F0C2F80B908F4801680B9802F04CF805
:102B700016901699084602F0B7F80A901799084679
:102B800002F0B2F808901899084602F0ADF80690E5
:102B90001999084602F0A8F80590069902F034F851
:102BA0000790089902F030F809900A9902F02CF881
:102BB0000B9001F061FF28902899199802F094F881
:102BC0007B4908602899189802F08EF877490860C8
:102BD0002899179802F088F8734908602899169880
:102BE00002F082F86F4908606F4801680120800791
:102BF00002F07AF801906C480168019802F074F8CC
:102C000003906A4801680320800702F06DF8019084
:102C100066480168019802F067F80290039902F093
:102C2000C7F87F21C905049001F0EEFF0590FEF77B
:102C300075FA099108905E4801680120800702F04A
:102C400053F8029059480168029802F04DF8049038
:102C5000554801680120800702F046F8029051486B
:102C60000168029802F040F80390049901F0CCFF4B
:102C70000590FEF753FA07910690099B089A01F018
:102C8000F5FD0B910A90FDF791FC4A4948604848D0
:102C900001680120800702F027F80490424801688B
:102CA000049802F021F8069040480168032080074C
:102CB00002F01AF804903B480168049802F014F8F6
:102CC0000590069901F0A0FF0790FEF727FA0991F9
:102CD000089001F083FB0B910A90FDF767FC3549E2
:102CE0000860304801680120800701F0FDFF019075
:102CF0002C480168019801F0F7FF03902A48016809
:102D00000320800701F0F0FF019027480168019837
:102D100001F0EAFF0290039902F04AF87F21C90509
:102D2000049001F071FF0590FEF7F8F90991089001
:102D30001F4801680120800701F0D6FF0290194862
:102D40000168029801F0D0FF049018480168012042
:102D5000800701F0C9FF029013480168029801F052
:102D6000C3FF0390049901F04FFF0590FEF7D6F9D9
:102D700007910690099B089A01F078FD0B910A9043
:102D8000FDF714FC0B498860084615E0A69B443B00
:102D9000A69BC43A74000020780000207C0000202C
:102DA0000000C842700000206C0000206800002075
:102DB000640000204001002040680D490B9001F0A4
:102DC00093FF0C4948600846006809490B9001F0E0
:102DD0008BFF084908600846806805490B9001F0A0
:102DE00083FF04498860012000F072F92DB000BD16
:102DF000A34C65424001002010B5702200213C2008
:102E0000FFF743FB202201213C20FFF73EFB00227D
:102E100002213C20FFF739FB0A213C20FFF717FB7A
:102E200004460B213C20FFF712FB04460C213C20FA
:102E3000FFF70DFB0446FF20C7301C49C8605D202A
:102E4000C0000861FF20C5304861194888611848F2
:102E5000D730C86116480E300862C968134A9269B3
:102E60008818C10F0918491009B2104A91841146F7
:102E70000969D2698818C10F0918491009B20B4AAB
:102E8000D18411464969126A8818C10F091849107E
:102E900009B2064A11857F20C0051146C862086341
:102EA000486360198019C0B210BD00004C010020B9
:102EB00032FDFFFFF0B51FB490B014461D461B99BC
:102EC0001A980F910E900D950C9400BF234803C8DB
:102ED0000B910A9022490D9B0C9A03C9FDF720FD26
:102EE000099108900F9B0E9A09990898FDF718FD13
:102EF00002460B460391029009990898FDF740FDA0
:102F0000059104900B9B0A9A11991098FDF715FDF5
:102F100001910090059B049AFDF7DCFF039102905C
:102F20000B9B0A9AFDF7FCFC06460F4600200D4954
:102F3000059B049AFDF701FD03910290099B089AF5
:102F4000FDF7C8FF07910690054A0799069803C246
:102F50000248C0C03046394615B0F0BD28000020F8
:102F6000300000200000F03FF0B51FB490B01446D0
:102F70001D461B991A980F910E900D950C9400BF49
:102F8000234803C80B910A9022490D9B0C9A03C950
:102F9000FDF7C6FC099108900F9B0E9A09990898B5
:102FA000FDF7BEFC02460B46039102900999089872
:102FB000FDF7E6FC059104900B9B0A9A1199109875
:102FC000FDF7BBFC01910090059B049AFDF782FF81
:102FD000039102900B9B0A9AFDF7A2FC06460F464E
:102FE00000200D49059B049AFDF7A7FC0391029070
:102FF000099B089AFDF76EFF07910690054A07990D
:10300000069803C20248C0C03046394615B0F0BD2C
:1030100038000020400000200000F03FF0B51FB451
:1030200090B014461D461B991A980F910E900D955D
:103030000C9400BF234803C80B910A9022490D9BB2
:103040000C9A03C9FDF76CFC099108900F9B0E9A2E
:1030500009990898FDF764FC02460B46039102901B
:1030600009990898FDF78CFC059104900B9B0A9A2E
:1030700011991098FDF761FC01910090059B049A4D
:10308000FDF728FF039102900B9B0A9AFDF748FC7D
:1030900006460F4600200D49059B049AFDF74DFC9E
:1030A00003910290099B089AFDF714FF079106907F
:1030B000054A0799069803C20248C0C030463946FF
:1030C00015B0F0BD48000020500000200000F03F87
:1030D000012808D10921C906898A202251400922E4
:1030E000D20691820EE0022806D10749898A012280
:1030F0005140054A918205E00349898A02225140E4
:10310000014A918270470000000400481CB501216B
:103110000320400400F00EFC2020009001216846AE
:103120000171002181710121C17103214171694641
:103130000920C006FEF75BFF0120009001216846D0
:103140000171002181710121C17103214171694621
:103150000948FEF74CFF02200090012168460171EA
:10316000002181710121C171032141716946024829
:10317000FEF73DFF1CBD000000040048FEB50446FC
:103180000D4616463146284601F0AEFD3146019007
:103190007F20C00501F00CFE2146009001F0A4FD47
:1031A0000746019901F030FDFEBD000010B5C824AE
:1031B00000202D49486200212B488162C1624C30B9
:1031C000C1800181418130E000F0EEF827480078AD
:1031D000000226494978084300B223490880234861
:1031E000807800022149C978084300B21E4948800E
:1031F0001E48007900021D494979084300B21A4966
:1032000088800846406A00228A5E80184862084624
:10321000806A02228A5E811813488162C06A12495C
:1032200004228A5E81181048C1622046611E8CB259
:103230000028C9D1C8240C49486A2146FDF710F975
:1032400000B209494882886A2146FDF709F901B2AE
:10325000054881820146C86A2146FDF701F901B29D
:103260000148C18210BD0000A80000209800002085
:1032700010B5C824002132480167416781670020EA
:103280002F49C88000212E480181418135E000F09E
:103290008BF82C48007A00022A49497A084301B287
:1032A0002748403081812748807A00022549C97A21
:1032B000084301B222484C3041802248007B000282
:1032C0002049497B084301B21D484C3081804C386D
:1032D000016F40300C22825E891840380167416FCF
:1032E0004C300222825E89184C384167816F4C3025
:1032F0000422825E89184C3881672046611E8CB298
:103300000028C4D1C8240E49086F2146FDF7A8F84B
:1033100001B20B484C3041820949486F2146FDF704
:103320009FF801B206484C3081820549886F2146DA
:10333000FDF796F801B202484C30C18210BD000082
:10334000A80000209800002010B500226B21D0209A
:10335000FFF79BF807221921D020FFF796F84222A9
:103360003721D020FFF791F840226A21D020FFF7C3
:103370008CF802221A21D020FFF787F810221B2197
:10338000D020FFF782F809221C21D020FFF77DF81A
:103390007521D020FFF75BF80446682C01D100208E
:1033A00010BD0120FCE7000010B53B21D020FFF745
:1033B0004EF8284908703C21D020FFF748F82549ED
:1033C00048703D21D020FFF742F8224988703E2105
:1033D000D020FFF73CF81F49C8703F21D020FFF7ED
:1033E00036F81C4908714021D020FFF730F8194900
:1033F00048714121D020FFF72AF8164988714221EF
:10340000D020FFF724F81349C8714321D020FFF7DB
:103410001EF8104908724421D020FFF718F80D4912
:1034200048724521D020FFF712F80A4988724621D8
:10343000D020FFF70CF80749C8724721D020FFF7CA
:1034400006F8044908734821D020FFF700F8014925
:10345000487310BD98000020F0B585B0FFF7A4FFB9
:103460005548007800025449497808435349498A2D
:10347000401A00B2514908804F48807800024E49F6
:10348000C97808434D49898A401A00B24B4948809F
:1034900049480079000248494979084300B2474940
:1034A00088800020085EFDF7ADFE44498861022057
:1034B000085EFDF7A7FE4149C8610420085EFDF7DC
:1034C000A1FE3E4908623C48007A00023A49497A26
:1034D000084301B23948403081813748807A000280
:1034E0003549C97A084301B234484C3041803248EA
:1034F000007B00023049497B084301B22F484C3021
:1035000081802D48807900022B49C97908430490B5
:103510000498FDF7DCFC04460022294BFDF730FA45
:103520000646284A284BFDF7FBF90022274B01915C
:103530000090FDF7CFFC03910290FDF77BFC80B279
:1035400004901E4940310C228A5E0C311223CB5E5E
:10355000D01AFDF757FE194948664C3102228A5E9F
:103560001423CB5ED01AFDF74DFE01461348816649
:1035700001464C3104228A5E1623CB5ED01AFDF739
:1035800041FE01460D48C1664030C07A012805D190
:10359000FFF70CFE002109484030C17207488C300B
:1035A000C07A012805D1FFF763FE002103488C3063
:1035B000C17205B0F0BD000098000020A8000020F6
:1035C00000407540A4703D0AD743424000002440AB
:1035D000FEB500250026002701F098FA3F48C08874
:1035E0003F49097849003F4A50523C4800893C49CC
:1035F000097849003C4A505238484089384909788E
:1036000049003A4A505200240DE060003549085EF6
:10361000451960003449085E861960003349085E28
:10362000C719601CC4B20A2CEFDB0A212846FCF73C
:1036300017FF2A4924228A5E801A0090FDF7E2FDD6
:1036400001902648C16A019801F04EFB0290FDF7F7
:103650008FFD00B2214908800A213046FCF700FFA7
:103660001E4926228A5E801A0090FDF7CBFD01904C
:103670001A48016B019801F037FB0290FDF778FDC5
:1036800000B2164948800A213846FCF7E9FE134982
:1036900028228A5E801A0090FDF7B4FD01900F4841
:1036A000416B019801F020FB0290FDF761FD00B233
:1036B0000A4988800A480078401C09490870084671
:1036C00000780A2801D1002008700448008F0028E3
:1036D00003D0FEF767FDFEF743FDFEBD4C01002061
:1036E00089000020880100209C010020B0010020FA
:1036F0007047000000218278002A27D0184A03234F
:103700001B02D21803789B109B00D15802789207B5
:10371000D30EFF229A400B469343194642789207F4
:10372000120E03789B07DB0E9A4011430C4A0323C9
:103730001B02D21803789B109B00D1500278D3064D
:10374000DB0E01229A40064B1A6007E00278D3068E
:10375000DB0E01229A40024B80331A607047000052
:1037600000E100E010B5002819DA1A4A03071B0F20
:10377000083B9B089B00D2588307DC0EFF23A34025
:103780009A438B071B0E8407E40EA3401A43114B88
:103790000407240F083CA408A4001A5118E00E4A9C
:1037A00003231B02D21883089B00D2588307DC0E28
:1037B000FF23A3409A438B071B0E8407E40EA3400C
:1037C0001A43054B032424021B198408A4001A5130
:1037D00010BD00001CED00E000E100E070470000BB
:1037E000FEB5FFF739FEFFF7F3FE49490020085EFA
:1037F000FDF765FB06460F4600214648464A474B03
:103800000091019030463946FFF754FB0446FDF71E
:10381000DBFA00B23E49C8800220085EFDF74FFB8C
:1038200006460F4600213B483B4A3C4B0091019025
:1038300030463946FFF798FB0446FDF7C5FA01B25A
:103840003348018101460420085EFDF738FB044639
:103850000D4600212F48304A304B00910190204600
:103860002946FFF7DBFB0646FDF7AEFA01B2284812
:1038700041812B4A416E2B480068FFF77FFC2449A9
:103880004C31C8630846C06B264908602048244A6A
:10389000816E25480068FFF771FC01461C484C30DA
:1038A0000164006C2049086019481D4AC16E1F4818
:1038B0000068FFF763FC014615484C304164406CDA
:1038C0001A49086012494C31C86B194901F00CFAC9
:1038D0000446FDF74DFC01B20D484C30C180014655
:1038E000086C134901F000FA0446FDF741FC01B2EF
:1038F00007484C3001810146486C0D4901F0F4F94C
:103900000446FDF735FC01B201484C304181FEBD53
:10391000A8000020000014409A9999999999A93F0C
:10392000CBA1C53E580000205C00002060000020B4
:10393000E4A40B3A002905D0054A52690243044B1E
:103940005A6104E0024A52698243014B5A6170474E
:1039500000100240002905D0054AD2690243044BF9
:10396000DA6104E0024AD2698243014BDA617047AE
:1039700000100240002905D0054A92690243044B19
:103980009A6104E0024A92698243014B9A6170474E
:1039900000100240FEB504460025002600200290DB
:1039A000019000900027704840680C2108400546AF
:1039B000002D06D0042D07D0082D08D00C2D2CD1B9
:1039C00028E06A4820602BE06848206028E06648CC
:1039D00040680F2189040840064663484068032177
:1039E000C90308400290B00C861C0298002803D13D
:1039F0005F48374647430BE05B48C06A0007000F4B
:103A0000401C019059480199FCF720FD704307467E
:103A1000276005E05748206002E05448206000BF5E
:103A200000BF51484068F021084005462D09524822
:103A3000405D009021680098C14061604A4840683C
:103A400007210902084005462D0A4B48405D0090B9
:103A500061680098C140A1604348006BFF210131BB
:103A60000840884202D04548E0600DE03E4840688A
:103A7000012189030840884203D0A0684008E06023
:103A800002E0A0688008E0603748006B40210840F1
:103A9000402802D03A48206102E00120C0032061A2
:103AA0003148006B10210840102802D02F48606177
:103AB00001E0206860612C48006B8007800F0028BF
:103AC00002D1A068A06119E02748006B8007800F31
:103AD000012802D12068A06110E02348006B800714
:103AE000800F022802D18003A06107E01E48006B0E
:103AF0008007800F032801D11C48A0611A48006B81
:103B0000032109040840002802D1A068E06120E0F8
:103B10001548006B0321090408400121090488426B
:103B200002D12068E06114E00F48006B0321090412
:103B3000084001214904884202D18010E06108E078
:103B40000948006B032109040840884201D1074855
:103B5000E0610548006B80210840802802D00548BC
:103B6000206200E02762FEBD0010024000127A00D1
:103B700000093D00006CDC0214000020809FD5008D
:103B80001280000070B504460D2C0ED10020204993
:103B90000870204800F026FF1E48FCF7D1FB0546C0
:103BA00029461C48FCF70AFC70BD1948007800281B
:103BB00009D1302C07DB1748047015480078401CE9
:103BC0001349087022E012480078012807D11148F3
:103BD00044700F480078401C0D49087016E00C48EE
:103BE0000078022807D10B48847009480078401CEF
:103BF000074908700AE006480078032806D10548FE
:103C0000C47003480078401C0149087000BFCBE72E
:103C100094000020F40100207047000010B500BFA0
:103C20007D21C9000D480068FCF710FC0446601EA9
:103C30000B49884201D901200CE0601E0949486106
:103C40000321081FFFF78EFD002006498861072029
:103C5000086100200028E3D110BD00000000002012
:103C6000FFFFFF0000E000E00CB500200190009095
:103C7000314800680121090408432F49086000BF4A
:103C80002D48006801214904084000900198401C1B
:103C900001900098002804D1052109030198884269
:103CA000EED125480068012149040840002802D0CF
:103CB0000120009001E0002000900098012839D1F7
:103CC00011201E4908601C4840681B49486008468E
:103CD00040684860084640687F21C9038843164908
:103CE00048600846406811210904084312494860A9
:103CF000084600680121090608430F49086000BF13
:103D00000D4800680121490608400028F8D00A48FB
:103D100040688008800008494860084640680221E1
:103D200008430549486000BF034840680C2108402B
:103D30000828F9D10CBD000000100240002002400C
:103D400004480088002804D002480088401E014929
:103D5000088070479600002010B51B4800680121BC
:103D60000843194908600846406818490840164940
:103D7000486008460068164908401349086008462C
:103D800000680121890488430F490860084640689B
:103D90003F21090488430C4948600846C06A00096D
:103DA0000001C8620846006BFF2154318843064970
:103DB00008630846406B4008400048630020886064
:103DC000FFF752FF10BD0000001002400CB8FFF8D2
:103DD000FFFFF6FE1FB501210846FFF7BBFD0F21CF
:103DE000684601700321417001218170FFF782FC58
:103DF0006846FFF77FFC1D2002900A4968468180D3
:103E000000218181C18001A90120800700F08CF888
:103E100001221146900700F07CF80121880700F08C
:103E200057F81FBDBF120000F0B587B00121880709
:103E300000F05CF8002831D0FEF744F9184800681B
:103E4000401C17490860642115480068FCF708FB0E
:103E500000291FD113498868FDF760F904460D4613
:103E600010490868FDF75AF906460F460D4948689B
:103E7000FDF754F902460B4601970096039502940C
:103E80000591049008A10E48FCF798F90C490D48DB
:103E900000F09AF80121880700F016F807B0F0BD8D
:103EA00090000020400100207075743A25322E32B7
:103EB000662C25322E32662C25332E32660D0A00F2
:103EC000C401002000380140CA430282704700004C
:103ED000002904D0028801231A43028003E00288EB
:103EE000014B1A4002807047FEFF000030B50246C9
:103EF000002000230024158A0D402B4695890D4093
:103F00002C46002B03D0002C01D0012000E0002023
:103F100030BD002A03D083890B43838102E083896B
:103F20008B4383817047000000220288154B984222
:103F300006D001239B07984202D0134B984203D12D
:103F4000124B1A404B881A43114B984203D0114B25
:103F50001A400B891A4302804B68C3620B880385A1
:103F6000084B984208D00C4B984205D00B4B984216
:103F700002D00B4B984201D18B7A038601238382B6
:103F800070470000002C0140000400408FFF00003B
:103F900000100040FFFC00000040014000440140D0
:103FA0000048014070B504460D462946204600F001
:103FB00068F900BF4021034800F097F80028F9D0C5
:103FC00070BD00000038014070B505460C4604E0A5
:103FD00021782846FFF7E6FF641C20780028F7D1F7
:103FE00070BD000000B589B001214804FFF7A2FCB4
:103FF00001218803FFF7BEFC01220921C806FEF754
:104000003EF801220A210920C006FEF738F80320F5
:1040100040020790022108A801700021817001214F
:10402000C1700321417007A90920C006FDF7DFFF19
:10403000E120400200900020019002900390059042
:104040000C20049069460B4800F0A2F801220A49AE
:10405000084800F07BF80121064800F03AF81B21DF
:104060006846017601214176817606A8FFF742FB7A
:1040700009B000BD003801400501050010B50E492A
:104080000E4800F03CF8002815D00C4800F0F4F879
:10409000C4B22046FFF776FD2146084800F0F1F84B
:1040A00000BF4021054800F020F80028F9D002495F
:1040B000024800F005F810BD050105000038014078
:1040C00010B5002300220B0C01249C402246026202
:1040D00010BD002904D0026801231A43026003E0E6
:1040E0000268520852000260704702460020D369FD
:1040F0000B40002B01D0012000E00020704770B57C
:1041000002460B4600240021002500201E04350E27
:10411000D9B201268E403146012D02D116683140B8
:1041200006E0022D02D15668314001E09668314028
:104130001C0C0126A6403446D6693440002903D021
:10414000002C01D0012000E0002070BDF8B503462E
:104150000024002600960025002018460E04340E88
:10416000CEB200960127009EB7403D46022C01D1F9
:10417000001D02E0032C00D10830002A03D006689D
:104180002E43066002E00668AE430660F8BD0000FC
:10419000F0B58BB004460D46002700200A9000269B
:1041A000206840084000206066680321090330460B
:1041B00088430646A8680643666026682A48064083
:1041C000E968686808432969084306432660A668C9
:1041D0000321090230468843064668690643A66003
:1041E00001A8FFF7D7FB2148844202D107980A9023
:1041F00007E01F48844202D108980A9001E0039822
:104200000A9020680121C903084000280CD02968C1
:104210000A9A5000FCF71AF9074629680A9A5000D2
:10422000FCF714F90E4609E029680A98FCF70EF924
:10423000074629680A98FCF709F90E4628684008DD
:10424000B04200D87F1C20680121C9030840002823
:1042500006D03807460F384606490840304307461F
:10426000A7810BB0F0BD0000F3E9FFFF003801406B
:1042700000440040F0FF00000146888CC005C00DDE
:104280007047CA05D20D02857047F8B5040C8BB291
:10429000264682B25E43104658430D0C370C360456
:1042A00000218019164679416E43370C3604801977
:1042B000264679416E438919F8BD00004900CA02BB
:1042C0000243100000D004204A0D01D00122104307
:1042D000044A490D914201D102210843012800D12D
:1042E00005207047FF070000F8B504464F1EC800C0
:1042F0000838211815461E46086849683A460623BC
:104300009A4310D02A463346FCF7E4FD3A46D200E1
:10431000083AA3181A687F1E5B68FCF701FB0622A7
:104320003B469343EED1022F23D0042F11D0062F0A
:104330002FD12A463346FCF7CDFDE36AA26AFCF78B
:10434000EFFA2A463346FCF7C5FD636A226AFCF79A
:10435000E7FA2A463346FCF7BDFDE369A269FCF79C
:10436000DFFA2A463346FCF7B5FD63692269FCF79C
:10437000D7FA2A463346FCF7ADFDE368A268FCF79E
:10438000CFFA2A463346FCF7A5FD63682268FCF79E
:10439000C7FAF8BD10B50122FDF772F910BD10B5CE
:1043A000FCF7BEFA10BD002210B5134610461146A8
:1043B000FCF7E6FA10BD0000034A10B50020110713
:1043C000FDF75EF910BD000001FDFFFF30380A283F
:1043D00001D201207047002070470000F0B504466C
:1043E0004F008E488FB07F080D460D91874228DB25
:1043F0004042381820430CD08948874203DC87426A
:1044000018D1002C16D020462946FFF7C3FF0FB065
:10441000F0BD844A844B20462946FCF75BFD0746E5
:104420000E46824A824B20462946FCF753FD3A4607
:10443000334649E00120FCF7F5FEFFF7B4FF0FB06B
:10444000F0BD7C48874243DAF920800587420BDAC9
:1044500020462946FFF732FF042801D1FFF7ACFFC1
:10446000204629460FB0F0BD22462B46104629466D
:10447000FCF730FD064602466F480F460B46062104
:104480007844FFF731FF32463B46FCF723FD0690A8
:104490006A48079132463B4604217844FFF724FFDF
:1044A00032463B46FCF716FD00225C4BFCF738FA1F
:1044B00002460B4607990698FCF762FA22462B46FD
:1044C000FCF708FD22462B46FCF72AFA0FB0F0BD98
:1044D0002046524C6900490800222346FCF738FA6E
:1044E0000022D243FDF7CCF80546024654480E465A
:1044F0000B4606217844FFF7F7FE2A463346FCF7C1
:10450000E9FC06904F4807912A4633460421784437
:10451000FFF7EAFE2A463346FCF7DCFC002223467E
:10452000FCF7FEF9059104902846314600F032FB75
:10453000089045480C46874219DB059B049A079969
:104540000698FCF71DFA02460B4621460898FCF730
:10455000C1FC2346089AFCF7E3F90122FDF790F825
:10456000304A314BFCF7E9F9304A314B4AE0002739
:104570003A460B460898FCF7D3F93A4623460A9187
:104580000E9010461946FCF7A5FC2A463346FCF768
:10459000DFF90A9B0E9AFCF7F3F905460E46059BD8
:1045A000049A07990698FCF7EBF900910490012210
:1045B00028463146FDF764F81A4A1B4BFCF7C8F948
:1045C0000E460546012221460898FDF759F8009B42
:1045D000049AFCF77FFC2A463346FCF7AEF9054601
:1045E0000E46012238462146FDF74AF80F4C174F78
:1045F00022463B46FCF7ACF92A463346FCF7A8F9BD
:1046000022463B46FCF7A4F90D9A002A00DD5DE73F
:104610000122D20751400FB0F0BD00000000F03F72
:104620000000F07F075C143326A6913C182D4454FB
:10463000FB21F93F0000E03F8C0A0000A20A0000C5
:10464000180A00002E0A00003333EF3FFB21E93F38
:10465000F0B589B004460D464800069172494008FD
:10466000884215DB7149884203DC884207D1002C5F
:1046700005D020462946FFF78DFE09B0F0BD6C48F5
:10468000002D02DD6B4909B0F0BD6B4909B0F0BDEA
:104690006A49884211DA6A4988420BDA204629467B
:1046A000FFF70CFE042801D1FFF786FE20462946BD
:1046B00009B0F0BD0026F6435DE06D0061496D086C
:1046C000884232DA6049884219DA002601233246EC
:1046D0009B0720462946FCF723F907460191012252
:1046E00020462946FCF7CCFF0022584BFCF725F961
:1046F0003A46019BFCF744F904460D463BE001268F
:104700000022524B20462946FCF70AF90746009141
:1047100000224E4B20462946FCF70FF93A46009BF3
:10472000FCF72EF904460D4625E04949884219DA7E
:1047300002260022474B20462946FCF7CBFB0022ED
:10474000424BFCF7EDF8074602910022414B204610
:104750002946FCF7F2F83A46029BFCF711F90446A9
:104760000D4608E0032622462B4600203A49FCF776
:1047700007F904460D4622462B4610461946FCF71B
:10478000A9FB07460B4602460191FCF7A3FB024634
:10479000029032480B46039106217844FFF7A4FDAE
:1047A0003A46019BFCF796FB00902D4801910521AC
:1047B0007844039B029AFFF797FD039B029AFCF74C
:1047C00089FB02460B4601990098002E0BDAFCF794
:1047D000A7F822462B46FCF77DFB22462B46FCF72A
:1047E000B7F809B0F0BDFCF79BF822462B46FCF762
:1047F00071FB1C4AF6007A4493191A685B68FCF74F
:104800009CF822462B46FCF798F8174A7A449319ED
:104810001A685B68FCF79CF8069A002AE1DA012224
:10482000D207514009B0F0BD000010440000F07FF5
:10483000182D4454FB21F93FFB21F9BF0000DC3F58
:104840000000203E0000F33F0000E63F0000F03F84
:10485000008003400000F83F0000F0BF2A0800007D
:10486000EC0700008607000050070000F0B51FB4F9
:10487000039B54425D00164626439C46F40F6D0888
:104880004B004E4E5B082C438E46B44205D847423F
:104890000743FC0F1C43B44204D96346FFF77FFD76
:1048A00005B0F0BD464E6644164309D0CC0F6646AF
:1048B000B61702273E40264304461C4304D00BE0B3
:1048C000FFF7C6FE05B0F0BD002EFBD0012EF9D0DB
:1048D000022E32D0032E34D014462C430BD0374C4A
:1048E000A54216D1A3420AD1012189078D438B43EA
:1048F000194603950DE0704600280FDB25E0314F87
:104900007F44002E0ED0012E10D0022E15D0032E83
:1049100017D0A3421DD17046002816DA2A482B4929
:1049200005B0F0BD7968386805B0F0BD012279683E
:10493000D2073868514005B0F0BD2348244905B07E
:10494000F0BD2148234905B0F0BD1F48224905B0FC
:10495000F0BD5B1B1B153C2B02DD1B481E490FE005
:104960006446002C05DA3C24E34202DA00200146CA
:1049700006E0039BFCF704F849004908FFF768FECE
:10498000002EE4D0012E0BD0144A154B022E0CD071
:10499000FBF7D3FF0C4A0E4BFBF7CFFF05B0F0BD82
:1049A0000122D207514005B0F0BDFBF7C6FF064A11
:1049B000074BFBF7CDFF05B0F0BD00000000F07F16
:1049C000000010C0F4060000182D4454FB21F9BF6C
:1049D000FB210940FB2109C0FB21F93F075C14338F
:1049E00026A6A13C10B5044616A12046FBF7EAFC1A
:1049F000002803D101211448C17222E013A12046EE
:104A0000FBF7E0FC002804D101210F484C30C172B3
:104A100017E010A12046FBF7D5FC002803D10120A8
:104A20000D4908870DE00DA12046FBF7CBFC0028BF
:104A300007D109490887002103484C30C1724C381E
:104A4000C17210BD61636300E80000206779726F76
:104A5000000000006D6167004C0100206F766572F8
:104A6000000000000349088000BF024909880029AE
:104A7000FBD1704796000020FEB504463F21090691
:104A8000204600F031F9029025462E4670100B4961
:104A90000E1A35462946029800F026F9294600905C
:104AA00000F022F9FF218905019000F075F9074611
:104AB000294600F019F905462846FEBDDF59375F43
:104AC000FFF7ACF8FDF7D4FBFEF720FBFFF78AFAFF
:104AD00007E00BA10C48FFF777FA7D20C000FFF735
:104AE000C1FFFEF731FC0028F3D1FEF7C1FBFEF752
:104AF0005DFBFEF781F9FFF76DF900BFFEE70000EF
:104B00006661696C640D0A000038014010B503212C
:104B10003C20FDF79CFC1D49087004213C20FDF75A
:104B200096FC1A49487005213C20FDF790FC174976
:104B3000887006213C20FDF78AFC1449C8700721C3
:104B40003C20FDF784FC1149087108213C20FDF749
:104B50007EFC0E49487108460078000249780843F7
:104B600000B20B49C8800948007900020749497919
:104B7000084300B2064908810448807800020349CE
:104B8000C978084300B20249488110BD8100002065
:104B90004C010020F8B506460C46FCF7A1FD0500C7
:104BA0000F4600D00120014349000B484908411A33
:104BB000C90F0DD0002E01D0012100E000210C43CF
:104BC00061004908401AC00F02D10120FCF72AFBFE
:104BD00028463946F8BD00000000F07F10B50029D6
:104BE0000AD00878002807D005487844FBF7EAFB8C
:104BF000002801D0002010BD0248784410BD0000FC
:104C0000CA040000C204000070B501250400ED07CD
:104C10004C4020D4441A01D2001B0919C60D4B0088
:104C2000F2B2FF2A29D01B0E2CD000020C02D31A9C
:104C30002C43DC402843051910D2280A02D3401C1B
:104C40006D0611D0761EF6058019FF2A00DA70BDB8
:104C5000C00DC00570BD694000F0B0F801200543EB
:104C6000C541521C761CE8E764089C40C9016140BC
:104C70008900E7D10124A043E4E71B0E440200D0E1
:104C8000034870BD002AFCD1C00FC00770BD00BF33
:104C90000000C07F01230200DB050A430DD4DA4285
:104CA00003D49A4207D488427047D84214D4D942D8
:104CB00012D48842704780427047DA4203D59A4244
:104CC000F9D5814270475B004200DA4204D24A00C3
:104CD000DA4201D28142704710B5024AFCF780FDEA
:104CE00010BD00BF0900120470B5420064414B00C2
:104CF0005C41120E39D01B0E38D0FF2A3CD0FF2B5E
:104D00003AD040024902400A490A060045184E437B
:104D1000000A090AD2184843ED017F3A0104731AC8
:104D20004019190C4318990F04D001215B08490759
:104D30005B1A521CD80904D3401CF50301D19D060F
:104D400007D0FF2A08D2D50506D0E4072043401932
:104D500070BD0125A843F4E7002A01DCE00770BD1F
:104D60002402FF202043C00570BD1B0EFF2A03D084
:104D7000FF2B01D0E00770BDFF2645003606B54287
:104D800006D84D00B54203D8D218FF2A00D0E7E775
:104D9000004870BD0000C07F70B50125ED07684078
:104DA00004004C4002D5694000F008F8FFF732FFDC
:104DB00070B501250400ED074C4022D4441A02D2FC
:104DC0006C40001B0919C60D4B00F2B2FF2A4BD0F4
:104DD0001B0E50D000020C02D31A2C43DC40A84317
:104DE000051B05D5AD0019D36D08761E521E37D0B0
:104DF000F605280A01D2801970BD70416D0603D0F6
:104E000070BD6940FFF706FF9C4009026140490000
:104E100001D0401E70BD0124A04370BD6D081DD09F
:104E200001202B0C01D12D0410302B0E01D12D02AD
:104E300008302B0F01D12D01001DAB0F01D1AD00AA
:104E4000801CEB0F01D16D00401C6D00361A121A48
:104E5000680AF5054019012A02DB70BD002070BD0B
:104E6000C036300AC00770BD1B0E440201D1FF2BB3
:104E700000D1024870BD002AF0D070BD0000C07F94
:104E800003B402487844844603BC604743C5FFFF2F
:104E900080807F7E7D7C7B7A797877767675747377
:104EA000727171706F6E6E6D6C6C6B6A6A69686836
:104EB000676666656464636362616160605F5F5ECC
:104EC0005E5D5D5C5C5B5B5A5A5959585857575642
:104ED00056555555545453535252525151505050A7
:104EE0004F4F4F4E4E4D4D4D4C4C4C4B4B4B4A4AF9
:104EF0004A4949494848484747474746464645453D
:104F00004544444444434343434242424241414175
:104F1000555555555555C53F7D6FEB0312D6D4BF3A
:104F20005544880E55C1C93F3B8F68B52882A4BF40
:104F300088B20175E0EF493F09F7FD0DE13D023F01
:104F40004B2D8A1C273A03C0C88A599CE52A004089
:104F500059018D1B6C06E6BF82922EB1C5B8B33FD6
:104F60004FBB610567ACDD3F182D4454FB21E93F81
:104F70009BF681D20B73EF3F182D4454FB21F93F70
:104F8000E2652F227F2B7A3C075C143326A6813CF6
:104F9000BDCBF07A8807703C075C143326A6913CA1
:104FA000C4EB98999999C9BF711623FEC671BCBF0D
:104FB0006D9A74AFF2B0B3BF9AFDDE522DDEADBF75
:104FC0002F6C6A2C44B4A2BF0D5555555555D53F8D
:104FD000FF8300922449C23F6E204CC5CD45B73FA8
:104FE000513DD0A0660DB13FEB0D76244B7BA93F20
:104FF00011DA22E33AAD903F00000000000000000B
:1050000002400000000000A0000000000540000079
:10501000000000C8000000000C4000000000409CA0
:1050200000000000194000000020BCBE000000008D
:1050300034400000BFC91B8E00000004B5400000D2
:10504000504BCFD06607E2CF010000006C4100005A
:105050003E8251AADFEEA73401000000D9420000D1
:10506000DCB5A0E23A301F97FFFFFFFFB445000018
:10507000FD25A0C8E9A3C14FFFFFFFFFFF3F0000D0
:105080000000008000000000FF3F000000000080E2
:1050900000000000D0500008000000209800000030
:1050A000040100086851000898000020D0070000A3
:1050B000200100081C00000043000000F8FFFFFF73
:1050C0000C0000000E0000000F0000002E00000089
:1050D000006CDC020000000000000000010203047C
:1050E000060708090000000001020304010203048E
:1050F0000607080900000000000000000000000092
:10510000000000000000000000000000000000009F
:10511000000000000000000000000000000000008F
:10512000000000000000000000000000000000007F
:10513000000000000000803F0000000000000000B0
:10514000000000000000000000000000000000005F
:10515000000000000000000000000000000000004F
:08516000000000000000000047
:04000005080000C12E
:00000001FF
