:020000040800F2
:10000000B80C002099010008E1400008FD2B000811
:1000100000000000000000000000000000000000E0
:100020000000000000000000000000005B47000826
:100030000000000000000000CD41000881480008D9
:10004000AB010008AB010008AB010008AB010008E0
:10005000AB010008AB010008AB010008AB010008D0
:10006000AB010008AB010008AB010008AB010008C0
:10007000AB010008AB010008AB01000869490008AA
:10008000AB010008AB010008AB010008AB010008A0
:10009000AB010008AB010008AB010008AB01000890
:1000A000AB010008AB010008AB010008B94B000828
:1000B000994C0008AB010008AB010008AB01000837
:1000C00000F002F800F059F80CA030C808382418E5
:1000D0002D18A246671EAB4654465D46AC4201D180
:1000E00000F04BF87E460F3E0FCCB6460126334259
:1000F00000D0FB1AA246AB4633431847F85B00001A
:10010000185C0000103A02D378C878C1FAD85207B8
:1001100001D330C830C101D504680C6070470000BD
:100120000023002400250026103A01D378C1FBD813
:10013000520700D330C100D50B60704710B5662957
:1001400002D105F0CBFC10BD642902D100F07CF88F
:1001500010BD002010BD1FB501F030FD04000020CF
:10016000002105F069FB401C60600020002105F0C3
:100170004DFBE0601FBD10B510BD02F04DFA1146F9
:10018000FFF7E9FF05F0ACFA02F06EFA03B4FFF7EF
:10019000F2FF03BC02F09EFA074880470748004779
:1001A000FEE7FEE7FEE7FEE7FEE7FEE70448054957
:1001B000054A064B7047000099480008C100000836
:1001C000B8060020B80C0020B8080020B8080020AD
:1001D0000FB41CB5074B06AA7B44694600900598EE
:1001E00001F095FB0020694601F0A4FB1CBC08BC93
:1001F00004B018475917000070B5044685690068B7
:10020000C10601D5302600E02026C00707D070BD0A
:1002100062683046A1689047206A401C20626D1ECB
:10022000F6D570BD70B5044685690078C00707D162
:1002300070BD6268A16820209047206A401C20623F
:100240006D1EF6D570BD0000F7B500257529106844
:10025000009914A611D0C046C046002802DA4042D8
:1002600011A608E0009909688A0701D50FA602E0E7
:10027000490704D50EA6012501E0C046C046009FEF
:100280000024243704E001F0A3FB30313955641C0D
:100290000028F8D12B4632462146009801F0D0F8CC
:1002A000FEBD0000000000002D0000002B0000003B
:1002B00020000000F3B50446002081B020622046F3
:1002C000E168884700287AD0252802D06268A168B2
:1002D00071E0E16820460025884706460020E0617D
:1002E0000746A0612A2E0AD0304604F07FFE00287F
:1002F00027D0B8000019303E0090866119E00298BE
:10030000BA00121902C8916102902046E16888473C
:10031000012F064617D1E06900281FDA2020854307
:100320001CE000980A218069484300998019303800
:1003300088612046E1688847064604F057FE002899
:10034000EFD1012F0AD02E2E08D12046E168884730
:100350000646202005437F1C022FC3DBA06900282E
:1003600003DA4042A06101200543E80701D01020D4
:100370008543002E23D030464138192803D8012068
:10038000C00205432036204625603146029A1546B4
:10039000FFF7D4FE00280BD0012806D0ED1DE80899
:1003A000C000083002908AE709E02D1D029586E71B
:1003B00062683046A1689047206A401C7EE7206A48
:1003C000FEBD00000FB400B58DB010A909900B90D0
:1003D0000020C04300910A9000200C900748784408
:1003E0000690074878446A4607900F9909A801F0DB
:1003F000BBFA0DB008BC04B018470000AB150000F4
:10040000C5150000FFB51D460027FF4383B05C689B
:10041000002001909E68A96904987F1C884700907D
:10042000296A88470028F6D10098401C0CD0032088
:1004300040028443002E19DD600614D500982B2855
:1004400009D02D280FD103E00020C04307B0F0BD34
:10045000012080020443A96904987F1C8847761E06
:10046000002E009002DD0098302803D00598002867
:1004700025D035E00120A96940020443761E049886
:100480007F1C8847002E009003DD782805D058286F
:1004900003D00598002810D022E00598002801D04C
:1004A00010281DD10120A96940028443761E0498BA
:1004B0007F1C88470090102002E0082000E00A20FE
:1004C00005900DE00121059A49020C430199761E21
:1004D000514308180190A96904987F1C884700902F
:1004E000002E05DD0599009801F029FA0028E9DAC7
:1004F000E96904988847A00502D40120C043A5E714
:10050000E00722D1600611D56005019800D5404270
:1005100029680A1D2A600968220501D5087014E0BF
:10052000220701D5088010E008600EE02868011D50
:1005300029600068210502D50199017005E02107B5
:10054000019901D5018000E0016038467EE7000096
:1005500030B5441C03E00178401C00290DD0810710
:10056000F9D10B4BDD0104C8D11A91432940FAD0CF
:10057000001B0A0603D0C01E30BD001B30BD0A049C
:1005800001D0801E30BD0902FCD0401E30BD0000ED
:100590000101010101E004C0091F0429FBD28B07FE
:1005A00001D50280801CC90700D002707047002965
:1005B0000BD0C30702D00270401C491E022904D38D
:1005C000830702D50280801C891EE3E70022EEE744
:1005D0000022DFE7024670B50A4392072AD11E4D7A
:1005E000EE0104C808C9541B9443344017D0D0B25C
:1005F000D9B2401A2106014310D190B299B2401AE3
:10060000210401430AD110021902000A090A401A02
:100610002102014302D1100E190E401A70BD9A42F8
:10062000DFD010BA19BA884201D9012070BD00206C
:10063000C04370BD02780B78401C491C002A09D0C9
:100640009A4207D102780B78401C491C002A01D03D
:100650009A42EFD0D01A70BD0101010100220309B6
:100660008B422CD3030A8B4211D300239C464EE0CD
:1006700003460B433CD4002243088B4231D3030989
:100680008B421CD3030A8B4201D394463FE0C3093B
:100690008B4201D3CB01C01A524183098B4201D353
:1006A0008B01C01A524143098B4201D34B01C01A3E
:1006B000524103098B4201D30B01C01A5241C308B6
:1006C0008B4201D3CB00C01A524183088B4201D325
:1006D0008B00C01A524143088B4201D34B00C01A11
:1006E0005241411A00D201465241104670475DE026
:1006F000CA0F00D04942031000D3404253400022A9
:100700009C4603098B422DD3030A8B4212D3FC2251
:10071000890112BA030A8B420CD3890192118B42D0
:1007200008D3890192118B4204D389013AD09211E6
:1007300000E08909C3098B4201D3CB01C01A5241A1
:1007400083098B4201D38B01C01A524143098B426A
:1007500001D34B01C01A524103098B4201D30B0153
:10076000C01A5241C3088B4201D3CB00C01A524178
:1007700083088B4201D38B00C01A5241D9D243085F
:100780008B4201D34B00C01A5241411A00D201469C
:10079000634652415B10104601D34042002B00D506
:1007A0004942704763465B1000D3404201B50020C8
:1007B000C046C04602BD7047704770470246C80F2A
:1007C000C00781434B0030B54B405B009B0D20D0F0
:1007D0001923DB06C91801231B05994220DB0324DA
:1007E000A40704251346AB400BD3002B04D1EB0622
:1007F00013409B00E34204D4012464070023121930
:100800005941FF231B0599420BD2C9000143500FE8
:1008100009E0CB0204D501430803024305D0054893
:1008200030BDFF21C905084330BD08460721090531
:10083000884330BD0000C07FF0B50C46871A9C414C
:100840000D46861A9D4103D2C01BA141D2196341B6
:100850000D0D1F0DC94EEC1BAE435CD07F057F0D07
:100860000026002F51D02D05AC46A943DD020123FF
:10087000ED0A1B051D4320231B1B24D41746E7400C
:10088000381871412F46E740CC199D402818314651
:1008900061410C0D27D161449A4013D50023401CBF
:1008A000594152000ED14008400001224B00520530
:1008B000D34207D305204007C14201D5B04900E02B
:1008C000B0493046F0BD6B00002A00D001229A18D2
:1008D0001F23203C1B1B01D5002302E0E540281804
:1008E00071410C0DD7D0012424050919C407CD0787
:1008F00040084908E40F28436144002CD5D0002467
:10090000401C61419A40D0D1CDE76A05520DD9D142
:10091000C90FC907D5E79C4D4E00002801D001241E
:1009200000E0002434195F00002A01D0012600E015
:100930000026BE19954FAC420CD8AE420AD8B4423C
:1009400006D001256D05EC42BCD010461946F0BD1D
:100950009942FCD000203946F0BDF0B51FB40C46DA
:100960000F46811A9F412546861A9D4106D20125D0
:10097000ED076F40401ABC4152187B41210D1E0DFE
:100980008D1BAC467D4D8D437ED075056D0D7CD0A5
:100990000D05AE46AC431B031B0B794D52429D41E6
:1009A000202366469B1B14D31746F74038180026B1
:1009B0000090744160462F460741E41900989D401D
:1009C0002818664116D4714671189A4025D501231E
:1009D00020E093182A466A415200002B00D0521C96
:1009E0001E23203E9B1B002B61DD3541EE1728188E
:1009F0006641E8D5001876415B1C9A4000D3401C44
:100A00004B05F3181524E34010D3002B52D0714648
:100A10007118D30FC01802D3491C05B0F0BD0123D3
:100A2000DB079A42F9D140084000F6E7012252055F
:100A3000B21801D1002853D00123CC0ADB0299431C
:100A4000891E002A08D1020C03D0020C00041039C0
:100A500002E00246002020390023550B05D1120286
:100A60000823550B01D152010D23550C01D1120160
:100A70001B1DD50C01D192009B1C150D01D15200FC
:100A80005B1C2025EE1A01E02CE022E00546F54033
:100A900015439840CA1AE10769181305C918002AB6
:100AA000BBDA032040070818C10FC9070FE07146E1
:100AB0006118B2E7F10740080843711071444A0019
:100AC0000CD001235B059A42A7D2C90FC9070020A9
:100AD000A3E74905490D26D1002001E00028F4D103
:100AE00000219AE7284D6600002801D0012100E08E
:100AF000002171185F00002A01D0012600E00026C5
:100B0000BE19224FA94210D8AE420ED8B14208D029
:100B100001256D05E94206D01946A802414010465C
:100B20007BE79C4201D0214677E70020394674E7F5
:100B300010B50C465C4005D50124E4076340FFF77F
:100B40000CFF10BDFFF778FE10BD30B40C465C40C2
:100B500004D50124E407634030BC6DE630BCFCE6FC
:100B600070B50124E40761400D465D4002D4FFF7F3
:100B700063FE70BD6340FFF7F0FE70BDFF0700002D
:100B80000000F0FF0000F07F0000E0FF0000F87FB1
:100B9000F0B5F94D0C091E092C402E402F468BB0A4
:100BA000A7437DD0B543FCD0002E7AD0002CFCD0DA
:100BB0000D465D40ED0F2543AC1BFF25AD046419C8
:100BC0000894C502440DC9022143500DDC020443C0
:100BD0000120C00701430443D2020191200C110CF3
:100BE00000958C46010423468B430A916146090413
:100BF000E24D8A430991010A7D44491980390978F7
:100C000005464D4301266D18F605751B6943C90C51
:100C1000640B891C4C436418B5012C1B250C2E0455
:100C2000B4434C434D43210C691889090591009D3B
:100C3000E90701D00121C90704912C4601996708F1
:100C4000CD072F434C08059DE10B4D432D0C294644
:100C50006646754302950D4645432E46029D7D1B13
:100C6000B44100950D465D4301942C0C2F040D46B4
:100C70005543AE462D0C3D43029503947546049CA6
:100C80002D04641B049406D2029C039D641C002660
:100C900075410395029401AC70CC009F7D1B01E06F
:100CA0003EE162E1B4410904009507910194059980
:100CB000A4086143090C0C464443650BE7040C4649
:100CC00066467443A646640B3C43039502947446FF
:100CD000049DE4042C1B049406D2029C039D641C16
:100CE000002675410395029401AC70CC009F7D1BDA
:100CF000B44101940C465C430095650FE7000C4637
:100D00005443A646640F3C43039502947446049DE5
:100D1000E4002C1B049406D2029C039D641C002654
:100D200075410395029401AC70CC009F7D1BB441CA
:100D3000AE09AF06049DC900AD092F43049DA4066A
:100D4000AD060495079D344369180791059DE10B95
:100D50004D432D0C29466646754302950D46454385
:100D60002E46029D7D1BB44100950D465D430194C6
:100D70002C0C2F040D465543AE462D0C3D430295D9
:100D800003947546049C2D04641B049406D2029CB3
:100D9000039D641C002675410395029401AC70CC40
:100DA000009F7D1BB44101948C050694079C890A21
:100DB000611800950791019C0599A4086143090CED
:100DC0000D464543680BEF040D46644665436C0BC6
:100DD0003C43049FED047D1BAC4602D20025641CFD
:100DE0006841009E019D371B854108465843019587
:100DF0000C46460FC5005443600F28436546E40087
:100E00002C1B02D20025401C6E41019D3F1AB541AA
:100E10002846BD09800628438446A009BF064E0225
:100E20000699A40676180743079D002068410A9991
:100E3000079019430020099B00906046FF19134357
:100E40004041E20F64003A43A4460446D71A8C415D
:100E5000A04203D90120009020463A46C70F9418BB
:100E600040416246D20F2243644664000494009CD1
:100E7000BE466400D71AA446044602978C417746C2
:100E8000002F01D1A04204D96046401C8446029A3A
:100E90002046C40FA64694184041049A0546D20F36
:100EA000224364466400D31A8D417146002901D162
:100EB000A84202D928461A46641C10430122002881
:100EC00000D0164361020020079B891904465C414B
:100ED0000223002C02DB491813466441089DCE0A08
:100EE0002D145D194B056705E10A2C050D190899AC
:100EF0003E43C9076940002B08D0934006D3002227
:100F0000761C5141002B01D1760876001C4A002D39
:100F100043DB154241D0AA433FD030460BB0F0BD71
:100F200006180D464D41174C7642AC411AD3951820
:100F30001C465C41134A6D42A24113D30122520563
:100F40004C00D4420AD15C00D4420BD04B4002D5B5
:100F500092021143E2E749004908DFE75940C90F0F
:100F6000C90718E000200849D8E7054801420DD11B
:100F70000342F7D0F2E700000000FF07F04E000048
:100F80000000F07F0000E0FF0000F87F11485940AA
:100F90000143C01241400020C0E70123089A9B068C
:100FA0009A4205DC032252078918C90FC907B5E721
:100FB000052252078918074A1143D2125140ADE762
:100FC00070B515461C4602460B4628462146FFF7DB
:100FD000DFFD70BDFFFFFF7F30B50346CA02400D45
:100FE0001043164D164C0A1502D02043002A06DB8A
:100FF000AA1A002A12DDD040FF2A0BDC30BD5205B0
:10100000520D01D140004008AA1A07D4D0404042F6
:10101000FF2A01DD002030BD0028FCDD4A00002B46
:1010200001D0012000E00020101801225205D0421A
:10103000F0D8C817C043604030BD00001E04000057
:10104000000000800346CA02400D10B510430A1587
:1010500004D00124E4072043002A05DB0A4CA21A2D
:1010600004D4D040FF2A00DD002010BD4A00002B30
:1010700001D0012000E00020101801225205D042CA
:10108000F2D8C817C04310BD1E0400001F22030C75
:1010900002D10F22000402D0030E03D004E000208E
:1010A000014670470002083A030F01D10001121FE8
:1010B000830F01D18000921E002801DB4000521EE8
:1010C000120551184205C012411810467047C10F51
:1010D000C90700D04042012292071143D6E70121FF
:1010E0008907D3E7F0B58B4C0F09254689B0BD437E
:1010F0007BD01D092646AE43FAD00E465E402740FF
:10110000F60F3E43254071D024012142FBD0FF243D
:10111000AD19A4042D1B039501252D05DB02DB0A67
:10112000C9022B43C90A29431E010901040F130FE9
:10113000050121431701880B820391432D098C4639
:10114000A90B1E438A039543B30B9A0396433F09A9
:10115000BA0B9403A74302962E467E430497B646E5
:101160004E19D7190C460196544305977E43371BF9
:101170007646BF1B3601B646BE0B3619009676463C
:10118000BC043719009C01D3641C00946400002F38
:1011900001D001263443029E049F754366467E4378
:1011A0000496760034196E0034190094029C019E56
:1011B0001C196643751BAE46069465464519059C89
:1011C00005956C43594375460891691A0191049E2F
:1011D00001465143A41B0491611A009C0791E1064A
:1011E00005D061090122114302E072E06EE061095D
:1011F000089D00272C0A2D066918049D7C412A0AA7
:101200002D066918019D6241AC0DAD026D18544167
:10121000079A910D920255196141029A644658430A
:101220005443069B059A5A43121A131B9A0E9B01AC
:101230005B187A41010B0005C3185141220A2006B0
:1012400044195A419A4200D2491C0120400281426D
:1012500003D315230226F64302E014230326F643A4
:101260002020C51AA9401746AF40DA400A4320465D
:101270000399D8400914731819055118039A384373
:10128000D2075140AC4009D00122944006D300223D
:10129000401C5141002C01D1400840001E4A93429D
:1012A00012D3012203989206904207DB05204007E3
:1012B00009181A480143C012414004E003204007C6
:1012C0000818C10FC907002009B0F0BD0020F107C0
:1012D000FAE705180C464C4111486D42A04115D360
:1012E00094181A465A410E48644290410ED3012088
:1012F0004A004005824209D35A00824206D359402F
:10130000C90F084AC90700201143DDE7002006493C
:10131000DAE700000000FF07FE070000FFFFFF7F85
:101320000000E0FF0000F07F0000F87F0121C90508
:101330000123411842001B06D3185B0E0AD0C110CE
:101340000722D206891840075242D14201D55200E5
:1013500089187047090208D50146002A03D0C10F39
:10136000C9070020704710467047420202D0002093
:1013700002497047072109050143F4E70000F87F9F
:1013800010B501469E240002CA15A307002A02D008
:101390001843002A04DBA21A002A0CDDD04010BD3D
:1013A0001206120E01D140004008A21A03D4D04008
:1013B00040420028F3DDFF2248001206904201D986
:1013C000002010BDC817C043584010BD1F22030C99
:1013D00002D10F2200041CD0030E01D10002083AF2
:1013E000030F01D10001121F830F01D18000921E53
:1013F000002801DB4000521ED2055118021251187C
:101400001922904004D3491C002801D14908490001
:1014100008467047C10FC90700D040420122920719
:101420001143D3E701218907D0E710B500F0CAFBCB
:10143000006810BD10B5044600F0C4FB046010BD88
:10144000FFB504460D4681B024300090216888061F
:1014500004D51022E0699143216000E00120A842F8
:1014600001DD471B00E000270498A1697A191018D4
:10147000081AA0612078C00602D42046FEF7BCFE00
:10148000002608E003986268A168805D9047206AA2
:10149000401C761C206204988642F3DB2078C0064C
:1014A0000AD52046FEF7A8FE06E06268A168302053
:1014B0009047206A401C206238467F1E0028F4DCDA
:1014C00007E000986268A168405D9047206A401C70
:1014D000206228466D1E0028F3DC2046FEF7A2FE9F
:1014E0002078000602D5022005B0F0BD0120FBE700
:1014F0007047FFB50C461E468FB003CA089009918D
:101500004F007D0D00D16D1E002108460020C04611
:101510000321099A89050840002A03DA820080180D
:1015200040080840800D01280A9002DD0020C043D9
:101530000A90089807430DD0EF48F049281848430F
:101540000714189800281DD07542291E1DDD0A9821
:1015500042421BE01898012802D00020302104E00C
:101560000020F24305E02154401CB042FBDB304632
:101570000022189B002121540F998B600A6048605B
:1015800013B0F0BDBD1B6D1CDFE70A9A002900DA1D
:1015900069420BA800F064FD0BAB07CB03AB07C39C
:1015A0000899099800F0C0FD6B4607C30146D4486E
:1015B0000918002D00910ADDD14903980A9A494281
:1015C000401803A90390684600F0D3FF07E0039991
:1015D0000A9A081803A90390684600F0A0FF6B461A
:1015E00007C30004000C03D00020C043410800E002
:1015F0001046189A002A03D00022009215461EE0D9
:10160000751E05D400F0E2FA303262556D1EF9D530
:1016100001220843079602D000227F1C04E02078B4
:10162000302801D100227F1E002A069789D01EE0B3
:10163000112D07DA00F0CAFA303262556D1C0246ED
:101640000A43F5D1084303D00098002819D00EE0D2
:101650000021681E05E0235C625C63542254401E36
:10166000491C8142F7DBA81B401E07950690079A8C
:1016700018990020A0540F98079B069A81600CC00F
:101680007EE71126002018905BE7D21DF0B50D46CD
:101690000446D10893B0C90003C90C900D9103F022
:1016A0001DFC02460D98C00F01D02D2007E02068D8
:1016B000810701D52B2002E04007C00F4001032A1B
:1016C0000F9001D0072A05DB03462946204600F08B
:1016D000C3FA0EE12078800601D5E76900E006270D
:1016E0002846652D04D0662814D0672D69D12DE0D9
:1016F0000020112F009001DB112300E07B1C0CAABD
:1017000003A910A8FFF7F5FE1199002610987D1C7B
:101710000E9142E001203B460CAAC0070B9001202D
:10172000009003A910A8FFF7E4FE119D12981099EC
:10173000002600280E9501D1781C0D18781B02D4C4
:1017400046427D1C761EE81B00903AE0012F00DA2D
:1017500001270020112F009001DD112300E03B46FE
:101760000CAA03A910A8FFF7C4FE11993D461098D2
:1017700000260E91217809070BD40E99A94200DAB0
:101780000D4603A9012D04DD4A19203AD27F302AE3
:1017900006D0B84201DA011D04DA012100910FE000
:1017A0006D1EEFE7002802DC86192D1A03E0411CAC
:1017B000A94200DD0D46801B401C00900120C0079F
:1017C0000B902078000705D40098A84202DB002087
:1017D000C043009069460020C8720B98012102AFF7
:1017E0000337C907884225D0022010902B20119082
:1017F0000B9800280BDA40420B902D20119006E048
:101800000B9800F0E5F830317F1E0B90397010997D
:10181000481E00291090F3DC0B980028F0D1119895
:101820007F1E38702088000501D5452000E0652026
:101830007F1E387001A8C01BC01D0B900F98002898
:1018400000D0012041190098C01709180B980818FA
:10185000A169081A401EA0612078C00602D4204663
:10186000FEF7CAFC0F98002805D06268A16890476F
:10187000206A401C20622078C00625D52046FEF74D
:10188000BBFC21E0002E07DB0E98B04204DD03A86C
:101890006268805DA16802E06268A16830209047BC
:1018A000206A761C401C20620098401E0028009090
:1018B0000AD100F083F9C06862680168405CA168E1
:1018C0009047206A401C206228466D1E0028D9DC03
:1018D00007E062683878A1687F1C9047206A401C46
:1018E00020620B99481E00290B90F2DC2046FEF77F
:1018F00099FC032044E6000001FCFFFF104D0000AE
:10190000E1DFFFFF01694A1C02610878704700B5FA
:101910008FB002910021059105490193794403910B
:10192000114604906846FEF7C5FC0FB000BD0000EC
:10193000E5FFFFFF0A681070521C0A6070473A28E2
:1019400000D23038202302469A43412A01D3104660
:101950003738884201D30020C043704702685118CD
:10196000137801601846704710B5D1600549794475
:10197000516105497944116200211161114600F05D
:10198000AFF910BDEBFFFFFFCF0200004268002A55
:1019900008D001680B78491C002B03D0521E06C0EA
:1019A000184670470121C160881E70474268002AAE
:1019B0000BD0C3680168002B07D183688B4204D029
:1019C000491E521C06C0002070470020C0437047CB
:1019D00001468008081A02091018020A1018020CA1
:1019E0001018C008820012185200891A01E0401C29
:1019F0000A390A29FBD2704770B505464800440DE4
:101A0000124B0020002C0AD0634008D09A4206DA1C
:101A10006642B24203DD12054019514170BD002CEF
:101A200008D0002B09D0C90FC907002AF6DB084AE5
:101A3000114370BDC90FC90770BD28460A03104382
:101A400002D00020034970BD284670BDFF0700008A
:101A50000000F07F0000F87FF0B53D4B02460C46D9
:101A60001C400020002C63D03A4D8B4366D00029E7
:101A70006BDB0B0D1D05A94301252D052943012411
:101A8000FD33E34001D392184941FF3381339C4633
:101A90008B02940D0121234389074C4292020027B7
:101AA0001B198C105D1A04D42D1B02D42B46650023
:101AB000491992185B416408F4D15C1A08D40125D5
:101AC000ED07EE175519744102D42A462346491CE6
:101AD00094185B41012292071D46E61B8D4106D4F6
:101AE000B61A854103D42B46550034467F19241974
:101AF0005B415208802AEFD1234300D002233846AD
:101B00000A22D04001D3012213438A0510436246C2
:101B1000890A12058918002B09D00122D34002D36B
:101B20000022401C5141002B01D140084000F0BD73
:101B30000B03134307D0C90FC907F0BD08031043B7
:101B400003D1002901DB1046F0BD00202946F0BD7D
:101B50000000F07F0000F87F10B5FF231B06440053
:101B60009C421DD84C009C421AD80346124A0B4393
:101B700007D4401A02D3EFF3008010BDEFF30080CA
:101B800010BD081A06D2EFF3008001219043C90767
:101B9000084302E0EFF30080904380F3008810BD1B
:101BA0000D231B041A4204D01146002000F010FD42
:101BB00010BD00F025FD10BD0000009000487047EA
:101BC0007406002000487047540600200B4670B58C
:101BD000024689078008084319469D08141AA9413E
:101BE00025090807054308092C194841250A01065B
:101BF0000D43010A2C194141200C0D0428430D0C02
:101C000000194D41002140194D41C00869070843A2
:101C1000E908840F8D002543840024184D412419C0
:101C20006D41121BAB4107E00925ED432C11521900
:101C300063410024401C61411C460A250026551BB7
:101C4000B441F1D270BD10B5044600F005FD006846
:101C5000005DC007C00F10BDF8B51F460446012344
:101C60000068DB02032601461840072A05DB00282E
:101C700001D017A506E017A504E0002801D016A59D
:101C800000E016A5102081432160A069C01E002F2E
:101C9000A06101D0401EA0612046FEF7ADFA002FE2
:101CA00009D038466268A1689047206A401C2062CB
:101CB000C01C206206E0206AFAE762682878A16802
:101CC0006D1C9047761EF8D22046FEF7ABFAF8BDA1
:101CD0004E414E006E616E00494E4600696E6600D0
:101CE000F3B50C468FB000200C90012000260E901A
:101CF00008460C3003906269039801219047050063
:101D00002ED0252D2DD0216A8847002818D0626951
:101D1000039801219047216A88470028F7D162691A
:101D2000411E0398904700E0761CA1690F988847F0
:101D3000216A88470028F7D1E1690F988847DAE7D8
:101D4000A1690F988847A842074601D1761CD2E7BF
:101D5000E1690F9888477F1C02D10C98002877D042
:101D60006BE16269039800273D46394690472A286F
:101D70000CD16269039801219047012506E00A21F0
:101D80004F433F18303FEBD410200543626903985E
:101D900001219047014630390A2903D2AC498F42CC
:101DA000DEDCECE7E90600D4AA4F6C280AD04C2808
:101DB00010D0682824D06A282ED074280CD07A2815
:101DC0000AD00DE062690398012190476C2823D066
:101DD00004211CE0202005436269039801219047FB
:101DE000A760652865604FD026DC582839D01ADCFA
:101DF000452849D012DC252834D04128B0D143E011
:101E00006269039801219047682802D008210D4398
:101E1000E6E70120C002DEE70220DCE7462833D0F7
:101E200047289DD130E05B2870D061282CD06328F2
:101E30006CD0642894D161E06F284FD009DC66280B
:101E400022D0672820D0692826D06E2817D12EE00E
:101E5000EFE070284DD073286FD075284ED07828C9
:101E60000DD154E0A1690F9888472528054600D177
:101E70006CE7E1690F9888476D1C00D16DE7DCE0E5
:101E80000A224CE00A2252E0012023466A460F99BA
:101E9000C043C046C046C5E040212846234608430B
:101EA0006060A80701D5002239E000223FE0E80782
:101EB00000D020E72068011D21600068290501D5B8
:101EC000067018E7290701D5068014E7A90703D58E
:101ED000F117066041600EE706600CE740212846D6
:101EE000234608436060A80701D5082217E00822AE
:101EF0001DE0594928460840606016E04021284608
:101F0000234608436060A807BCD5B9E715E0402127
:101F1000284608436060A80707D523461022012001
:101F20000F99C043C046C0467CE0102223460120E2
:101F30000F99C043FEF766FA74E0002163280B4650
:101F40000191009102910D9102D05B2807D03BE0F6
:101F5000E80601D40120A0600120009034E0E06890
:101F600001210D906269039890475E2807D10120F6
:101F70000190E06801210D90626903989047216902
:101F8000002906D10B4604AA8F00491C0829D35109
:101F9000FADB002851D02169002926D00298401C84
:101FA000029062690398012190475D28F1D1019860
:101FB000002808D0002004AB8100401C5A58D243AE
:101FC00008285A50F8DB04AB2069002820791CD07F
:101FD0004007029A00980D9B0092224602901F48EB
:101FE0000F991DD5C046C0461CE0C117C90E09187F
:101FF0004A114909930004AA9A184901411A136821
:102000000120884003431360CBE740072246134872
:102010000F9902D5C046C04604E0C046C04601E064
:10202000C046C04600280ADA401C06D10E98002897
:1020300003D00020C04311B0F0BD0C98FBE7E907C6
:1020400002D10C99491C0C91361800200E9052E6D2
:10205000CCCCCC0CFFFFFF7FF1F7FFFFFEFFFFFFB3
:10206000F7B516468AB02F4878446C4603467C3351
:10207000C06F5A689B680DC42A487844763003AC18
:102080000DC80DC43720C001081837211B30FEF7DA
:10209000EFFA05460C46803D1B3C02D56442012008
:1020A00000E00020002709900FE0E0070BD00C2093
:1020B0001C497843794432464C394118684600F04F
:1020C0002EFA6B4607C364107F1C002CEDD1154F10
:1020D0007F442C3F15E0E80711D02001C0190EC83D
:1020E0000691089307920068F04201D19819089070
:1020F000324606A903A800F012FA03AB07C36D101D
:10210000641C002DE7D1324669460998002803A8CF
:1021100002D000F02EFA01E000F001FA0A9B07C39A
:102120000DB0F0BDF43B0000034640000A4610B578
:10213000400D0BD00121C9070F24A40200191C0374
:1021400064082143540D2143D20207E000210120FD
:10215000F2E7D40F490021435200401E0029F8DA6B
:10216000DB0FDB07184310BDFFB50D46144685B0E5
:102170004868516802F099FE00910190A868A16832
:1021800002F093FE02910390A868616802F08DFE50
:10219000029A12188242029201D2012000E000202D
:1021A000019A0B18D2180028019202D08A4202D953
:1021B00003E08A4201D2012000E0002000990818C3
:1021C00000906868A16802F070FE029A12188242BC
:1021D000029201D2012000E00020019A0B18D218CF
:1021E0000028019202D08A4202D903E08A4201D239
:1021F000012000E00020009908180090286821685C
:1022000040004900400849084018EE49471814E0CA
:1022100001994000C90F08430090019802994000BD
:10222000C90F08430190029803994000C90F084361
:102230000290039840007F1E039000980028E7DA80
:102240000898002801D0E04E00E00026B74228DAC6
:10225000F71BF806C00E15D0029B2021091A039A1D
:102260008B401A430392029A019BC2408B401A434F
:102270000292019A009BC2408B4000991A4301923E
:10228000C14000917A110BD06B460320811A01D511
:10229000002101E0890059588700401ED951F5D529
:1022A000374603980299002800D00120014308987E
:1022B0000291002808460CD0002800D00120019986
:1022C000019A490508430121D20AC902D2020192AA
:1022D00000E001210E9B0122D207012B02D0002B2E
:1022E00003D013E0002807D116E0904204D89042B2
:1022F0000CD1019B0B4209D0019B5918019105D1CA
:102300000099491C009101D17F1C0092002803D044
:10231000102108460020C04628682168019B009AC9
:102320004840C10F0598C90739430EC009B0F0BD38
:10233000FFB587B0099A0898089953689268406871
:10234000896896460022039317469446089A1268B5
:102350005300099A5B081268520052089A1A9B4B64
:10236000D4180A9A002A01D0352200E040220692B1
:102370000022012315460492DB07059324E0002D7B
:1023800005D175460346039E4D1BB34109D37546DF
:102390006646039B491B049D9841059B7519AC46F5
:1023A0005F4163463B4308D0059B049EDD077608EA
:1023B0002E435B080496059301E0521E641EC50F70
:1023C000ED0749184041521C069B9A42D7DB002D6D
:1023D00004D17546039A6B1A824101D203200CE0A6
:1023E000039A0B466B404240134303D0014303D092
:1023F000012002E0022000E000206146019100215E
:10240000009702910A99002905D0614640020143D4
:102410006D4B019102E08007002302909C423ADA62
:102420001A1BD006C00E15D0029D2021019C091A4E
:10243000C5408C402543029C8C4000D0012425439C
:10244000019C02953D46C4408D4039462C43C14015
:102450000194009154111DD06D46022100220229E1
:102460000CD10320001B07E0002804DB8600AE59D6
:10247000002E00D00122401C0328F5DB081B02D5EA
:1024800088002A5004E08000285810438A00A85091
:10249000491EE3D51C460A98002802980CD0002853
:1024A00000D001200199019A490508430121D20A6F
:1024B000C902D202019200E00121109B0122D20741
:1024C000012B02D0002B03D013E0002807D116E027
:1024D000904204D890420CD1019B0B4209D0019B41
:1024E0005918019105D10099491C009101D1641C32
:1024F0000092002803D0102108460020C04608980A
:102500000999019A0068096848400099C30F079823
:10251000DB0723430360826041600BB0F0BD1FB551
:10252000002300920A46014601A8FFF71DFE01ABF9
:1025300007CB04B010BD1FB5012300920A46014627
:1025400001A8FFF711FE01AB0F2407CBA402C30FB4
:102550004000DB074008001B002900DB0020490089
:1025600000054908CC0A204349051843D20A114303
:10257000DFE71FB5002300920A46014601A8FFF7D6
:10258000D7FE01AB07CBD4E71FB5012300920A4663
:10259000014601A8FFF7CCFE01AB0F2407CBA40234
:1025A000C30F4000DB074008001B002900DB0020B0
:1025B000490000054908CC0A204349051843D20ABE
:1025C0001143B6E702C0FFFF013C0000FF3F0000DF
:1025D000CA0211D54A03520F002A04D0C803C043CF
:1025E000012188407047054AEFF300810801000986
:1025F000104380F3008870470020704700000030CF
:1026000010B5024800F036F810BD00000000C07F91
:1026100000487047540600207546FFF7F9FFAE46A4
:10262000050069465346C008C000854618B020B56D
:10263000FDF7BCFD60BC00274908B6460026C0C5B2
:10264000C0C5C0C5C0C5C0C5C0C5C0C5C0C5403D6A
:1026500049008D467047000010B5FFF7AFFA001D26
:1026600010BD00BFD53100000446C046C04620461C
:10267000FDF78CFD10B50C461107090F092904D090
:102680000A290AD008290CD104E011460820FFF7D6
:102690009FFF06E0510606D501E0510601D5012055
:1026A000C007214610BDD10607D501010909CC0894
:1026B0004907000E0006044309E0410F20024907C4
:1026C000000A0143200E00061D22D14101430846A5
:1026D000E7E7000001491820ABBEFEE72600020034
:1026E000704700001FB520221649174801F08CFFE3
:1026F00001A802AB03AA15A100901248FDF762FEE3
:1027000069460C20085EFEF785FE0446FEF738FE9B
:1027100000B21149488269460820085EFEF77AFE39
:102720000446FEF72DFE01B20B4881826946042063
:10273000085EFEF76FFE0446FEF722FE01B2064871
:10274000C1821FBDF405002000C0010825642C25AE
:10275000642C25642E0D0A00A8000020F8B50A4854
:102760001224045F1425455F1626865F2B462246F9
:1027700006A109480096FDF72BFD202206490748CF
:1027800001F056FFF8BD0000A800002025642C25AC
:10279000642C25642E0D0A00F405002000C00108F9
:1027A00030B5044604250B20000400F07BF80546F4
:1027B000042D17D10C480069022108430A49086119
:1027C00008464461006940210843074908610B201D
:1027D000000400F067F805460348006902218843B9
:1027E00001490861284630BD0020024004200D49FF
:1027F000C968C907C90F002901D0012010E00949A3
:10280000C96810221140002901D0022008E00549C2
:10281000C96804221140002901D0032000E00420EF
:1028200070470000002002400348006980210843EF
:1028300001490861704700000020024070B504465D
:102840000D4604260B20000400F02CF80646042E4A
:1028500011D10A480069012108430849086125800F
:102860000B20000400F01EF80646044800694008EA
:10287000400002490861304670BD0000002002405F
:102880000548006980210840002804D00348024917
:1028900048600348486070470020024023016745B4
:1028A000AB89EFCD10B503460424FFF79FFF044624
:1028B00003E0FFF79BFF04465B1E012C01D1002BB8
:1028C000F7D1002B00D10524204610BDF0B50A46F3
:1028D00000210023002400BF3DE001258D402B4650
:1028E00015681D402C469C4234D11579012D02D02B
:1028F0001579022D16D185684F000326BE40B543D9
:10290000856055794E00B540866835438560858879
:1029100001268E40B5438580858896798E40B6B273
:102920003543858005684F000326BE40B5430560EA
:1029300015794E00B540066835430560C5684F00FF
:102940000326BE40B543C560D5794E00B540C66884
:102950003543C560491C1029BFD3F0BDF0B5002335
:1029600000244D07EE0E1546B5402B46CD10AE00A7
:1029700005462035AD594E07F70E0F26BE40B5432C
:10298000CE10B60007462037BD51CD10AE003D46F3
:10299000AD591D432C46CD10AD003E467451F0BDDF
:1029A000F0B58BB001F014FC22490420085EFEF75C
:1029B00031FD04461F490220085EFEF72BFD054647
:1029C0001C490020085EFEF725FD06461A490A202C
:1029D000085EFEF71FFD074617490820085EFEF750
:1029E00019FD15490A900620085EFEF713FD1249ED
:1029F0004C3109900A20085EFEF70CFD0E494C315F
:102A000008900820085EFEF705FD0B494C31079041
:102A10000620085EFEF7FEFC0197029603950494DB
:102A200006900A98009006A80FC800F011FA0BB0A3
:102A3000F0BD00004C010020A80000201FB520229E
:102A40001649174801F0E0FD01A802AB03AA15A141
:102A500000901248FDF7B6FC69460C20085EFEF7B0
:102A6000D9FC0446FEF78CFC01B21148418269464C
:102A70000820085EFEF7CEFC0446FEF781FC01B29A
:102A80000B48818269460420085EFEF7C3FC0446B9
:102A9000FEF776FC01B20648C1821FBD1406002075
:102AA00000A0010825642C25642C25642E0D0A0045
:102AB000F4000020F8B50A481224045F1425455F8D
:102AC0001626865F2B46224606A109480096FDF78A
:102AD0007FFB20220649074801F0AAFDF8BD00004F
:102AE000F400002025642C25642C25642E0D0A009A
:102AF0001406002000A0010810B51149C968104A49
:102B000092698818C10F0918491009B20C4A9184BA
:102B100011460969D2698818C10F0918491009B20C
:102B2000074AD18411464969126A8818C10F0918E9
:102B3000491009B2024A118501F020FA10BD0000C7
:102B40004C01002010B52B482B49C8600861486132
:102B500040428861C861086200208884C884088572
:102B60007F20C005C8620863486300BF02F0E6FD2D
:102B700021488069204906228A5E904202DD0620B3
:102B8000085E88611C48C0691B4908228A5E904221
:102B900002DD0820085EC8611748006A16490A224B
:102BA0008A5E904202DD0A20085E08621248C06810
:102BB000114906228A5E904202DA0620085EC86049
:102BC0000D4800690C4908228A5E904202DA08200A
:102BD000085E08610848406907490A228A5E9042F7
:102BE00002DA0A20085E48610348008F0028BDD140
:102BF00010BD000000F0FFFF4C01002000BFFEE709
:102C00001CB50121880401F08DFB102000900321E8
:102C10006846417101210171817169460A48FFF7D7
:102C200055FE202000900321684641710121017169
:102C3000817169460448FFF749FE202002498861F6
:102C4000102088611CBD00000004004870B50825F4
:102C5000002420201149886114E06006040E102031
:102C60000E492031088100F0B3F810200B4988612B
:102C700000F0AEF80948008A20210840002801D061
:102C8000012004432846691ECDB20028E5D110205A
:102C9000024920310881204670BD00000004004830
:102CA00070B5044608251AE010201149088100F08B
:102CB0008FF880202040002804D020200C492039A3
:102CC000886102E020200A4908816006040E00F0B5
:102CD0007FF8102006492039886100F079F82846ED
:102CE000691ECDB20028DFD110200149088170BDD6
:102CF0002004004810B52020144988611020886104
:102D000000F066F81148008A002801D1012000E097
:102D1000002020210840002801D0002010BD2020E4
:102D20000A492031088100F053F80848008A202120
:102D30000840002801D00020F0E72020034920317E
:102D4000088100F045F80120E8E700000004004891
:102D500010B510200A49088100F03AF820200849EF
:102D6000088100F035F8102005492039886100F00D
:102D70002FF8202002492039886100F029F810BD81
:102D80002004004810B510201049088100F020F8F8
:102D900020200E492039886100F01AF810200B49D4
:102DA0002039886100F014F808482038008A202172
:102DB0000840002804D0102004490881002010BDDC
:102DC0001020024908810120F9E700002004004892
:102DD000322001E0411EC8B20028FBD1704770B517
:102DE00004460D46FFF786FF2046FFF759FFFFF721
:102DF000C9FF2846FFF754FFFFF7C4FFFFF77AFF2C
:102E0000611CC8B2FFF74CFFFFF7BCFFFFF71EFFC6
:102E10000646FFF79DFF304670BD70B506460C466E
:102E20001546FFF767FF3046FFF73AFFFFF7AAFFA7
:102E30002046FFF735FFFFF7A5FF2846FFF730FFD5
:102E4000FFF7A0FFFFF784FFFFF7C2FF70BD000090
:102E50000FB5A9B0FE480168006802F073FD159037
:102E6000FC480168FA48006802F06CFD1490FA48CA
:102E70000168F748006802F065FD1390F7480168A3
:102E8000F348006802F05EFD1290F24801680068A5
:102E900002F058FD1190F0480168EE48006802F019
:102EA00051FD1090ED480168EA48006802F04AFDC3
:102EB0000F90E9480168006802F044FD0E90E74871
:102EC0000168E548006802F03DFD0D90E3480168A7
:102ED000006802F037FD0C902F99084602F032FD91
:102EE0000A902E99084602F02DFD08902C9908466C
:102EF00002F028FD0790089902F0B4FC09900A99A5
:102F000002F0B0FC0B9002F0C7FB289028992C9897
:102F100002F018FD2C9028992E9802F013FD2E90A7
:102F200028992F9802F00EFD2F903299084602F052
:102F300009FD0A903199084602F004FD0890309985
:102F4000084602F0FFFC0790089902F08BFC0990FC
:102F50000A9902F087FC0B9002F09EFB28902899BA
:102F6000309802F0EFFC30902899319802F0EAFC9A
:102F700031902899329802F0E5FC329013990F981D
:102F800002F070FC099001208007329902F0DAFC0F
:102F90000890099902F0D6FC0B901299109802F053
:102FA00035FD079001208007319902F0CBFC069097
:102FB000079902F0C7FC09903F2000060E9902F025
:102FC00025FD05900C9902F021FD07900120800756
:102FD000309902F0B7FC0690079902F0B3FC089014
:102FE000099902F03FFC0A900B9902F03BFC2790F4
:102FF00014990D9802F00AFD09900120800732997A
:1030000002F0A0FC0890099902F09CFC0B903F2074
:103010000006119902F0FAFC05900C9902F0F6FCFA
:10302000079001208007319902F08CFC06900799E7
:1030300002F088FC09901299109802F013FC079096
:1030400001208007309902F07DFC0690079902F07C
:1030500079FC0890099902F005FC0A900B9902F09E
:1030600001FC26903F200006119902F0CFFC07904A
:103070000E9902F0CBFC099001208007329902F0F2
:1030800061FC0890099902F05DFC0B9014990D9871
:1030900002F0E8FB079001208007319902F052FC12
:1030A0000690079902F04EFC099013990F9802F0D0
:1030B000ADFC079001208007309902F043FC069098
:1030C000079902F03FFC0890099902F0CBFB0A90A7
:1030D0000B9902F0C7FB25902699084602F032FCB6
:1030E00006902799084602F02DFC0590069902F0FB
:1030F000B9FB0790FEF71AF90991089002F062FBFC
:103100000B910A90FDF75AFB249025982390139970
:103110000F9802F07BFC012189070B9002F012FC52
:1031200022900D99149802F09DFB012189070B90C4
:1031300002F008FC21901199159802F067FC0A90A2
:103140000E9902F063FC0B900C9902F08BFB20901F
:1031500013990F9802F05AFC0990012080072399D7
:1031600002F0F0FB0890099902F0ECFB0B903F2075
:1031700000060E9902F04AFC07900C9902F046FCFA
:10318000099001208007249902F0DCFB089009993E
:1031900002F0D8FB0A900B9902F064FB1F900D9986
:1031A000149802F05FFB099001208007239902F038
:1031B000C9FB0890099902F0C5FB0B901299109871
:1031C00002F024FC099001208007249902F0BAFB48
:1031D0000890099902F0B6FB0A900B9902F042FBA5
:1031E0001E903F200006119902F010FC07900E99E6
:1031F00002F00CFC099001208007239902F0A2FB49
:103200000890099902F09EFB0B900F99139802F019
:1032100029FB099001208007249902F093FB089074
:10322000099902F08FFB0A900B9902F01BFB1D908D
:103230001E99329802F086FB09901D99319802F090
:1032400081FB0890099902F0E1FB0B90219907E0BE
:1032500064000020680000206C0000207000002046
:103260002F9802F06FFB099020992E9802F06AFBCC
:103270000890099902F0CAFB0A900B9902F0F2FA41
:103280001C901D99309802F05DFB09901F993298AF
:1032900002F058FB0890099902F0B8FB0B902099B6
:1032A0002C9802F04FFB099022992F9802F04AFBCC
:1032B0000890099902F0AAFB0A900B9902F0D2FA41
:1032C0001B901F99319802F03DFB09901E99309890
:1032D00002F038FB0890099902F098FB0B902299B4
:1032E0002E9802F02FFB099021992C9802F02AFBCE
:1032F0000890099902F08AFB0A900B9902F0B2FA41
:103300001A9000211C9802F0F3FA66D000211B9855
:1033100002F0EEFA61D000211A9802F0E9FA5CD0CE
:10332000FE491C9802F00EFBFD490A9002F00AFBD0
:103330000B90FC4801680B9802F094FAF949086078
:10334000F6491B9802F0FEFAF5490A9002F0FAFAE3
:103350000B90F54801680B9802F084FAF249086076
:10336000EE491A9802F0EEFAED490A9002F0EAFAF4
:103370000B90EE4801680B9802F074FAEB49086074
:10338000EB481C9902F0DEFA0A90E64801680A98B8
:1033900002F068FA0B90299902F064FA2990E44847
:1033A0001B9902F0CFFA0A90DF4801680A9802F0F0
:1033B00059FA0B902A9902F055FA2A90DC481A998A
:1033C00002F0C0FA0A90D94801680A9802F04AFA55
:1033D0000B902B9902F046FA2B90D6482B99006857
:1033E00002F0B0FA0990D4482A99006802F0AAFACB
:1033F0000790D24800680121C907484005902999E3
:1034000002F0A0FA0690079902F000FB08900999D3
:1034100002F0FCFAC2490A9002F094FA0B90C848F4
:1034200001680B9802F01EFA1990C2482A990068A8
:1034300002F088FA0990C0482B99006802F082FADD
:103440000790BF480168299802F07CFA0690079916
:1034500002F008FA0890099902F0D8FAB0490A90E7
:1034600002F070FA0B90B54801680B9802F0FAF977
:103470001890B0480168299802F064FA0990AF48A2
:103480002B99006802F05EFA0790AD482A9900680F
:1034900002F058FA0690079902F0B8FA08900999D4
:1034A00002F0E0F99E490A9002F04CFA0B90A24813
:1034B00001680B9802F0D6F917909F480168299887
:1034C00002F040FA09909D482A99006802F03AFA01
:1034D00007909B482B99006802F034FA06900799F0
:1034E00002F0C0F90890099902F090FA8C490A900C
:1034F00002F028FA0B908F4801680B9802F0B2F99D
:1035000016901699084602F01DFA0A901799084677
:1035100002F018FA08901899084602F013FA06907B
:103520001999084602F00EFA0590069902F09AF9E8
:103530000790089902F096F909900A9902F092F919
:103540000B9002F0A9F828902899199802F0FAF93E
:103550007B4908602899189802F0F4F977490860C7
:103560002899179802F0EEF973490860289916987F
:1035700002F0E8F96F4908606F4801680120800790
:1035800002F0E0F901906C480168019802F0DAF964
:1035900003906A4801680320800702F0D3F9019084
:1035A00066480168019802F0CDF90290039902F093
:1035B0002DFA7F21C905049002F054F90590FDF71A
:1035C000B5FE099108905E4801680120800702F06D
:1035D000B9F9029059480168029802F0B3F90490D1
:1035E000554801680120800702F0ACF9029051486B
:1035F0000168029802F0A6F90390049902F032F9EA
:103600000590FDF793FE07910690099B089A01F03B
:103610003DFF0B910A90FDF7D1F84A4948604848B0
:1036200001680120800702F08DF90490424801688A
:10363000049802F087F9069040480168032080074B
:1036400002F080F904903B480168049802F07AF98E
:103650000590069902F006F90790FDF767FE0991BB
:10366000089001F0CBFC0B910A90FDF7A7F83549C3
:103670000860304801680120800702F063F901907A
:103680002C480168019802F05DF903902A4801680E
:103690000320800702F056F901902748016801983D
:1036A00002F050F90290039902F0B0F97F21C905A8
:1036B000049002F0D7F80590FDF738FE09910890C4
:1036C0001F4801680120800702F03CF90290194868
:1036D0000168029802F036F9049018480168012048
:1036E000800702F02FF9029013480168029802F057
:1036F00029F90390049902F0B5F80590FDF716FE3C
:1037000007910690099B089A01F0C0FE0B910A9060
:10371000FDF754F80B498860084615E0A69B443B2A
:10372000A69BC43A74000020780000207C00002092
:103730000000C842700000206C00002068000020DB
:10374000640000204001002040680D490B9002F009
:10375000F9F80C4948600846006809490B9002F0E6
:10376000F1F8084908600846806805490B9002F0A6
:10377000E9F804498860012000F040F92DB000BD4F
:10378000A34C65424001002010B5702200213C206E
:10379000FFF743FB202201213C20FFF73EFB0022E4
:1037A00002213C20FFF739FB0A213C20FFF717FBE1
:1037B00004460B213C20FFF712FB04460C213C2061
:1037C000FFF70DFB04467F20C0050449C86208636B
:1037D000486360198019C0B210BD00004C01002080
:1037E000F0B51FB490B014461D461B991A980F915E
:1037F0000E900D950C9400BF234803C80B910A90BE
:1038000022490D9B0C9A03C9FDF792F90991089082
:103810000F9B0E9A09990898FDF78AF902460B4604
:103820000391029009990898FDF7B2F90591049067
:103830000B9B0A9A11991098FDF787F90191009056
:10384000059B049AFDF74EFC039102900B9B0A9A8C
:10385000FDF76EF906460F4600200D49059B049AB8
:10386000FDF773F903910290099B089AFDF73AFC62
:1038700007910690054A0799069803C20248C0C0FE
:103880003046394615B0F0BD280000203000002039
:103890000000F03FF0B51FB490B014461D461B99D0
:1038A0001A980F910E900D950C9400BF234803C8F1
:1038B0000B910A9022490D9B0C9A03C9FDF738F928
:1038C000099108900F9B0E9A09990898FDF730F915
:1038D00002460B460391029009990898FDF758F9A2
:1038E000059104900B9B0A9A11991098FDF72DF9F8
:1038F00001910090059B049AFDF7F4FB039102905F
:103900000B9B0A9AFDF714F906460F4600200D4955
:10391000059B049AFDF719F903910290099B089AF7
:10392000FDF7E0FB07910690054A0799069803C248
:103930000248C0C03046394615B0F0BD38000020FE
:10394000400000200000F03FF0B51FB490B01446D6
:103950001D461B991A980F910E900D950C9400BF5F
:10396000234803C80B910A9022490D9B0C9A03C966
:10397000FDF7DEF8099108900F9B0E9A09990898B7
:10398000FDF7D6F802460B46039102900999089874
:10399000FDF7FEF8059104900B9B0A9A1199109877
:1039A000FDF7D3F801910090059B049AFDF79AFB6F
:1039B000039102900B9B0A9AFDF7BAF806460F4650
:1039C00000200D49059B049AFDF7BFF80391029072
:1039D000099B089AFDF786FB07910690054A07990F
:1039E000069803C20248C0C03046394615B0F0BD43
:1039F00048000020500000200000F03F012808D1BE
:103A00000921C906898A202251400922D2069182C1
:103A10000EE0022806D10749898A01225140054A51
:103A2000918205E00349898A02225140014A91822C
:103A300070470000000400481CB501210320400429
:103A400000F070FC202000900121684601710021E7
:103A500081710121C1710321417169460920C006AC
:103A6000FEF734FF0120009001216846017100211A
:103A700081710121C1710321417169460948FEF735
:103A800025FF02200090012168460171002181710B
:103A90000121C1710321417169460248FEF716FFF9
:103AA0001CBD000000040048FEB504460D46164645
:103AB0003146284601F046FF314601907F20C0057F
:103AC00001F0A4FF2146009001F03CFF0746019958
:103AD00001F0C8FEFEBD000010B5C82400202D492D
:103AE000486200212B488162C1624C30C180018153
:103AF000418130E000F0EEF82748007800022649C6
:103B00004978084300B2234908802348807800029E
:103B10002149C978084300B21E4948801E480079EF
:103B200000021D494979084300B21A4988800846B5
:103B3000406A00228A5E801848620846806A022233
:103B40008A5E811813488162C06A124904228A5E23
:103B500081181048C1622046611E8CB20028C9D16C
:103B6000C8240C49486A2146FCF782FD00B2094985
:103B70004882886A2146FCF77BFD01B205488182B4
:103B80000146C86A2146FCF773FD01B20148C182B3
:103B900010BD0000A80000209800002010B5C82427
:103BA0000021324801674167816700202F49C880A2
:103BB00000212E480181418135E000F08BF82C482E
:103BC000007A00022A49497A084301B22748403066
:103BD00081812748807A00022549C97A084301B2C9
:103BE00022484C3041802248007B00022049497B1A
:103BF000084301B21D484C3081804C38016F403081
:103C00000C22825E891840380167416F4C300222D5
:103C1000825E89184C384167816F4C300422825E85
:103C200089184C3881672046611E8CB20028C4D1A7
:103C3000C8240E49086F2146FCF71AFD01B20B4853
:103C40004C3041820949486F2146FCF711FD01B211
:103C500006484C3081820549886F2146FCF708FDF3
:103C600001B202484C30C18210BD0000A800002003
:103C70009800002010B500226B21D020FFF7CDF86E
:103C800007221921D020FFF7C8F842223721D0207F
:103C9000FFF7C3F840226A21D020FFF7BEF80222C6
:103CA0001A21D020FFF7B9F810221B21D020FFF7EE
:103CB000B4F809221C21D020FFF7AFF87521D020DD
:103CC000FFF78DF80446682C01D1002010BD0120BB
:103CD000FCE7000010B53B21D020FFF780F8284911
:103CE00008703C21D020FFF77AF8254948703D2123
:103CF000D020FFF774F8224988703E21D020FFF7CA
:103D00006EF81F49C8703F21D020FFF768F81C49A2
:103D100008714021D020FFF762F81949487141210C
:103D2000D020FFF75CF8164988714221D020FFF7B8
:103D300056F81349C8714321D020FFF750F81049B5
:103D400008724421D020FFF74AF80D4948724521F6
:103D5000D020FFF744F80A4988724621D020FFF7A7
:103D60003EF80749C8724721D020FFF738F80449C8
:103D700008734821D020FFF732F80149487310BD7D
:103D800098000020F0B585B0FFF7A4FF57480078F1
:103D900000025649497808435549498A401A00B2F9
:103DA000534908805148807800025049C978084337
:103DB0004F49898A401A00B24D4948804B480079E2
:103DC00000024A494979084300B2494988800020E5
:103DD000085EFDF71FFB464988610220085EFDF77B
:103DE00019FB4349C8610420085EFDF713FB4049F5
:103DF00008623E48007A00023C49497A084301B211
:103E00003B48403081813948807A00023749C97A7D
:103E1000084301B236484C3041803448007B0002F0
:103E20003249497B084301B231484C3081802F48E8
:103E3000807900022D49C979084304900498FDF760
:103E40004EF9044600222B4BFCF7A2FE06462A4AF6
:103E50002A4BFCF76DFE0022294B01910090FDF7E3
:103E600041F903910290FDF7EDF880B204902049EA
:103E700040310C228A5E0C311223CB5ED01AFDF742
:103E8000C9FA1B4948664C3102228A5E1423CB5E74
:103E9000D01AFDF7BFFA01461548816601464C313C
:103EA00004228A5E1623CB5ED01AFDF7B3FA0146D0
:103EB0000F48C1664030C07A012807D1FFF70CFED9
:103EC000FEF74CFC00210A484030C17208488C3093
:103ED000C07A012807D1FFF761FEFEF7EBFD002154
:103EE00003488C30C17205B0F0BD0000980000207E
:103EF000A800002000407540A4703D0AD74342400E
:103F0000000024401FB520221649174800F07CFB12
:103F100001A802AB03AA15A100901248FCF752FABF
:103F200069460C20085EFDF775FA0446FDF728FA8D
:103F300000B21149888469460820085EFDF76AFAD4
:103F40000446FDF71DFA00B20B4988846946042037
:103F5000085EFDF75FFA0446FDF712FA00B2064963
:103F600088841FBD3406002000E0010825642C254C
:103F7000642C25642E0D0A004C010020F8B50A4877
:103F80002424045F2425455F2426865F2B46224691
:103F900006A109480096FCF71BF9202206490748AC
:103FA00000F046FBF8BD00004C01002025642C25E4
:103FB000642C25642E0D0A003406002000E0010860
:103FC000FEB500250026002701F0B8FB3F48C08859
:103FD0003F49097849003F4A50523C4800893C49D2
:103FE000097849003C4A5052384840893849097894
:103FF00049003A4A505200240DE060003549085EFD
:10400000451960003449085E861960003349085E2E
:10401000C719601CC4B20A2CEFDB0A212846FCF742
:1040200027FB2A4924228A5E801A0090FDF7F2F9C4
:1040300001902648C16A019801F084FC0290FDF7C6
:104040009FF900B2214908800A213046FCF710FB95
:104050001E4926228A5E801A0090FDF7DBF9019046
:104060001A48016B019801F06DFC0290FDF788F988
:1040700000B2164948800A213846FCF7F9FA13497C
:1040800028228A5E801A0090FDF7C4F901900F483B
:10409000416B019801F056FC0290FDF771F900B2F6
:1040A0000A4988800A480078401C09490870084677
:1040B00000780A2801D1002008700448008F0028E9
:1040C00003D0FEF73FFDFEF717FDFEBD4C010020BB
:1040D00089000020880100209C010020B001002000
:1040E0007047000000218278002A27D0184A032355
:1040F0001B02D21803789B109B00D15802789207BC
:10410000D30EFF229A400B469343194642789207FA
:10411000120E03789B07DB0E9A4011430C4A0323CF
:104120001B02D21803789B109B00D1500278D30653
:10413000DB0E01229A40064B1A6007E00278D30694
:10414000DB0E01229A40024B80331A607047000058
:1041500000E100E010B5002819DA1A4A03071B0F26
:10416000083B9B089B00D2588307DC0EFF23A3402B
:104170009A438B071B0E8407E40EA3401A43114B8E
:104180000407240F083CA408A4001A5118E00E4AA2
:1041900003231B02D21883089B00D2588307DC0E2E
:1041A000FF23A3409A438B071B0E8407E40EA34012
:1041B0001A43054B032424021B198408A4001A5136
:1041C00010BD00001CED00E000E100E070470000C1
:1041D000FEB5FFF7D7FDFFF7F3FE49490020085E63
:1041E000FCF775FF06460F4600214648464A474BF6
:1041F0000091019030463946FFF7F2FA0446FCF789
:10420000EBFE00B23E49C8800220085EFCF75FFF6B
:1042100006460F4600213B483B4A3C4B009101902B
:1042200030463946FFF736FB0446FCF7D5FE01B2AF
:104230003348018101460420085EFCF748FF04462C
:104240000D4600212F48304A304B00910190204606
:104250002946FFF779FB0646FCF7BEFE01B2284867
:1042600041812B4A416E2B480068FFF71DFC244911
:104270004C31C8630846C06B264908602048244A70
:10428000816E25480068FFF70FFC01461C484C3042
:104290000164006C2049086019481D4AC16E1F481E
:1042A0000068FFF701FC014615484C304164406C42
:1042B0001A49086012494C31C86B194901F042FB98
:1042C0000446FDF75DF801B20D484C30C18001464F
:1042D000086C134901F036FB0446FDF751F801B2B2
:1042E00007484C3001810146486C0D4901F02AFB1A
:1042F0000446FDF745F801B201484C304181FEBD4E
:10430000A8000020000014409A9999999999A93F12
:10431000CBA1C53E580000205C00002060000020BA
:10432000E4A40B3A002905D0054A52690243044B24
:104330005A6104E0024A52698243014B5A61704754
:1043400000100240002905D0054AD2690243044BFF
:10435000DA6104E0024AD2698243014BDA617047B4
:1043600000100240002905D0054A92690243044B1F
:104370009A6104E0024A92698243014B9A61704754
:1043800000100240FEB504460025002600200290E1
:10439000019000900027704840680C2108400546B5
:1043A000002D06D0042D07D0082D08D00C2D2CD1BF
:1043B00028E06A4820602BE06848206028E06648D2
:1043C00040680F218904084006466348406803217D
:1043D000C90308400290B00C861C0298002803D143
:1043E0005F48374647430BE05B48C06A0007000F51
:1043F000401C019059480199FCF730F97043074679
:10440000276005E05748206002E05448206000BF64
:1044100000BF51484068F021084005462D09524828
:10442000405D009021680098C14061604A48406842
:1044300007210902084005462D0A4B48405D0090BF
:1044400061680098C140A1604348006BFF210131C1
:104450000840884202D04548E0600DE03E48406890
:10446000012189030840884203D0A0684008E06029
:1044700002E0A0688008E0603748006B40210840F7
:10448000402802D03A48206102E00120C0032061A8
:104490003148006B10210840102802D02F4860617D
:1044A00001E0206860612C48006B8007800F0028C5
:1044B00002D1A068A06119E02748006B8007800F37
:1044C000012802D12068A06110E02348006B80071A
:1044D000800F022802D18003A06107E01E48006B14
:1044E0008007800F032801D11C48A0611A48006B87
:1044F000032109040840002802D1A068E06120E0FF
:104500001548006B03210904084001210904884271
:1045100002D12068E06114E00F48006B0321090418
:10452000084001214904884202D18010E06108E07E
:104530000948006B032109040840884201D107485B
:10454000E0610548006B80210840802802D00548C2
:10455000206200E02762FEBD0010024000127A00D7
:1045600000093D00006CDC0214000020809FD50093
:104570001280000070B504460D2C0ED10020204999
:104580000870204801F03EF81E48FBF7E1FF0546A1
:1045900029461C48FCF71AF870BD19480078002815
:1045A00009D1302C07DB1748047015480078401CEF
:1045B0001349087022E012480078012807D11148F9
:1045C00044700F480078401C0D49087016E00C48F4
:1045D0000078022807D10B48847009480078401CF5
:1045E000074908700AE006480078032806D1054804
:1045F000C47003480078401C0149087000BFCBE735
:1046000094000020E401002030B503460C46154616
:10461000002207E0184600F008F8510060529B1C89
:10462000501C82B2AA42F5DB30BD014608887047B3
:10463000F7B584B0074616460120C006874202D36C
:104640003A48874201D307B0F0BDFEF719F90120BF
:10465000C006381A01900198800A039001988005DD
:10466000C00D02900121490202980C1AA64200DCFA
:10467000344654E0039989020122D2068818921424
:104680002B49FFF7C1FF00250AE0029840194000BE
:104690002749085A2749884200D003E0681C85B2A0
:1046A000A542F2DB00BFA5421EDA0399890201226E
:1046B000D2068818FEF774F8002509E0690005980D
:1046C000415A029828184000194A1152681C85B2B4
:1046D000A542F3DB039989020122D20688189214BD
:1046E000134900F029F804E022463846059900F005
:1046F00023F8A64200D113E00398401C0390002049
:10470000029061000598401805903F19301B86B251
:1047100001204002864201DD044600E03446A9E75C
:1047200000BFFEF781F800BF8DE70000000002081F
:10473000F4010020FFFF0000F8B505460E461746BD
:10474000002407E06000315A2846FEF777F8AD1CD8
:10475000601C84B2BC42F5DBF8BD704710B500BFE9
:104760007D21C9000D480068FBF778FF0446601EF4
:104770000B49884201D901200CE0601E09494861BB
:104780000321081FFFF7E6FC002006498861072087
:10479000086100200028E3D110BD000000000020C7
:1047A000FFFFFF0000E000E00CB50020019000904A
:1047B000314800680121090408432F49086000BFFF
:1047C0002D48006801214904084000900198401CD0
:1047D00001900098002804D105210903019888421E
:1047E000EED125480068012149040840002802D084
:1047F0000120009001E0002000900098012839D1AC
:1048000011201E4908601C4840681B494860084642
:1048100040684860084640687F21C90388431649BC
:10482000486008464068112109040843124948605D
:10483000084600680121090608430F49086000BFC7
:104840000D4800680121490608400028F8D00A48B0
:104850004068800880000849486008464068022196
:1048600008430549486000BF034840680C210840E0
:104870000828F9D10CBD00000010024000200240C1
:1048800004480088002804D002480088401E0149DE
:10489000088070479600002010B51B480068012171
:1048A00008431949086008464068184908401649F5
:1048B00048600846006816490840134908600846E1
:1048C00000680121890488430F4908600846406850
:1048D0003F21090488430C4948600846C06A000922
:1048E0000001C8620846006BFF2154318843064925
:1048F00008630846406B4008400048630020886019
:10490000FFF752FF10BD0000001002400CB8FFF886
:10491000FFFFF6FE1FB501210846FFF713FD0F212B
:10492000684601700321417001218170FFF7DAFBB5
:104930006846FFF7D7FB1D2002900A496846818030
:1049400000218181C18001A90120800700F08CF83D
:1049500001221146900700F07CF80121880700F041
:1049600057F81FBDBF120000F0B587B001218807BE
:1049700000F05CF8002831D0FEF712F81848006803
:10498000401C17490860642115480068FBF770FE59
:1049900000291FD113498868FCF7C8FC04460D465E
:1049A00010490868FCF7C2FC06460F460D494868E6
:1049B000FCF7BCFC02460B46019700960395029457
:1049C0000591049008A10E48FBF702FC0C490D4824
:1049D00000F097F80121880700F016F807B0F0BD45
:1049E00090000020400100207075743A25322E326C
:1049F000662C25322E32662C25332E32660D0A00A7
:104A0000C401002000440040CA43028270470000F5
:104A1000002904D0028801231A43028003E002889F
:104A2000014B1A4002807047FEFF000030B502467D
:104A3000002000230024158A0D402B4695890D4047
:104A40002C46002B03D0002C01D0012000E00020D8
:104A500030BD002A03D083890B43838102E0838920
:104A60008B4383817047000000220288154B9842D7
:104A700006D001239B07984202D0134B984203D1E2
:104A8000124B1A404B881A43114B984203D0114BDA
:104A90001A400B891A4302804B68C3620B88038556
:104AA000084B984208D00C4B984205D00B4B9842CB
:104AB00002D00B4B984201D18B7A0386012383826B
:104AC00070470000002C0140000400408FFF0000F0
:104AD00000100040FFFC0000004001400044014085
:104AE0000048014070B504460D462946204600F0B6
:104AF000D8F900BF4021204600F007F90028F9D07E
:104B000070BD70B505460C4604E021782846FFF7D5
:104B1000E9FF641C20780028F7D170BD00B589B08A
:104B200001214804FFF7FEFB01218803FFF71AFC6F
:104B300001220921C806FDF711FF01220A210920DF
:104B4000C006FDF70BFF032040020790022108A8D2
:104B50000170002181700121C1700321417007A9FA
:104B60000920C006FDF7B2FEE120400200900020BF
:104B700001900290039005900C20049069460C4827
:104B800000F016F901220B49094800F0EFF8012165
:104B9000074800F0AEF81B216846017602214176F5
:104BA0000121817606A8FFF79DFA09B000BD00003B
:104BB000003801400501050010B50D490D4800F011
:104BC000AEF8002812D00B4800F066F9C4B22146B6
:104BD000084800F066F900BF4021064800F095F84B
:104BE0000028F9D00249034800F07AF810BD00000F
:104BF000050105000038014000B589B001214804D5
:104C0000FFF790FB01214804FFF79CFB01220221E2
:104C10000920C006FDF7A2FE012203210920C006DB
:104C2000FDF79CFE0C200790022108A801700321CB
:104C3000417007A90920C006FDF748FEE1204002A7
:104C40000190002002900390049006900C200590A3
:104C50001C21684601700221417001218170FFF71B
:104C600041FA01A90A4800F0A3F84021084800F0E1
:104C700035F80849064800F031F801220549044892
:104C800000F074F80121024800F033F809B000BDCB
:104C9000004400400501050010B50E490E4800F023
:104CA0003EF8002815D00C4800F0F6F8C4B22046B3
:104CB000FFF760FC2146084800F0F3F800BF4021F0
:104CC000054800F022F80028F9D00249024800F017
:104CD00007F810BD0501050000440040016270475F
:104CE00010B5002300220B0C01249C4022460262D6
:104CF00010BD002904D0026801231A43026003E0BA
:104D00000268520852000260704702460020D369D0
:104D10000B40002B01D0012000E00020704770B54F
:104D200002460B4600240021002500201E04350EFB
:104D3000D9B201268E403146012D02D1166831408C
:104D400006E0022D02D15668314001E096683140FC
:104D50001C0C0126A6403446D6693440002903D0F5
:104D6000002C01D0012000E0002070BDF8B5034602
:104D70000024002600960025002018460E04340E5C
:104D8000CEB200960127009EB7403D46022C01D1CD
:104D9000001D02E0032C00D10830002A03D0066871
:104DA0002E43066002E00668AE430660F8BD0000D0
:104DB000F0B58BB004460D46002700200A9000266F
:104DC00020684008400020606668032109033046DF
:104DD00088430646A8680643666026682A48064057
:104DE000E968686808432969084306432660A6689D
:104DF0000321090230468843064668690643A660D7
:104E000001A8FFF7BFFA2148844202D107980A900F
:104E100007E01F48844202D108980A9001E00398F5
:104E20000A9020680121C903084000280CD0296895
:104E30000A9A5000FBF712FC074629680A9A5000AC
:104E4000FBF70CFC0E4609E029680A98FBF706FC04
:104E5000074629680A98FBF701FC0E4628684008B7
:104E6000B04200D87F1C20680121C90308400028F7
:104E700006D03807460F38460649084030430746F3
:104E8000A7810BB0F0BD0000F3E9FFFF003801403F
:104E900000440040F0FF00000146888CC005C00DB2
:104EA0007047CA05D20D02857047F8B5040C8BB265
:104EB000264682B25E43104658430D0C370C36042A
:104EC00000218019164679416E43370C360480194B
:104ED000264679416E438919F8BD00004900CA028F
:104EE0000243100000D004204A0D01D001221043DB
:104EF000044A490D914201D102210843012800D101
:104F000005207047FF070000F8B504464F1EC80093
:104F10000838211815461E46086849683A4606238F
:104F20009A4310D02A463346FCF7DCF83A46D200C2
:104F3000083AA3181A687F1E5B68FBF7F9FD062282
:104F40003B469343EED1022F23D0042F11D0062FDE
:104F50002FD12A463346FCF7C5F8E36AA26AFBF76D
:104F6000E7FD2A463346FCF7BDF8636A226AFBF781
:104F7000DFFD2A463346FCF7B5F8E369A269FBF783
:104F8000D7FD2A463346FCF7ADF863692269FBF783
:104F9000CFFD2A463346FCF7A5F8E368A268FBF785
:104FA000C7FD2A463346FCF79DF863682268FBF785
:104FB000BFFDF8BD10B50122FCF71EFD10BD10B5F8
:104FC000FBF7B6FD10BD002210B513461046114682
:104FD000FBF7DEFD10BD0000034A10B500201107ED
:104FE000FCF70AFD10BD000001FDFFFF30380A2864
:104FF00001D201207047002070470000F0B5044640
:105000004F008E488FB07F080D460D91874228DBF8
:105010004042381820430CD08948874203DC87423D
:1050200018D1002C16D020462946FFF7C3FF0FB039
:10503000F0BD844A844B20462946FCF753F80746C6
:105040000E46824A824B20462946FCF74BF83A46E8
:10505000334649E00120FCF7EDF9FFF7B4FF0FB04C
:10506000F0BD7C48874243DAF920800587420BDA9D
:1050700020462946FFF732FF042801D1FFF7ACFF95
:10508000204629460FB0F0BD22462B461046294641
:10509000FCF728F8064602466F480F460B460621E5
:1050A0007844FFF731FF32463B46FCF71BF8069089
:1050B0006A48079132463B4604217844FFF724FFB3
:1050C00032463B46FCF70EF800225C4BFBF730FD06
:1050D00002460B4607990698FBF75AFD22462B46D7
:1050E000FCF700F822462B46FBF722FD0FB0F0BD7F
:1050F0002046524C6900490800222346FBF730FD48
:105100000022D243FCF778FC0546024654480E467E
:105110000B4606217844FFF7F7FE2A463346FBF795
:10512000E1FF06904F4807912A4633460421784410
:10513000FFF7EAFE2A463346FBF7D4FF0022234658
:10514000FBF7F6FC059104902846314600F03AFB47
:10515000089045480C46874219DB059B049A07993D
:105160000698FBF715FD02460B4621460898FBF70B
:10517000B9FF2346089AFBF7DBFC0122FCF73CFC55
:10518000304A314BFBF7E1FC304A314B4AE0002713
:105190003A460B460898FBF7CBFC3A4623460A9161
:1051A0000E9010461946FBF79DFF2A463346FBF743
:1051B000D7FC0A9B0E9AFBF7EBFC05460E46059BB7
:1051C000049A07990698FBF7E3FC009104900122EA
:1051D00028463146FCF710FC1A4A1B4BFBF7C0FC73
:1051E0000E460546012221460898FCF705FC009B67
:1051F000049AFBF777FF2A463346FBF7A6FC0546E1
:105200000E46012238462146FCF7F6FB0F4C174F9D
:1052100022463B46FBF7A4FC2A463346FBF7A0FC9C
:1052200022463B46FBF79CFC0D9A002A00DD5DE719
:105230000122D20751400FB0F0BD00000000F03F46
:105240000000F07F075C143326A6913C182D4454CF
:10525000FB21F93F0000E03FCC0A0000E20A000019
:10526000580A00006E0A00003333EF3FFB21E93F8C
:10527000F0B589B004460D464800069172494008D1
:10528000884215DB7149884203DC884207D1002C33
:1052900005D020462946FFF78DFE09B0F0BD6C48C9
:1052A000002D02DD6B4909B0F0BD6B4909B0F0BDBE
:1052B0006A49884211DA6A4988420BDA204629464F
:1052C000FFF70CFE042801D1FFF786FE2046294691
:1052D00009B0F0BD0026F6435DE06D0061496D0840
:1052E000884232DA6049884219DA002601233246C0
:1052F0009B0720462946FBF71BFC0746019101222C
:1053000020462946FCF778FB0022584BFBF71DFC92
:105310003A46019BFBF73CFC04460D463BE0012668
:105320000022524B20462946FBF702FC074600911B
:1053300000224E4B20462946FBF707FC3A46009BCD
:10534000FBF726FC04460D4625E04949884219DA58
:1053500002260022474B20462946FBF7C3FE0022C7
:10536000424BFBF7E5FB074602910022414B2046EA
:105370002946FBF7EAFB3A46029BFBF709FC044689
:105380000D4608E0032622462B4600203A49FBF74B
:10539000FFFB04460D4622462B4610461946FBF7F6
:1053A000A1FE07460B4602460191FBF79BFE024613
:1053B000029032480B46039106217844FFF7A4FD82
:1053C0003A46019BFBF78EFE00902D480191052186
:1053D0007844039B029AFFF797FD039B029AFBF721
:1053E00081FE02460B4601990098002E0BDAFBF76E
:1053F0009FFB22462B46FBF775FE22462B46FBF70A
:10540000AFFB09B0F0BDFBF793FB22462B46FBF741
:1054100069FE1C4AF6007A4493191A685B68FBF728
:1054200094FB22462B46FBF790FB174A7A449319CC
:105430001A685B68FBF794FB069A002AE1DA0122FE
:10544000D207514009B0F0BD000010440000F07FC9
:10545000182D4454FB21F93FFB21F9BF0000DC3F2C
:105460000000203E0000F33F0000E63F0000F03F58
:10547000008003400000F83F0000F0BF6A08000011
:105480002C080000C607000090070000F0B51FB40C
:10549000039B54425D00164626439C46F40F6D085C
:1054A0004B004E4E5B082C438E46B44205D8474213
:1054B0000743FC0F1C43B44204D96346FFF77FFD4A
:1054C00005B0F0BD464E6644164309D0CC0F664683
:1054D000B61702273E40264304461C4304D00BE087
:1054E000FFF7C6FE05B0F0BD002EFBD0012EF9D0AF
:1054F000022E32D0032E34D014462C430BD0374C1E
:10550000A54216D1A3420AD1012189078D438B43BD
:10551000194603950DE0704600280FDB25E0314F5A
:105520007F44002E0ED0012E10D0022E15D0032E57
:1055300017D0A3421DD17046002816DA2A482B49FD
:1055400005B0F0BD7968386805B0F0BD0122796812
:10555000D2073868514005B0F0BD2348244905B052
:10556000F0BD2148234905B0F0BD1F48224905B0D0
:10557000F0BD5B1B1B153C2B02DD1B481E490FE0D9
:105580006446002C05DA3C24E34202DA002001469E
:1055900006E0039BFBF7FCFA49004908FFF768FEA9
:1055A000002EE4D0012E0BD0144A154B022E0CD045
:1055B000FBF7CBFA0C4A0E4BFBF7C7FA05B0F0BD70
:1055C0000122D207514005B0F0BDFBF7BEFA064AF2
:1055D000074BFBF7C5FA05B0F0BD00000000F07FF7
:1055E000000010C034070000182D4454FB21F9BFFF
:1055F000FB210940FB2109C0FB21F93F075C143363
:1056000026A6A13C10B5044616A12046FAF7E2FFF3
:10561000002803D101211448C17222E013A12046C1
:10562000FAF7D8FF002804D101210F484C30C1728D
:1056300017E010A12046FAF7CDFF002803D1012082
:105640000D4908870DE00DA12046FAF7C3FF002899
:1056500007D109490887002103484C30C1724C38F2
:10566000C17210BD61636300E80000206779726F4A
:10567000000000006D6167004C0100206F766572CC
:10568000000000000349088000BF02490988002982
:10569000FBD1704796000020FEB504463F21090665
:1056A000204600F04FF9029025462E4670100B4917
:1056B0000E1A35462946029800F044F92946009012
:1056C00000F040F9FF218905019000F093F90746A9
:1056D000294600F037F905462846FEBDDF59375FF9
:1056E000FFF73CF8FDF78CFAFEF7A6F9FFF716FA7C
:1056F000FFF782FA07E00EA10F48FFF702FA7D20BC
:10570000C000FFF7BFFFFEF7B5FA0028F3D1FCF7A2
:10571000E9FFFDF793F9FEF737F8FEF7F3FBFFF724
:10572000F9F803E07D20C000FFF7ACFFFAE70000C6
:105730006661696C640D0A000044004010B50321E5
:105740003C20FDF74CFB1D49087004213C20FDF76F
:1057500046FB1A49487005213C20FDF740FB1749DC
:10576000887006213C20FDF73AFB1449C8700721D8
:105770003C20FDF734FB1149087108213C20FDF75E
:105780002EFB0E494871084600780002497808430C
:1057900000B20B49C88009480079000207494979DD
:1057A000084300B206490881044880780002034992
:1057B000C978084300B20249488110BD8100002029
:1057C0004C010020F8B506460C46FCF745F90500EB
:1057D0000F4600D00120014349000B484908411AF7
:1057E000C90F0DD0002E01D0012100E000210C4393
:1057F00061004908401AC00F02D10120FBF71AFED0
:1058000028463946F8BD00000000F07F10B5002999
:105810000AD00878002807D005487844FAF7DAFE5D
:10582000002801D0002010BD0248784410BD0000BF
:10583000FA040000F204000010B500290AD008782C
:10584000002807D005487844FAF7C4FE002801D0A4
:10585000002010BD0248784410BD0000EA0400009A
:10586000E204000070B501250400ED074C4020D48F
:10587000441A01D2001B0919C60D4B00F2B2FF2ACF
:1058800029D01B0E2CD000020C02D31A2C43DC4072
:105890002843051910D2280A02D3401C6D0611D0E6
:1058A000761EF6058019FF2A00DA70BDC00DC0050E
:1058B00070BD694000F0B0F801200543C541521C9D
:1058C000761CE8E764089C40C90161408900E7D183
:1058D0000124A043E4E71B0E440200D0034870BD3E
:1058E000002AFCD1C00FC00770BD00BF0000C07F00
:1058F00001230200DB050A430DD4DA4203D49A42A5
:1059000007D488427047D84214D4D94212D488426E
:10591000704780427047DA4203D59A42F9D58142F6
:1059200070475B004200DA4204D24A00DA4201D2F8
:105930008142704710B5024AFCF70EF910BD00BF56
:105940000900120470B5420064414B005C41120E24
:1059500039D01B0E38D0FF2A3CD0FF2B3AD0400262
:105960004902400A490A060045184E43000A090A3E
:10597000D2184843ED017F3A0104731A4019190CFB
:105980004318990F04D001215B0849075B1A521C88
:10599000D80904D3401CF50301D19D0607D0FF2A86
:1059A00008D2D50506D0E4072043401970BD012573
:1059B000A843F4E7002A01DCE00770BD2402FF20C1
:1059C0002043C00570BD1B0EFF2A03D0FF2B01D062
:1059D000E00770BDFF2645003606B54206D84D00EB
:1059E000B54203D8D218FF2A00D0E7E7004870BDBF
:1059F0000000C07F70B50125ED07684004004C40F1
:105A000002D5694000F008F8FFF732FF70B50125B4
:105A10000400ED074C4022D4441A02D26C40001B13
:105A20000919C60D4B00F2B2FF2A4BD01B0E50D005
:105A300000020C02D31A2C43DC40A843051B05D5F9
:105A4000AD0019D36D08761E521E37D0F605280A10
:105A500001D2801970BD70416D0603D070BD6940E0
:105A6000FFF706FF9C4009026140490001D0401E3B
:105A700070BD0124A04370BD6D081DD001202B0C0A
:105A800001D12D0410302B0E01D12D0208302B0F27
:105A900001D12D01001DAB0F01D1AD00801CEB0F1A
:105AA00001D16D00401C6D00361A121A680AF50506
:105AB0004019012A02DB70BD002070BDC036300ADB
:105AC000C00770BD1B0E440201D1FF2B00D102485C
:105AD00070BD002AF0D070BD0000C07F03B4024842
